:020000040800F2
:1000000000040020B1010008D1020008D10200085C
:10001000D1020008D1020008D1020008D102000874
:10002000D1020008D1020008D10200080103000833
:10003000D1020008D1020008D1020008D103000853
:10004000D1020008D1020008D1020008D102000844
:10005000D1020008D1020008D1020008D102000834
:10006000D1020008D1020008D1020008C111000825
:10007000F111000821120008511200088112000835
:10008000B1120008E1120008D1020008D1020008F4
:10009000D1020008D1020008D1020008D1020008F4
:1000A000D1020008D1020008D1020008D1020008E4
:1000B000D102000881140008D1020008D102000812
:1000C000D1020008D1020008D1020008D1020008C4
:1000D000D1020008111A0008D1020008311A0008E4
:1000E000D1020008D1020008D1020008D1020008A4
:0400F000D102000831
:1001000008B500F0E5FE00F0D3F91E48002100F02C
:1001100077FF4FF48060C4F202004FF4806140F238
:10012000823201F05DFA4FF4806040F28232C4F214
:1001300002004FF4006101F053FA1348002100F06F
:100140005FFF0020C4F202004FF4007140F28232DF
:1001500001F046FA0020C4F202004FF4806140F240
:10016000823201F03DFA01F013FD012000F0E0FBC6
:100170004FF4FA7000F0F4FB0248044901F090FDDE
:10018000F6E700BFC00A0020E809002000210008AF
:10019000704700BFAFF30080AFF30080AFF3008083
:1001A000FEE700BFAFF30080AFF30080AFF3008045
:1001B00072B6374880F30988022383F31488BFF3AB
:1001C0006F8F344A344B9A420BD2D143C91821F075
:1001D0000301131F89184FF0553243F8042F8B4247
:1001E000FBD12E4A82420CD22D49131DC91A21F08F
:1001F0000301131F89184FF0553243F8042F8B4227
:10020000FBD101F09DFC2749274B99420BD2C843F3
:10021000C01820F00300254C043000231A595A500E
:1002200004338342FAD1224A224B9A420AD2D14362
:10023000C91821F00301131F8918002243F8042F65
:100240008B42FBD1FFF7A4FF1B4D1C4B9D420BD2F1
:10025000EE43F618B608043D0136002455F8043F75
:1002600001349847B442F9D1FFF74AFF144D154BBA
:100270009D420BD2EE43F618B608043D0136002429
:1002800055F8043F01349847B442F9D1FFF788FF8D
:1002900000080020000000200004002000040020CE
:1002A0000308002000080020000800201821000892
:1002B00000080020980B0020F4000008F40000085B
:1002C000F4000008F4000008AFF30080AFF30080F2
:1002D000FEE700BFAFF30080AFF30080AFF3008014
:1002E00072B6FEE7AFF30080AFF30080AFF300809B
:1002F00000F096FA00DF00BFAFF30080AFF300809C
:10030000EFF30983203383F30988002383F31188F3
:10031000704700BFAFF30080AFF30080AFF3008001
:1003200008B54FF440724FF46D43CEF20003C0F2B3
:10033000FA520021996007201021DA6000F090F84D
:100340000A204FF4007100F08BF80B208021BDE8EB
:10035000084000F085B800BFAFF30080AFF3008025
:10036000202383F311884FF46D43CEF200035B68C2
:1003700013F4006319D0EFF30983A3F1200282F391
:10038000098810494FF080708A6943F8040CD07FC7
:1003900009689268896858B1914294BF002201228D
:1003A00062B1094A43F8082C704783F311887047FB
:1003B000914234BF00220122002AF2D1034A43F8BD
:1003C000082C704718090020F1020008F402000808
:1003D00008B5202383F3118800F0A2F8002383F3EB
:1003E0001188BDE80840FFF7BBBF00BFAFF3008036
:1003F0002DE9F04FC1F80CD0D0F80CD0BDE8F08F4B
:10040000002383F311882846A04700F0D9FA7047EB
:1004100000F0030370B4DB00FF2505FA03F501FAD1
:1004200003F1012200F01F0302FA03F284084FF4E3
:100430006143CEF20003C03453F82460400926EA39
:1004400005050D4300F1600643F8245043F82620CB
:1004500043F8202070BC7047AFF30080AFF30080FA
:1004600000F00303DB00FF2202FA03F201FA03F1BA
:1004700080084FF46D43CEF20003063010B453F8F9
:10048000204024EA02020A4343F8202010BC7047AF
:10049000024B034A9B699A61FEE700BF18090020DE
:1004A000701F0008AFF30080AFF30080AFF300804F
:1004B00000B583B0FFF734FF00F0DAF800F060F821
:1004C00000F0BEFC00F0F4FC40F600004021C2F257
:1004D000000000F0B5F940F61811C2F20001886181
:1004E00001220277002383F3118862B641F68070FF
:1004F0008969C0F600008861009340F6480040F228
:100500009143C021C0F60003C2F2000000F0F8F9E8
:1005100003B000BDAFF30080AFF30080AFF3008005
:1005200038B5134B9B69DA7F0AB1013ADA771A6A58
:10053000104C01321A62E36822680133A242E36080
:1005400014D09568013D956085B91368D1685C60E9
:100550002360D560002383F3118810698847202326
:1005600083F3118822689368002BEED038BD00BF5A
:100570001809002008090020AFF30080AFF30080C5
:1005800040F60813C2F200034FF0FF329A600022D7
:100590005B601B60DA607047AFF30080AFF30080F0
:1005A00070B40D4E03613468C260A568A94204D9D5
:1005B0002468491BA5688D42FAD363688160B44200
:1005C00043600460186018BFA36860601CBFC1EB83
:1005D0000301A16070BC704708090020AFF30080E0
:1005E0000368074A93421FBF996882688A189A6015
:1005F0004268002113600368C1605A60704700BF01
:1006000008090020AFF30080AFF30080AFF3008053
:10061000202383F31188037F0D2B11D8DFE803F02B
:1006200020101007100B101010101010100B436A40
:100630009A6801329A6090E80C001A600268536070
:100640004FF0FF32426281680022074B02771B683D
:100650009A688A42FBD25A68036042601060586010
:10066000002383F31188704718090020AFF300803E
:1006700040F61813C2F2000300225B601B609A6010
:100680005B611B61704700BFAFF30080AFF3008078
:1006900000228168054B02771B689A688A42FBD268
:1006A0005A68036042601060586070471809002063
:1006B00040F61813C2F2000310B499691A6808775B
:1006C00014201468C87701201077104663601C60FE
:1006D0009A6110BCFFF78CBEAFF30080AFF30080CF
:1006E00030B54B1C87B0054611D00B4C0B4AA369A3
:1006F00001A8FFF755FF2846FFF7DAFF049B13B167
:1007000001A8FFF76DFFA369586A07B030BDFFF776
:10071000CFFF014CF7E700BF1809002011060008C1
:10072000F0B4144F0446BE698568B0680023854262
:1007300061620CD823773B461B689A689542FBD9C7
:100740005A682360626014605C60F0BC7047337765
:100750003B461B689A689042FBD95A6833607260C6
:1007600020465E603146012316602377BC61F0BCF1
:10077000FFF73EBE18090020AFF30080AFF3008002
:100780000E4B30B41868996902688C6853601A601F
:10079000986114230125CB77002305770B77034657
:1007A00000E01B689A68A242FBD25A680B604A605C
:1007B0001160596030BCFFF71BBE00BF1809002054
:1007C0000D4B30B41868996902688C685360012534
:1007D0001A609861002305770B77034600E01B68D9
:1007E0009A68A242FBD85A680B604A60116059604F
:1007F00030BCFFF7FDBD00BF18090020AFF300803B
:10080000044B1A689B6992689B689A4200D87047AB
:10081000FFF7D6BF18090020AFF30080AFF30080C8
:10082000034B9B69DB7F0BB1FFF7CABFFFF7A8BF84
:1008300018090020AFF30080AFF30080AFF3008011
:10084000F0B440F61814C2F2000465690022046195
:1008500000F12C06816000F1280745614FF0020C81
:10086000606101641424012180F81CC04277C477C0
:10087000C263826302628177826128618762066354
:10088000C662F0BC704700BFAFF30080AFF30080DA
:100890002DE9F003243940F61815C2F20005471877
:1008A000D5F814C0C7604350069B00267B6040F219
:1008B0000143C0F600033B620223037714239046F2
:1008C00000F1280900F12C02C37701230561C0F86B
:1008D0000880C0F814C0044668614677C0F84080BC
:1008E000C6638663066283778661CCF81000C0F821
:1008F00028900263C262BDE8F0037047AFF3008046
:1009000010B51C4682B0202383F311882346049C33
:100910000094FFF7BDFF00210446FFF701FF00230D
:1009200083F31188204602B010BD00BFAFF30080F2
:1009300010B5202383F31188084B9B691C6C9968C0
:100940008C4201D0814200D298601864FFF758FFB2
:10095000002383F31188204610BD00BF1809002032
:1009600008B50146202383F311880620FFF7B8FE5F
:10097000002383F3118808BDAFF30080AFF300803C
:1009800038B50E4B9C69254655F8283F6062AB424E
:1009900007D01A681846A262FFF77AFEA36AAB4234
:1009A000F7D1637F9B0704D1636922691A612269C9
:1009B00053610E20BDE83840FFF77ABE18090020C9
:1009C000202383F31188FFF7DBBF00BFAFF3008064
:1009D0000023406000608360704700BFAFF3008079
:1009E000F8B52F4A836805469469002B51D0A16859
:1009F0009A68914206D91A7F9960042A31D0052A53
:100A00001CD092B12B461B689D4203D09968A26806
:100A10009142F8D25A6804202360626014605C60DE
:100A20006562BDE8F840FFF743BE93E80600116039
:100A300018461B685A60FFF72BFEE3E758681A68F0
:100A40005E6A02601F68324678601268964202D081
:100A500090688842F9D251681A6059600B605360FF
:100A6000D0E758681A685E6A02601F68324678608C
:100A70001268964212D090688842F9D251681A6082
:100A800059600B605360B368A1689A688A42B2D318
:100A9000B8E7E36B8460C360E063F8BD3246EDE71E
:100AA00018090020AFF30080AFF30080AFF300809F
:100AB00008B5202383F31188FFF792FF002383F307
:100AC000118808BDAFF30080AFF30080AFF3008062
:100AD000154A38B59069202383F31188C46B2568C3
:100AE000E368A542C3631CD0016C4BB11A689A42FB
:100AF00003D09268914238BF1146DB68002BF5D1D4
:100B00002B68EA6B8160236028465C600021A56049
:100B1000E260EC63FFF704FE002383F311882046B4
:100B200038BD0023A360F7E718090020AFF3008069
:100B300008B5826B037F1143082B81630BD0092B0F
:100B400000D008BD436A19408B42FAD1FFF7A0FDDF
:100B50000023436208BD436A1942F7D108BD00BFB4
:100B600070B504680546A0420E4609D0E368606887
:100B70003343E360A168FFF7DBFF2468A542F5D1AA
:100B800070BD00BFAFF30080AFF30080AFF3008013
:100B900010B4024659B1084B0D209B695A62546843
:100BA00083E814005360236010BCFFF799BD4FF039
:100BB000FF3010BC704700BF18090020AFF3008061
:100BC00010B4C361019B8A180024406000608460F7
:100BD00041618161C1600261036210BC704700BF66
:100BE000426908B503468069824298681AD001308C
:100BF000986002F8011B19695A618A420BD2186881
:100C000098420DD002681A605360FFF741FD00233F
:100C10004362184608BD1868DA6898425A61F1D1F3
:100C2000002008BD0028E2D06FF0030008BD00BF1F
:100C300070B5202304460E4683F31188C36903B1BF
:100C40009847A568204631463DB9FFF7A1FF002827
:100C5000F7DA2B4683F3118870BDA369013DA560C7
:100C600013F8010B2269A361934224BFE368A361D7
:100C7000002383F3118870BDAFF30080AFF30080D1
:100C80002DE9F0471E460446C769202383F31188E7
:100C90004FF0000801F1010901EB020A0FB12046F3
:100CA000B847A568204631464DB9FFF771FF0028C7
:100CB000F7D02B4683F311884046BDE8F087A3693F
:100CC000013DA56013F8012B09F8012C2269A361ED
:100CD000934224BFE368A361002383F31188D145C5
:100CE00008F10108E8D0202383F3118809F10109F4
:100CF000D4E700BFAFF30080AFF30080AFF3008014
:100D000010B4C361019B8C18406000608260416137
:100D10008161C1600461036210BC7047AFF3008061
:100D2000F8B504460F461646202383F31188A568BC
:100D3000204631463DB9FFF72BFF0028F7DA2B4656
:100D400083F31188F8BD6369013DA56003F8017B59
:100D500022696361934224BFE3686361E3690BB175
:100D600020469847002383F311881846F8BD00BF3A
:100D70004169826910B591420346816816D00131FC
:100D8000996012F8014B19699A618A420BD218686E
:100D9000984206D002681A605360FFF779FC00237E
:100DA0004362204610BDDA689A61F0E70029E6D078
:100DB0006FF0020010BD00BFAFF30080AFF3008002
:100DC0002DE9F0479A46044688461646D0F81C900E
:100DD000202383F311880027A56820466B1EEDB100
:100DE000A36018F8013B656905F8013B236965615B
:100DF0009D4224BFE3686361B9F1000F00D0C8478A
:100E0000002383F311880137013E10D0202383F3A0
:100E10001188A56820466B1E002DE1D12046514661
:100E2000FFF7B6FE0028D7D02B4683F3118838464B
:100E3000BDE8F087AFF30080AFF30080AFF3008030
:100E40004CF20001084840F6381240F63413C2F262
:100E50000001C2F2000220F00700C2F2000321F0FC
:100E600007011060196070479F0B0020AFF30080EE
:100E7000202383F31188094B09491A680968073050
:100E800020F00700891A88429ABF101818600022C3
:100E9000002383F311881046704700BF38090020F3
:100EA00034090020AFF30080AFF30080AFF300807F
:100EB00040F64013C2F2000340F671610022C0F612
:100EC000000103F1100019609A60DA60FFF780BD3D
:100ED00008B500F07DFA00F04BF942F23000C0F6A0
:100EE000000000F0F5FA00F00BF800F059F800F0FF
:100EF000B7F8BDE8084000F02BBE00BFAFF300809C
:100F000000F0D6BAAFF30080AFF30080AFF30080FB
:100F10000123037000234360704700BFAFF30080DC
:100F20000C30FFF7ADBE00BFAFF30080AFF3008021
:100F30000C304FF0FF33FFF7A3BE00BFAFF30080CC
:100F40003030FFF73DBF00BFAFF30080AFF300804C
:100F500030304FF0FF33FFF733BF00BFAFF30080F7
:100F60000C30FFF765BE00BFAFF30080AFF3008029
:100F70000C304FF0FF31FFF75BBE00BFAFF30080D6
:100F80003030FFF7CDBE00BFAFF30080AFF300807D
:100F900030304FF0FF32FFF7C3BE00BFAFF3008029
:100FA00000F056BDAFF30080AFF30080AFF30080D8
:100FB00070B50B4641F6A0710546C0F60001044627
:100FC00045F8041B82B065600125164604F1540102
:100FD0004022257200F10C000094FFF7F1FD00940F
:100FE00004F1300004F1940140223346FFF788FEFB
:100FF00002B070BDAFF30080AFF30080AFF30080AC
:1010000010B52023044683F3118800F049FD022324
:101010002372002383F3118810BD00BFAFF300805B
:1010200038B5436904460D463BB104F10C0029462E
:10103000FFF7D6FD00280BDB38BD04300421FFF795
:101040008FFD04F10C002946FFF7CAFD0028F3DAF2
:10105000201D8021BDE83840FFF782BDAFF300803E
:1010600000F05EBBAFF30080AFF30080AFF3008011
:10107000002301220270436083600C30FFF7A8BC9C
:1010800010B52023044683F31188416000F070FB03
:1010900002232370002383F3118810BDAFF3008077
:1010A00008B5202383F3118800F0BAFB002383F3F3
:1010B000118808BDAFF30080AFF30080AFF300806C
:1010C00008B5202383F3118800F0BAFB002383F3D3
:1010D000118808BDAFF30080AFF30080AFF300804C
:1010E00010B52023044683F311880323037000F016
:1010F000B7FB40F61813C2F200039B690220A360FD
:10110000FFF7D6FA002383F3118810BDAFF30080F8
:101110000C30FFF7CDBC00BFAFF30080AFF3008011
:10112000FFF7D6BCAFF30080AFF30080AFF30080D1
:101130004FF48053CEF200035B688360704700BFBA
:101140004FF48053CEF20003084982685B68096857
:101150009B1AC2685B1A9342836004D80269934267
:1011600038BF03617047C360704700BF600900204B
:1011700010B540F6601486B00022C2F2000422606E
:1011800004924FF0FF3205924FF4805341F2311236
:10119000C0F60002CEF200035B68019241F24112F8
:1011A000C0F6000201A803930292FFF7C9FF039B58
:1011B000236006B010BD00BFAFF30080AFF3008026
:1011C0004FF4C0430848C4F202031968026810B51E
:1011D0000F2401F00F015C600AB140689047BDE840
:1011E0001040FFF7BDB800BF64090020AFF30080D6
:1011F0004FF4C0430848C4F202031968826810B56E
:10120000F024C1F303115C600AB1C0689047BDE8E7
:101210001040FFF7A5B800BF64090020AFF30080BD
:101220004FF4C0430848C4F202031968026910B5BC
:101230004FF47064C1F303215C600AB140699047C8
:10124000BDE81040FFF78CB864090020AFF30080C0
:101250004FF4C0430848C4F202031968826910B50C
:101260004FF47044C1F303315C600AB1C069904728
:10127000BDE81040FFF774B864090020AFF30080A8
:101280004FF4C0430848C4F202031968026A10B55B
:101290004FF47024C1F303415C600AB1406A904787
:1012A000BDE81040FFF75CB864090020AFF3008090
:1012B0004FF4C0430848C4F202031968826A10B5AB
:1012C0004FF47004C1F303515C600AB1C06A9047E7
:1012D000BDE81040FFF744B864090020AFF3008078
:1012E0004FF4C0430848C4F202031968026B10B5FA
:1012F0004FF07064C1F303615C600AB1406B9047CA
:10130000BDE81040FFF72CB864090020AFF300805F
:101310000B4930B400230B4D0B4C0B601A46194699
:10132000E8580C330160A1500832542BF8D14FF427
:10133000C043C4F202034FF0FF325A6030BC704722
:101340009C090020C01F000864090020AFF3008042
:10135000F8B5447A4FF0010C0CFA04F6184D2F68DA
:101360003E4229D1DFF85CC03E430CEBC4077B60F2
:10137000730618BF4FF460532E6018BFC4F2020307
:101380004CF8342018BFDC6945681CBF44F08074F9
:10139000DC6103680F271C6824F00F041C60067AC8
:1013A000002407FA06F62E601C603AB1807A090123
:1013B000FFF72EF82046F8BD6046F8BD1046F8BD90
:1013C0009C09002064090020AFF30080AFF3008087
:1013D0004FF46053C4F202031A69002162F4004220
:1013E00010B41A61196198694EF2100260F08050D1
:1013F000986199615C694FF0FF345C61CEF2000244
:1014000004F5FA4459614EF6F0505460916007219A
:101410001160CEF20000C2684FF4805142F0807239
:10142000C260CEF2000108684FF4E04240F00100D3
:101430000860596AC4F2000241F080515962116893
:1014400041F4807111605A6B12F4403F07D05A6B1F
:1014500042F400025A635A6B22F400025A6310BC31
:10146000FFF756BFAFF30080AFF30080AFF300800B
:10147000704700BFAFF30080AFF30080AFF3008090
:1014800008B50A4B00211878DA680428118204D1C3
:10149000022018701180118291815B6803485B689B
:1014A0009847BDE80840FEF75BBF00BFA0090020D9
:1014B00040F6A013C2F200034FF48062C4F20002AF
:1014C0001846DA60FFF724BDAFF30080AFF3008069
:1014D0004FF46052C4F20202D36970B443F0FF03C8
:1014E000D361916A002341F0FF019162916AC4F2D5
:1014F000020341F0FF01916242684FF480655A6037
:101500008268C4F202059A60C2684FF40064DA602F
:101510000269C4F202045A6142694FF440611A62DE
:101520008269C4F202015A6206684FF480521E605A
:10153000036AC4F202026B60466A4FF4A053AE60C5
:10154000866AC4F20203EE60C66A6E61066B2E62A2
:10155000466B6E62C6692E60C56B6560056CA560E2
:10156000456CE560856C6561C56C2562056D6562DD
:10157000856B2560846D4C60C46D8C60046ECC609E
:10158000446E4C61846E0C62C46E4C62446D0C609F
:10159000416F5160816F9160C16FD160D0F8801050
:1015A0005161D0F884101162D0F888105162016F37
:1015B0001160D0F890205A60D0F894209A60D0F84A
:1015C0009820DA60D0F89C205A61D0F8A0201A62E6
:1015D000D0F8A4205A62D0F88C201A6070BC7047F2
:1015E0002DE9F00F002302F00307C2F38006C2F3D7
:1015F000C105C2F34114C2F3C31B4FF00F0A4FF0F1
:10160000010904E07600AD00A400BF00013303F03F
:101610000702920011F0010F3AD00BFA02FC0AFA0D
:1016200002F2072B95BFD0F82080D0F8248028EA5A
:10163000020228EA020209FA03F895BF42EA0C0204
:1016400042EA0C02026242624FF0030C5A000CFAAA
:1016500002F2D0F804C0D2432CEA080C4CEA060C83
:10166000C0F804C0D0F808C002EA0C0C4CEA050C23
:10167000C0F808C0D0F80CC002EA0C0C4CEA040C0C
:10168000C0F80CC0D0F800C002EA0C023A43026075
:101690004908B7D1BDE8F00F704700BFAFF3008035
:1016A0000B0700D47047FEF71BBE00BFAFF30080EE
:1016B0000A0770B5044630D4626A236A1068556818
:1016C00006680F2126F00F060660107A1A6801FAE4
:1016D00000F028601568606825F00F0515601D7A18
:1016E0005A6801FA05F1036811609BB10422227067
:1016F000204698472378042B0CD0A06848B10025D9
:10170000A560202383F31188FEF7C2FF2B4683F3E5
:10171000118870BD02232370EFE7FEF7E1FDCBE7F0
:1017200010B540F6B414C2F2000440F6B013C2F291
:1017300000034FF6FF7220461A80FFF799FC084B12
:101740004FF4405203F10C01236241F20A03C4F248
:101750000102A3620E33E2616162E36210BD00BF69
:10176000CC1F0008AFF30080AFF30080AFF3008020
:10177000037810B5012B044627D0C3696268A06ABC
:10178000528902F4006189B2B9B1E16A20F4706053
:1017900021F4706140F4A06041F4A061A062E162B4
:1017A00042F44172002119801A8007229A801A8817
:1017B00092B242F040021A8010BDE16A20F47060DB
:1017C00021F47061A062E162EAE7114B984209D00E
:1017D000216A626AE3690868116803F10C02826099
:1017E0008A60CBE703460A210A4A006AFFF7B0FD88
:1017F000094A2346606A0A21FFF7AAFD4FF46053A5
:10180000C4F202031A6A42F480521A62E0E700BF8F
:10181000B4090020B1160008A1160008AFF300803B
:10182000436801211A895B6801FA02F292B25A8375
:10183000704700BFAFF30080AFF30080AFF30080CC
:10184000436801211A895B6801FA02F292B21A8395
:10185000704700BFAFF30080AFF30080AFF30080AC
:10186000F0B4036A476AC66A856A1C6840F6E410E9
:101870003B68C2F2000046F08006E06061602560CF
:10188000DA6059601E60226842F0010222601A6824
:1018900042F001021A60F0BC704700BFAFF3008055
:1018A0004FF46053C4F201039A8992B242F080026D
:1018B0009A817047AFF30080AFF30080AFF30080F0
:1018C0004FF49043C4F200039A8992B242F080022E
:1018D0009A817047AFF30080AFF30080AFF30080D0
:1018E0002DE9F041D0F8D4500646AF892C88A9885C
:1018F000A4B22207BFB21FFA81F849D104F4807361
:101900009BB2002B32D104F020039BB213BB07F033
:1019100080039BB223B104F080039BB2002B58D10B
:1019200004F04004A4B29CB1202383F31188102159
:10193000301DFFF715F9002383F311884FF6BF73AD
:101940003B40AB812B8823F040031B041B0C2B80F6
:10195000BDE8F081202383F3118830465FFA88F1D7
:10196000FFF75EFB002383F31188D0E7202383F386
:1019700011884FF40071301DFFF7F2F8002383F354
:1019800011882B8823F480731B041B0C2B80BAE76F
:1019900004F0080189B2002914BF80210021E30767
:1019A00004F002039BB248BF41F020010BB141F0AB
:1019B000400104F004039BB20BB141F48071202379
:1019C00083F31188301DFFF7CBF8002383F31188D0
:1019D00094E7202383F3118806F13000FFF7C8F95C
:1019E0000028A4BF80B2A88003DB002383F3118802
:1019F00096E7301D0821FFF7B3F827F0C00343F046
:101A00004003AB81F1E700BFAFF30080AFF300808C
:101A100040F6E81008B5C2F20000FFF761FFBDE82C
:101A20000840FEF79DBC00BFAFF30080AFF300801D
:101A300040F6C02008B5C2F20000FFF751FFBDE834
:101A40000840FEF78DBC00BFAFF30080AFF300800D
:101A500038B540F6E815C2F2000541F6A102284665
:101A60000021C0F6000240F6C024FFF7A1FAC2F23E
:101A700000044FF4605341F6C102C4F20103204652
:101A80000021C0F60002C5F8D430FFF791FA4FF4F8
:101A90009043C4F20003C4F8D43038BDAFF30080E3
:101AA00038B5037A234C0546002918BF0C46012B94
:101AB00020D021684FF49042C0F2E812D5F8D4301B
:101AC000B2FBF1F292B21A81A288E088218942F435
:101AD000045240F0400041F0010142F02C0292B269
:101AE00080B289B2188299829A8100221A801A885B
:101AF0009B8838BD104B98420FD0104B9842D8D1DC
:101B00004FF46053C4F202035A6A272042F4802241
:101B10005A62C021FEF77CFCCBE74FF46053C4F25D
:101B200002031A6A252042F480421A62C021FEF79D
:101B30006FFCBEE720200008E8090020C00A002052
:101B4000FFF796BCAFF30080AFF30080AFF30080E7
:101B5000704700BFAFF30080AFF30080AFF30080A9
:101B600030B540F6B41483B0C2F20004B92302AD1C
:101B700005F8013D2046FFF793FA204601212A4649
:101B8000FFF7AEFA2046FFF79BFA03B030BD00BF67
:101B900070B540F6B414C2F2000442F2E00182B023
:101BA0002046C0F600010025FFF76AFAC4F20205DC
:101BB000102319462B8319222846FFF711FD2846CA
:101BC000202140F29A22FFF70BFD2846402140F2E7
:101BD0008222FFF705FD802140F29A222846FFF776
:101BE000FFFC02AD5023204605F8013DFFF790FAB7
:101BF0002046FFF755FA01212A462046FFF770FAE2
:101C00002046FFF75DFA012620468DF80760FFF7B2
:101C100047FA204631462A46FFF762FA002320465B
:101C200031462A468DF80730FFF75AFA0423314629
:101C30002A4620468DF80730FFF752FA2046FFF774
:101C40003FFAFFF78DFF2046FFF76AFA02B070BD3A
:101C5000F0B400F10B0C00F10A050C46B1FBF2F6F2
:101C600002FB161101F13003392BC8BF01F1370314
:101C7000DBB2B4FBF2F42F46314605F80139002CF3
:101C8000ECD1C7EB0C013A46411801E012F8013FD4
:101C900000F8013B8842F9D1F0BC7047AFF30080F7
:101CA0000EB42DE9F04F86B00FAB53F8044B0DF195
:101CB0000D0C0DF10C080293C8EB0C03CDF800C01D
:101CC00006460193254615F8011B59B125290ED06A
:101CD00033682C4630469B682546984715F8011B0B
:101CE0000029F3D106B0BDE8F04F03B07047637828
:101CF0002D2B18BF4FF0000900F0128120272E2B4A
:101D000000F00A812C460299002506E00A78043189
:101D100005EB8505237802EB4505A3F13002D2B22D
:101D20000134092AF4D92A2BF0D000202E2B02915D
:101D300049D003F0DF024C2A55D12278012112B19B
:101D4000013413460121A3F14402342A00F2DC805D
:101D5000DFE812F0CA00DA00DA00DA00DA00CA00BE
:101D6000DA00DA00DA00DA00DA00E000DA00DA009D
:101D7000DA00DA00DA00C200DA00DA00B500DA00D0
:101D8000DA00DA00DA00DA00DA00DA00DA00DA0083
:101D9000DA009500CA00DA00DA00DA00DA00CA00D8
:101DA000DA00DA00DA00DA00DA00E000DA00DA005D
:101DB000DA005000DA00C200DA00DA00B5000A7872
:101DC000043102EB4C0014F8013B00EB800CA3F152
:101DD0003002D2B2092AF4D92A2BF0D003F0DF0264
:101DE0004C2A0291A9D0A3F1410119298CBF0021ED
:101DF0000121A8E7029B42F2F002D3F800A0C0F64E
:101E00000002BAF1000F08BF924604339AF800208E
:101E1000029347F6FF73002808BF1846002A00F017
:101E2000A0805346504402E0904200F096805978DA
:101E30005A1C13460029F7D1CAEB020BCBEB050560
:101E4000202725EAE575B9F1000F29D0BBF1000F75
:101E5000C8BF0AEB0B0907DD33681AF8011B9B6842
:101E600030469847CA45F7D1002D3FF42BAF336871
:101E700030469B6839469847013DF8D122E7029BDE
:101E8000DDF804B01A68043302938DF80C20202783
:101E9000C246CBEB050525EAE575B9F1000FD5D1B2
:101EA0006D42002DD2D09AF800102D294AD0336807
:101EB00030469B68394698470135F8D1C6E710226D
:101EC000029B69B1191D029119684046FFF7C0FED7
:101ED000C246C8EB000BDCE70A22029B0029F1D1C5
:101EE000181D19680290F0E7029B1A1DE9B91968DC
:101EF00002920029A8BF40461DDB0A22FFF7A8FE78
:101F0000C246C8EB000BC4E78DF80C30DDF804B016
:101F1000C246BEE70822D3E76B7830270135F1E6E9
:101F2000A51CA3784FF00109E8E619680292002980
:101F3000A8BF4046E1DA2D238DF80C3049420DF15F
:101F40000D00DAE7302FB2D1336830469B689847EE
:101F50000AF1010A0BF1FF3BA9E7CAEB000B2027AE
:101F600097E79346202794E7AFF30080AFF3008014
:101F700069646C65000000000000000000000000C3
:101F80006D61696E00164211040448080C101418A3
:101F9000001C1D1E1F2000000000000000000000AB
:101FA000510F0008310F0008910F0008710F000851
:101FB000810F0008610F0008410F0008210F000881
:101FC000086002400460024000000B001C600240F8
:101FD0000460024004010C003060024004600240D2
:101FE00008020D0044600240046002400C030E0031
:101FF000586002400460024010040F006C60024010
:102000000460024014051000806002400460024039
:102010001806110000000000000000000000000091
:1020200000960000000000400000000000000000DA
:1020300000AAA02A00000000FFFFFFFF5400016477
:10204000FFFFFFFF0000565500AA0A00802008008D
:1020500040020000FFFFFFFF15455155FFFFFFFF46
:102060000000000440000000018020020000000089
:10207000FFFFFFFF54154554FFFFFFFF0000006006
:10208000000606000001005500000000FFFFFFFFF2
:1020900055505500CF0F0000000000000000000068
:1020A0004000000000000000FFFFFFFF10555555E5
:1020B000FFFFFFFF00000000000000000000000024
:1020C00000000000FFFFFFFF55555555FFFFFFFFC4
:1020D0000000000000000000000000000000000000
:1020E00000000000000002400400000000000000AA
:1020F000286E756C6C2900000000000000000000D4
:1021000054686973206973206120746573740D0AC3
:0421100000000000CB
:0400000508000100EE
:00000001FF
