:020000040800F2
:100000000004002081010008A1020008A1020008EC
:10001000A1020008A1020008A1020008A102000834
:10002000A1020008A1020008A1020008C102000804
:10003000A1020008A1020008A1020008A103000813
:10004000A1020008A1020008A1020008A102000804
:10005000A1020008A1020008A1020008A1020008F4
:10006000A1020008A1020008A1020008210F000857
:10007000510F0008810F0008B10F0008E10F0008C0
:100080001110000841100008A1020008A102000898
:10009000A1020008A1020008A1020008A1020008B4
:1000A000A1020008A1020008A1020008A1020008A4
:1000B000A102000831120008A1020008A1020008F4
:1000C000A1020008A1020008A1020008A102000884
:1000D000A1020008A1140008A1020008C114000830
:1000E000A1020008A1020008A1020008A102000864
:0400F000A102000861
:1001000000B583B000F0B4FD00F0BAF91148002149
:1001100000F076FE0020C4F202004FF4007140F2BD
:10012000823201F005FB0020C4F202004FF480612E
:1001300040F2823201F0FCFA00230093064842F6B6
:10014000B0417F22054B00F073FB4FF4FA7000F0D2
:1001500087FBFAE7F8090020E80C00205129000885
:10016000704700BFAFF30080AFF30080AFF30080B3
:10017000FEE700BFAFF30080AFF30080AFF3008075
:1001800072B6374880F30988022383F31488BFF3DB
:100190006F8F344A344B9A420BD2D143C91821F0A5
:1001A0000301131F89184FF0553243F8042F8B4277
:1001B000FBD12E4A82420CD22D49131DC91A21F0BF
:1001C0000301131F89184FF0553243F8042F8B4257
:1001D000FBD101F00DFB2749274B99420BD2C843B5
:1001E000C01820F00300254C043000231A595A503F
:1001F00004338342FAD1224A224B9A420AD2D14393
:10020000C91821F00301131F8918002243F8042F95
:100210008B42FBD1FFF7A4FF1B4D1C4B9D420BD221
:10022000EE43F618B608043D0136002455F8043FA5
:1002300001349847B442F9D1FFF762FF144D154BD2
:100240009D420BD2EE43F618B608043D0136002459
:1002500055F8043F01349847B442F9D1FFF788FFBD
:1002600000080020000000200004002000040020FE
:1002700003080020000800204808002098370008E4
:100280004808002098390020F4000008F400000815
:10029000F4000008F4000008AFF30080AFF3008022
:1002A000FEE700BFAFF30080AFF30080AFF3008044
:1002B00000F03EFA00DF00BFAFF30080AFF3008034
:1002C000EFF30983203383F30988002383F3118834
:1002D000704700BFAFF30080AFF30080AFF3008042
:1002E00008B500224FF46D43CEF20003C0F2FA527B
:1002F0000021996007201021DA6000F099F80A20A7
:100300004FF4007100F094F80B208021BDE8084004
:1003100000F08EB8AFF30080AFF30080AFF3008041
:10032000202383F311884FF46D43CEF200035B6802
:1003300013F4006319D0EFF30983A3F1200282F3D1
:100340000988124A4FF08070916943F8040C79B122
:100350001168D26989689268914294BF0022012293
:1003600082B10B4A43F8082C704783F31188704719
:100370001168D26989689268914234BF00220122D3
:10038000002AEED1034A43F8082C70476009002088
:10039000B1020008B4020008AFF30080AFF30080A0
:1003A00008B5202383F3118800F0A2F8002383F31B
:1003B0001188BDE80840FFF7B3BF00BFAFF300806E
:1003C0002DE9F04FC1F80CD0D0F80CD0BDE8F08F7B
:1003D000002383F311882846A04700F071FA704784
:1003E00000F0030370B4DB00FF2505FA03F501FA02
:1003F00003F1012200F01F0302FA03F284084FF414
:100400006143CEF20003C03453F82460400926EA69
:1004100005050D4300F1600643F8245043F82620FB
:1004200043F8202070BC7047AFF30080AFF300802A
:1004300000F00303DB00FF2202FA03F201FA03F1EA
:1004400080084FF46D43CEF20003063010B453F829
:10045000204024EA02020A4343F8202010BC7047DF
:10046000024B034ADB699A61FEE700BF6009002086
:10047000C02D0008AFF30080AFF30080AFF3008021
:1004800000B583B0FFF72CFF00F0CAF800F058F871
:1004900000F0A6FB00F0DCFB40F648004021C2F271
:1004A000000000F065F940F66011C2F2000101227F
:1004B000C8610277002383F3118862B642F6D050F8
:1004C000C969C0F600008861009340F6900040F2D0
:1004D0006143C021C0F60003C2F2000000F0A8F999
:1004E00003B000BDAFF30080AFF30080AFF3008036
:1004F00038B5104B9A69002A01DD013A9A61DA6930
:100500000D4C116A236801311162E2680132A34285
:10051000E2600ED09D68013D9D6055B91A68D968AA
:100520001869DD6054602260884723689A68002A51
:10053000F4D038BD6009002050090020AFF30080DE
:1005400040F65013C2F200034FF0FF329A600022CF
:100550005B601B60DA607047AFF30080AFF3008030
:1005600070B40D4E03613468C260A568A94204D915
:100570002468491BA5688D42FAD363688160B44240
:1005800043600460186018BFA36860601CBFC1EBC3
:100590000301A16070BC704750090020AFF30080D8
:1005A0000368074A93421FBF996882688A189A6055
:1005B0004268002113600368C1605A60704700BF41
:1005C00050090020AFF30080AFF30080AFF300804C
:1005D000037F0D2B11D8DFE803F020101007100B5C
:1005E000101010101010100B436A9A6801329A60B4
:1005F00090E80C001A60026853604FF0FF324262CC
:1006000081680022054B02771B689A688A42FBD2F8
:100610005A680360426010605860704760090020AB
:1006200040F66013C2F2000300229A6014225B605D
:100630001B609A615B611B61704700BFAFF3008074
:1006400000228168054B02771B689A688A42FBD2B8
:100650005A6803604260106058607047600900206B
:1006600040F6601330B4C2F200031A68D969146806
:100670000877142098610125104663601C60DA61D8
:10068000157730BCFFF79CBEAFF30080AFF300805E
:1006900030B54B1C87B0054611D00B4C0B4AE369B3
:1006A00001A8FFF75DFF2846FFF7DAFF049B13B1AF
:1006B00001A8FFF775FFE369586A07B030BDFFF77F
:1006C000CFFF014CF7E700BF60090020D10500080B
:1006D000F0B4154F0446FE698568B0680023854272
:1006E00061620CD823773B461B689A689542FBD918
:1006F0005A682360626014605C60F0BC70473377B6
:100700003B461B689A689042FBD95A683360726016
:100710005E60012316602046FC6131462377142376
:10072000BB61F0BCFFF74CBE60090020AFF3008056
:100730000E4A30B41068D169036814258C681360C0
:1007400095615A60D06101220277002203460A7740
:1007500000E01B689A68A242FBD25A680B604A60AC
:100760001160596030BCFFF72BBE00BF600900204C
:10077000F0B440F66014C2F200046569002200F192
:100780002C06816000F128074FF0020C0164012162
:100790000461456180F81CC060614277C263826376
:1007A000026281778261286187620663C662F0BC5B
:1007B000704700BFAFF30080AFF30080AFF300805D
:1007C0002DE9F003243940F66015C2F20005471800
:1007D000D5F814C0C7604350069B00267B6040F2EA
:1007E000D133C0F600033B620223904600F1280992
:1007F00000F12C02037701230561C0F80880C0F8DE
:1008000014C0044668614677C0F84080C6638663BA
:10081000066283778661CCF81000C0F828900263E6
:10082000C262BDE8F0037047AFF30080AFF3008011
:1008300010B51C4682B0202383F311882346049C04
:100840000094FFF7BDFF00210446FFF741FF00239E
:1008500083F31188204602B010BD00BFAFF30080C3
:1008600008B50146202383F311880620FFF710FF07
:10087000002383F3118808BDAFF30080AFF300803D
:1008800038B50E4BDC69254655F8283F6062AB420F
:1008900007D01A681846A262FFF7D2FEA36AAB42DD
:1008A000F7D1637F9B0704D1636922691A612269CA
:1008B00053610E20BDE83840FFF7D2BE600900202A
:1008C000202383F31188FFF7DBBF00BFAFF3008065
:1008D0000023406000608360704700BFAFF300807A
:1008E00008B5826B037F1143082B81630BD0092B62
:1008F00000D008BD436A19408B42FAD1FFF7A0FE31
:100900000023436208BD436A1942F7D108BD00BF06
:1009100070B504680546A0420E4607D0A16860681D
:100920003143FFF7DDFF2468A542F7D170BD00BF5A
:1009300010B4024659B1084B0D20DB695A62546865
:1009400083E814005360236010BCFFF7A1BE4FF092
:10095000FF3010BC704700BF60090020AFF300807B
:1009600010B48A1800244060006084604161816195
:10097000C1600261C36110BC704700BFAFF300806B
:10098000426908B5034680698242986818D00130F0
:10099000986002F8011B19695A618A4228BFDA6817
:1009A000186828BF5A61984208D002681A605360DC
:1009B000FFF746FE00234362184608BD002008BD2D
:1009C0000028E4D06FF0030008BD00BFAFF3008043
:1009D00070B5202304460E4683F31188C36903B122
:1009E0009847A568204631463DB9FFF7A1FF00288A
:1009F000F7DA2B4683F3118870BDA369013DA5602A
:100A000013F8010B2269A361934224BFE368A36139
:100A1000002383F3118870BDAFF30080AFF3008033
:100A20002DE9F0471E460446C769202383F3118849
:100A30004FF0000801F1010901EB020A0FB1204655
:100A4000B847A568204631464DB9FFF771FF002829
:100A5000F7D02B4683F311884046BDE8F087A369A1
:100A6000013DA56013F8012B09F8012C2269A3614F
:100A7000934224BFE368A361002383F31188D14527
:100A800008F10108E8D0202383F3118809F1010956
:100A9000D4E700BFAFF30080AFF30080AFF3008076
:100AA00010B48C1840600060826041618161C16057
:100AB0000461C36110BC7047AFF30080AFF30080E6
:100AC000F8B504460F461646202383F31188A5681F
:100AD000204631463DB9FFF72BFF0028F7DA2B46B9
:100AE00083F31188F8BD6369013DA56003F8017BBC
:100AF00022696361934224BFE3686361E3690BB1D8
:100B000020469847002383F311881846F8BD00BF9C
:100B10004169826910B591420346816816D001315E
:100B2000996012F8014B19699A618A4228BFDA6804
:100B3000186828BF9A61984206D002681A6053600C
:100B4000FFF77EFD00234362204610BD0029E6D05A
:100B50006FF0020010BD00BFAFF30080AFF3008064
:100B60002DE9F0479A46044688461646D0F81C9070
:100B7000202383F311880027A56820466B1EEDB162
:100B8000A36018F8013B656905F8013B23696561BD
:100B90009D4224BFE3686361B9F1000F00D0C847EC
:100BA000002383F311880137013E10D0202383F303
:100BB0001188A56820466B1E002DE1D120465146C4
:100BC000FFF7B6FE0028D7D02B4683F311883846AE
:100BD000BDE8F087AFF30080AFF30080AFF3008093
:100BE00044F20001084840F6841240F68013C2F235
:100BF0000001C2F2000220F00700C2F2000321F05F
:100C000007011060196070479F390020AFF3008022
:100C1000202383F31188094B09491A6809680730B2
:100C200020F00700891A88429ABF10181860002225
:100C3000002383F311881046704700BF8409002009
:100C400080090020AFF30080AFF30080AFF3008095
:100C500040F68813C2F2000340F611410022C0F6AC
:100C6000000103F1100019609A60DA60FFF730BEEE
:100C700008B500F01DFA00F02BF942F69060C0F6BE
:100C8000000000F0CDFC00F00BF800F089F800F057
:100C9000EFF8BDE8084000F0B3BD00BFAFF300803F
:100CA00000F0DEBAAFF30080AFF30080AFF3008056
:100CB0000123037000234360704700BFAFF300803F
:100CC00010B52023044683F31188416000F0D8FA60
:100CD00002232370002383F3118810BDAFF300803B
:100CE000042310B50370044600F002FB02232370B6
:100CF00010BD00BFAFF30080AFF30080AFF3008002
:100D0000806BD0F1010038BF00207047AFF3008046
:100D10008069D0F1010038BF00207047AFF3008038
:100D20000246202383F31188002180680B469160DE
:100D300083F31188704700BFAFF30080AFF30080EA
:100D40001030FFF76DBE00BFAFF30080AFF300803F
:100D500010304FF0FF33FFF763BE00BFAFF30080EA
:100D60003030FFF7FDBE00BFAFF30080AFF300806F
:100D700030304FF0FF33FFF7F3BE00BFAFF300801A
:100D80001030FFF725BE00BFAFF30080AFF3008047
:100D90003030FFF795BE00BFAFF30080AFF30080A7
:100DA00000F09EBBAFF30080AFF30080AFF3008094
:100DB0000B4642F6F05170B5C0F6000105460446F8
:100DC00045F8041B65600025A5600125164604F161
:100DD0005001402200F110002573FFF7C1FD04F11E
:100DE000300004F1900140223346BDE87040FFF727
:100DF00057BE00BFAFF30080AFF30080AFF30080B9
:100E000010B52023044683F3118800F091FB0223E0
:100E10002373002383F3118810BD00BFAFF300805C
:100E200038B5836904460D463BB104F110002946EC
:100E3000FFF7A6FD00280FDB38BD8268194642F097
:100E400004020430A260FFF763FD04F1100029469C
:100E5000FFF796FD0028EFDAA368201D43F080031A
:100E60000021A360BDE83840FFF752BDAFF300801A
:100E700000F0AEBBAFF30080AFF30080AFF30080B3
:100E8000002301220270436083600C30FFF720BD15
:100E90004FF48053CEF200035B688360704700BF5D
:100EA0004FF48053CEF20003084982685B680968FA
:100EB0009B1AC2685B1A9342836004D8026993420A
:100EC00038BF03617047C360704700BFA8090020A6
:100ED00010B540F6A81486B00022C2F200042260C9
:100EE00004924FF0FF3205924FF4805340F6916226
:100EF000C0F60002CEF200035B68019240F6A162E8
:100F0000C0F6000201A803930292FFF7C9FF039BFA
:100F1000236006B010BD00BFAFF30080AFF30080C8
:100F20004FF4C0430848C4F202031968026810B5C0
:100F30000F2401F00F015C600AB140689047BDE8E2
:100F40001040FFF7EDB900BFAC090020AFF30080FF
:100F50004FF4C0430848C4F202031968826810B510
:100F6000F024C1F303115C600AB1C0689047BDE88A
:100F70001040FFF7D5B900BFAC090020AFF30080E7
:100F80004FF4C0430848C4F202031968026910B55F
:100F90004FF47064C1F303215C600AB1406990476B
:100FA000BDE81040FFF7BCB9AC090020AFF30080EA
:100FB0004FF4C0430848C4F202031968826910B5AF
:100FC0004FF47044C1F303315C600AB1C0699047CB
:100FD000BDE81040FFF7A4B9AC090020AFF30080D2
:100FE0004FF4C0430848C4F202031968026A10B5FE
:100FF0004FF47024C1F303415C600AB1406A90472A
:10100000BDE81040FFF78CB9AC090020AFF30080B9
:101010004FF4C0430848C4F202031968826A10B54D
:101020004FF47004C1F303515C600AB1C06A904789
:10103000BDE81040FFF774B9AC090020AFF30080A1
:101040004FF4C0430848C4F202031968026B10B59C
:101050004FF07064C1F303615C600AB1406B90476C
:10106000BDE81040FFF75CB9AC090020AFF3008089
:101070000B4930B400230B4D0B4C0B601A4619463C
:10108000E8580C330160A1500832542BF8D14FF4CA
:10109000C043C4F202034FF0FF325A6030BC7047C5
:1010A000E4090020202E0008AC090020AFF30080E6
:1010B0004FF46053C4F202031A69002110B41A619C
:1010C000196198694EF21002986199615C69CEF2DB
:1010D000000244F001045C6147F6FF4459614EF69A
:1010E000F0505460916007211160CEF20000C26898
:1010F0004FF4805142F08072C260CEF20001086865
:101100004FF4E04240F001000860596AC4F2000266
:1011100041F080515962116841F4807111605A6B3D
:1011200012F4403F07D05A6B42F400025A635A6BE4
:1011300022F400025A6310BCFFF79ABFAFF300809D
:101140004FF46053C4F202034FF4E0414FF0805279
:101150005A62C4F200014A684FF4E043D006C4F278
:101160000003F8D44FF400621A601A46536813F073
:101170001003FBD14FF46052C4F202029360536833
:10118000114623F4604343F4204353604FF08073CF
:1011900053634FF4807313600A684FF460539205F1
:1011A000C4F20203F8D51A68194642F001021A6027
:1011B0000A684FF460539007C4F20203F8D59A68A6
:1011C000194642F408029A601A6842F080721A6066
:1011D0000A684FF460539201C4F20203F8D519680B
:1011E0004FF4705219609968C4F2020241F0A8519C
:1011F0009960596B596304211160072111609A6845
:10120000194642F003029A608A684FF4605302F074
:101210000C020C2AC4F20203F6D11A6A42F001024F
:101220001A62DA6A42F00102DA627047AFF30080B4
:1012300008B50A4B00211878DA680428118204D115
:10124000022018701180118291815B6803485B68ED
:101250009847BDE80840FFF763B800BFE8090020E1
:1012600040F6E813C2F200034FF48062C4F20002B9
:101270001846DA60FFF71CBDAFF30080AFF30080C3
:10128000037810B5012B04460ED06368A1681A6874
:10129000E368B1FBF2F10139002289B208201A801B
:1012A000988019859A8110BD0D4B9842EDD14FF46D
:1012B0006053C4F202035A6A1D2042F002025A62CD
:1012C0009A69702142F002029A6100229A61FFF746
:1012D00087F84FF49043C0F2E813A360D5E700BF4E
:1012E000E8090020AFF30080AFF30080AFF3008087
:1012F000C26801230139D1629382002313820D2336
:101300001380138ADB07FCD5704700BFAFF3008062
:101310004FF46053C4F201039A8992B242F0800202
:101320009A817047AFF30080AFF30080AFF3008085
:101330004FF49043C4F200039A8992B242F08002C3
:101340009A817047AFF30080AFF30080AFF3008065
:101350002DE9F041D0F8D0500646AF892C88A988F5
:10136000A4B22207BFB21FFA81F850D104F48073EF
:101370009BB2002B36D104F020039BB233BB07F0A5
:1013800080039BB223B104F080039BB2002B63D196
:1013900004F04004A4B2BCB1202383F31188B368E5
:1013A000301D43F01003B3600021FFF7B1FA0023B2
:1013B00083F311884FF6BF733B40AB812B8823F03A
:1013C00040031B041B0C2B80BDE8F081202383F31A
:1013D000118830465FFA88F1FFF722FD002383F37E
:1013E0001188CCE7202383F31188B368301D43F4C0
:1013F0000073B3600021FFF78BFA002383F3118899
:101400002B8823F480731B041B0C2B80B3E704F0A0
:10141000080292B2002A14BF80220022E30704F0DF
:1014200002039BB248BF42F020020BB142F04002DF
:1014300004F004039BB20BB142F48072202383F3C7
:101440001188B368301D1A43B2600021FFF760FABB
:10145000002383F3118889E7202383F3118806F1A1
:101460003000FFF755FB0028A4BF80B2A88003DB43
:10147000002383F311888BE7B368301D43F0080322
:10148000B3600021FFF744FA27F0C00343F04003A4
:10149000AB81EDE7AFF30080AFF30080AFF30080E6
:1014A00040F6F81008B5C2F20000FFF751FFBDE8A2
:1014B0000840FEF735BF00BFAFF30080AFF30080F8
:1014C00040F6CC2008B5C2F20000FFF741FFBDE8AE
:1014D0000840FEF725BF00BFAFF30080AFF30080E8
:1014E00038B540F6F815C2F2000541F2113228462F
:1014F0000021C0F6000240F6CC24FFF759FCC2F2EE
:1015000000044FF4605341F23132C4F2010320462B
:101510000021C0F60002C5F8D030FFF749FC4FF4B7
:101520009043C4F20003C4F8D03038BDAFF300805C
:1015300038B5037B234C0546002918BF0C46012B08
:1015400020D021684FF49042C0F2E812D5F8D03094
:10155000B2FBF1F292B21A81A288E088218942F4AA
:10156000045240F0400041F0010142F02C0292B2DE
:1015700080B289B2188299829A8100221A801A88D0
:101580009B8838BD104B98420FD0104B9842D8D151
:101590004FF46053C4F202035A6A272042F48022B7
:1015A0005A62C021FEF71CFFCBE74FF46053C4F230
:1015B00002031A6A252042F480421A62C021FEF713
:1015C0000FFFBEE7802E0008F8090020CC0A00209B
:1015D00010B540F6A434C2F2000440F6A033C2F2C3
:1015E00000034FF6FF7220461A80FFF749FC084BB4
:1015F0004FF4405203F10C01236241F20A03C4F29A
:101600000102A3620E33E2616162E36210BD00BFBA
:101610002C2E0008AFF30080AFF30080AFF3008002
:101620004FF46052C4F20202D36970B443F03F0336
:10163000D361916A002341F03F0191620269C4F2D3
:1016400002035A6102684FF480651A604268C4F26E
:1016500002055A6082684FF400649A60C268C4F25E
:101660000204DA6042694FF440611A628269C4F28E
:1016700002015A62C36A4FF480526B61C369C4F2BB
:1016800002022B60066A4FF4A0536E60466AC4F2F1
:101690000203AE60866AEE60066B2E62466B6E6277
:1016A000856C6561856B2560C56B6560056CA560A3
:1016B000456CE560C56C2562056D6562446E4C61E4
:1016C000446D0C60846D4C60C46D8C60046ECC60A5
:1016D000846E0C62C46E4C62D0F880105161016F50
:1016E0001160416F5160816F9160C16FD160D0F81E
:1016F00084101162D0F888105162D0F89C205A6191
:10170000D0F88C201A60D0F890205A60D0F894203D
:101710009A60D0F89820DA60D0F8A0201A62D0F849
:10172000A4205A6270BC7047AFF30080AFF3008012
:101730002DE9F00F002302F00307C2F38006C2F385
:10174000C105C2F34114C2F3C31B4FF00F0A4FF09F
:10175000010904E07600AD00A400BF00013303F0EE
:101760000702920011F0010F3AD00BFA02FC0AFABC
:1017700002F2072B95BFD0F82080D0F8248028EA09
:10178000020228EA020209FA03F895BF42EA0C02B3
:1017900042EA0C02026242624FF0030C5A000CFA59
:1017A00002F2D0F804C0D2432CEA080C4CEA060C32
:1017B000C0F804C0D0F808C002EA0C0C4CEA050CD2
:1017C000C0F808C0D0F80CC002EA0C0C4CEA040CBB
:1017D000C0F80CC0D0F800C002EA0C023A43026024
:1017E0004908B7D1BDE8F00F704700BFAFF30080E4
:1017F000FFF7A6BCAFF30080AFF30080AFF300802B
:10180000704700BFAFF30080AFF30080AFF30080FC
:1018100010B50C46224601464FF0FF330548FFF74E
:101820009FF940F6D433C2F200031A68A4181C6072
:1018300010BD00BF280A0020AFF30080AFF3008086
:101840002DE9F00F49F2D2444EF62F3888B04DF210
:10185000CE4C4AF633374FF0000ACFF6FF74CFF67E
:10186000FF780490059106920793CDF80CA0CFF66F
:10187000FF7CCFF6FF770194CDF80880DDF80CA04F
:10188000DDF810800699079A08EB0A0401EB0A0BB1
:10189000DDF8148003999244002308EB01091A46ED
:1018A000CDF800A014F8120044F68B4800F0F806BA
:1018B00008FB06F504EB42010CFB06F849784001F1
:1018C000C6EBC636DDF804A0C0B206F5000640EA55
:1018D000511006F500460AFB006605F5004549F281
:1018E000466A08F500080AFB005508F5004807FBA2
:1018F0000080C900DDF80880C9B241F62F5A08FB04
:1019000001660AFB0155C1EBC13141180914803948
:101910002BF8031036142D140099803E803D0132BF
:10192000CE5229F803500233082ABBD1039A103251
:10193000802A0392A2D108B0BDE8F00F704700BF23
:101940004FF4F0704FF4207100F09ABAAFF30080BA
:1019500000F0BEBBAFF30080AFF30080AFF30080B8
:10196000F0B400273C18A4B2002312F8146002EB74
:101970004405CE546E78CD1802330134102B6E70AE
:10198000A4B2F2D107F52077BFB21031B7F5A05F4E
:10199000E8D1F0BC704700BFAFF30080AFF3008028
:1019A00030B50546ADF5017D0024204660A92A46E4
:1019B000FFF7D6FF20AA40AB60A86946FFF740FFBB
:1019C0006846694600F024F80D48694600F0A0FB1F
:1019D00020A8014600F01CF80A4820A900F098FB56
:1019E00040A80146083400F013F8A4B2064840A904
:1019F00000F08EFBB4F5207FD7D10DF5017D30BD11
:101A0000000800201808002030080020AFF30080F4
:101A10002DE9F00F4FF28332B2B04CF23A134DF68B
:101A200071444CF2DF460DF148080DF1CA09CFF6BA
:101A3000FF72CFF6FF73CFF6FF74CFF6FF760991F2
:101A40000DF14A05CDF84480CDF828900792049313
:101A500006940896B0F80CC04788B0F800A0CCEB0C
:101A60000706079B049CDDF81880CDF80CA036B261
:101A700043F23752C18902FB06FB03FB06FA04FB63
:101A800006F908FB06F6DDF80C804289C1EB080474
:101A900024B243F6C66808FB04BB43F2375808FB80
:101AA00004AACDF830A042F28F3A0AFB0499838849
:101AB000CDF834906744DDF80C9002EB030C9B1AD0
:101AC0001BB20AFB03BB4944DDF810A0DDF83090DF
:101AD00040F67D480AFB039A08FB0466DDF8349063
:101AE000CDF830A040F67D4A0AFB039A0596DDF852
:101AF0001490CDF834A043F2375A0AFB039A1FFA28
:101B00008CFCBFB2CCEB0708089BCDF82CA00FFAD9
:101B100088F841F67E0AC68804890AFB08FA03FBA6
:101B200008F8A21989B292B2CDF81480674402EB8A
:101B300001080FFA88F83FB2DDF83090341B8A1A9A
:101B400008EB0701C7EB0807DDF8188024B240F660
:101B50007D46CDF80CA006FB04BB08FB049A0D9B48
:101B6000049EDDF82C8043F2375C0CFB043906FB45
:101B70000483039E42F6425C12B243F621340CFB0E
:101B800001F10CFB07F704FB026C059C41F67E0893
:101B900008FB02424FEAAB3BA5F800B09B13891348
:101BA000BF1392134FEAAA3A4FEAA9394FEAAC3C65
:101BB0000A9EA5F804A0A5F80890AB8125F8021CA0
:101BC000EF80A5F802C06A8110351030B5427FF46D
:101BD00041AF0998099A10303032099B099C099E3F
:101BE000DDF82480DDF824900B900E924FF2833ABA
:101BF0004CF23A1C4DF671404CF2DF4250337034D7
:101C0000403608F1200809F16009CFF6FF7ACFF6D7
:101C1000FF7CCFF6FF70CFF6FF72119F0025109367
:101C20000C940F96CDF83480CDF82890CDF81CA0F8
:101C3000CDF810C0069008923C8AB7F8606012ABED
:101C40005A5BC6EB0408DDF81CC00498069B0FFA2B
:101C500088F843F23759B7F8701009FB08FB0CFB02
:101C600008FA00FB08F9B7F850C003FB08F83B8CF2
:101C7000501A36190CEB030400B2039443F6C66401
:101C800004FB00BB43F2375404FB00AA42F28F343A
:101C900004FB009940F67D4404FB0088CDF81480D5
:101CA000DDF80C80B6B21FFA88F8CCEB03031BB248
:101CB000CDF80C80C8EB060C42F28F3808FB03BB52
:101CC000DDF810800FFA8CFC08FB03AACDF804A005
:101CD00040F67D4A0AFB0399DDF814A043F2375819
:101CE00008FB03A3DDF82080029341F67E033C8EBF
:101CF000B7F8400003FB0CF308FB0CFCDDF80CA06C
:101D00008918021989B292B2CDF814C0564402EB78
:101D1000010C11930FFA8CFC069B36B2201A019C21
:101D200000B28A1A0CEB0601C6EB0C0640F67D4C9D
:101D300003FB004A0CFB00BB029CDDF810C043F221
:101D400037580CFB004308FB0099119842F64258A3
:101D500012B243F6213C08FB01F108FB06F60CFB2E
:101D60000208DDF814C041F67E0404FB02C20B98A1
:101D70000E9C4FEA2A4A4FEA2B4B20F805B024F874
:101D800005A0DDF840A04FEA29492AF80590DDF8C2
:101D900030C01B142CF805300F9C099B3614091415
:101DA000595366530D9E4FEA284826F80580DDF802
:101DB0002880121428F8052002350237102D7FF4F0
:101DC0003BAF32B0BDE8F00F704700BFAFF300800B
:101DD000094B10B41A88094C511C89B2B1F5807FA7
:101DE000A05418BF198001D010BC704700222046B3
:101DF0001A8010BCFFF70CBDE00C0020D80B0020AF
:101E000010B50446000AFFF7E3FFE0B2BDE810405A
:101E1000FFF7DEBFAFF30080AFF30080AFF30080C9
:101E2000F8B5134E0123356803FA01F305FA01F5FD
:101E30007768013B1840CF190543072F356014D947
:101E40003C4602E0072C0ED93568083C25FA04F51B
:101E5000EDB22846FFF7BCFFFF2DF3D10020FFF7BE
:101E6000B7FF072CF0D807F007077760F8BD00BF71
:101E7000D80C0020AFF30080AFF30080AFF30080F8
:101E80002DE9F84380464FF6D8700F46FFF7B8FFAC
:101E90004FF6E070FFF7B4FF1020FFF7B1FF4A20C4
:101EA000FFF796FF4620FFF793FF4920FFF790FFCB
:101EB0004620FFF78DFF0020FFF78AFF0120FFF784
:101EC00087FF0120FFF784FF0020FFF781FF01203B
:101ED000FFF796FF0120FFF793FF0020FFF778FF41
:101EE0000020FFF775FF4FF6DB70FFF789FF8420B6
:101EF000FFF786FF0020FFF76BFF684CDFF8C89103
:101F000004F14006254615F8013F19F80300FFF7D4
:101F10005FFFB542F7D10120FFF75AFF604D14F87B
:101F2000013FE85CFFF754FFB442F8D14FF6C070B0
:101F3000FFF766FF1120FFF763FF0820FFF748FF58
:101F40001FFA88F0FFF75CFFB8B2FFF759FF0320D4
:101F5000FFF73EFF0120FFF73BFF1120FFF738FF9F
:101F60000020FFF735FF0220FFF732FF1120FFF7B7
:101F70002FFF0120FFF72CFF0320FFF729FF11207F
:101F8000FFF726FF0120FFF723FF4FF6C470FFF78E
:101F900037FF4FF4D170FFF733FF0020FFF718FF32
:101FA000404C04F1100514F8010FFFF711FFAC428B
:101FB000F9D13D4C04F10C0514F8010FFFF708FFAF
:101FC000AC42F9D11020FFF703FF384C04F11005A3
:101FD00014F8010FFFF7FCFEAC42F9D1344C04F1C8
:101FE000A20514F8010FFFF7F3FEAC42F9D101206E
:101FF000FFF7EEFE2F4C04F1100514F8010FFFF768
:10200000E7FEAC42F9D12C4C04F10C0514F8010F99
:10201000FFF7DEFEAC42F9D11120FFF7D9FE274CC5
:1020200004F1100514F8010FFFF7D2FEAC42F9D10C
:10203000234C04F1A20514F8010FFFF7C9FEAC42CE
:10204000F9D14FF6DA70FFF7DBFE0C20FFF7D8FE70
:102050000320FFF7BDFE0120FFF7BAFE0020FFF7C7
:10206000B7FE0220FFF7B4FE1120FFF7B1FE0320F8
:10207000FFF7AEFE1120FFF7ABFE0020FFF7A8FE32
:102080003F20FFF7A5FE0020FFF7A2FE0D4B002228
:102090009A829A85A3F84420BDE8F8837F2F000830
:1020A000903000081F3300080F330008CF340008B9
:1020B0005F330008DF3200082F330008CF320008FA
:1020C000DF2F000800080020402F0008AFF3008039
:1020D0000A4B10B5596821B1FF20C1F10801FFF783
:1020E0009FFE074C4FF6D970FFF78AFE05482188FE
:1020F000FFF78EFB0023238010BD00BFD80C00200B
:10210000E00C0020D80B0020AFF30080AFF300807C
:102110002DE9F0470269B1F900301278054602FB5B
:1021200003F2A2EBE373808A03F2FF129212101AF9
:1021300000B280EAE073A3EBE0738846AA8200EB6A
:10214000E076002B66D00024013433FA04F2FBD190
:102150006300E968AA68C85A115DFFF761FE30465E
:102160002146FFF75DFE2C4F002607F13F0917F8C7
:10217000012F296938F9123011F802A00AFB03FA7D
:10218000AAEBE37A0AF2FF1ACAF38F2ABAF1000F18
:1021900034D00F2E0DD934466A682B68103CB2F843
:1021A000680193F8B410FFF73BFE0F2CF4D806F04B
:1021B0000F060FFA8AFA8AEAEA73A3EBEA730AEBCC
:1021C000EA7AEBB10024013433FA04F2FBD12B6834
:1021D0006A6806EB460602EBC60203EB860632F897
:1021E0001400315DFFF71CFE50462146FFF718FE34
:1021F00000264F45BBD12EB9BDE8F0870136F8E780
:102200001C46E4E76A682B6810881978BDE8F04737
:10221000FFF706BE1C469CE7802F0008AFF3008046
:1022200038B5202383F311884FF48065C4F202058A
:102230004FF4007340F6E814C2F20004AB614FF4AF
:1022400080732046AB614FF42071FEF749FD4FF0DB
:1022500000732046AB614FF42071FEF741FD4FF053
:102260008073AB6120464FF42071FEF739FD0023E7
:1022700083F3118838BD00BFAFF30080AFF3008057
:10228000F8B50546202383F3118868484FF4207180
:10229000FEF726FDEA0914BF00234FF000734FF448
:1022A0008064C4F2020443EA42234FF080774FF483
:1022B0008076A7615D48A3614FF42071FEF710FDA1
:1022C000A6615A484FF42071FEF70AFD05F040035D
:1022D000002B14BF4FF400734FF00073A7615348F5
:1022E000A3614FF42071FEF7FBFCA6614F484FF449
:1022F0002071FEF7F5FC05F02003002B14BF4FF40E
:1023000000734FF00073A7614848A3614FF4207138
:10231000FEF7E6FCA66145484FF42071FEF7E0FCAD
:1023200005F01003002B14BF4FF400734FF000733F
:10233000A7613E48A3614FF42071FEF7D1FCA6616E
:102340003A484FF42071FEF7CBFC05F00803002B50
:1023500014BF4FF400734FF00073A7613348A361BB
:102360004FF42071FEF7BCFCA66130484FF4207199
:10237000FEF7B6FC05F00403002B14BF4FF4007306
:102380004FF00073A7612948A3614FF42071FEF755
:10239000A7FCA66125484FF42071FEF7A1FC05F0CB
:1023A0000203002B14BF4FF400734FF00073A761BA
:1023B0001E48A3614FF42071FEF792FCA6611B48F2
:1023C0004FF42071FEF78CFC15F0010514BF0023BB
:1023D0004FF0007343EA4525A7611448A5614FF407
:1023E0002071FEF77DFCA66110484FF42071FEF7C6
:1023F00077FCA7614FF420710C48FEF771FC204672
:1024000000224FF40071FFF793F9A66107484FF4DB
:102410002071FEF765FC002383F311884FF40071EF
:1024200020460122BDE8F840FFF782B9E809002004
:1024300038B5202383F311884FF48064C4F202047A
:102440004FF0007340F6E815A361C2F200054FF0AB
:1024500080732846A3614FF42071FEF741FC4FF4CE
:102460008073A36128464FF42071FEF739FC4FF4C6
:102470000073A361202383F3118838BDAFF300807C
:1024800038B50D460446FFF7CBFE4220FFF7F8FEB5
:102490002046FFF7F5FE2846FFF7F2FEBDE838407C
:1024A000FFF7C6BFAFF30080AFF30080AFF300804B
:1024B0002DE9F04F85B005464FF48064FFF7B0FE7C
:1024C0004220FFF7DDFEC4F2020428464FF4807676
:1024D0004FF40078FFF7D4FEFFF7AAFFA661C4F817
:1024E0001880FFF79DFE4320FFF7CAFE202383F3E9
:1024F000118840F6E815C2F2000500222046414648
:102500004FF08077FFF714F928464FF42071FEF75B
:10251000E7FB2846A7614FF42071FEF7E1FB284650
:10252000A6614FF42071FEF7DBFB22692846A76104
:102530004FF420710092FEF7D3FB2846A6614FF4BA
:102540002071FEF7CDFB23692846A7614FF4207167
:102550000193FEF7C5FB2846A6614FF42071FEF7F4
:10256000BFFBD4F810B02846A7614FF42071FEF7E6
:10257000B7FB2846A6614FF42071FEF7B1FBD4F8F3
:1025800010A02846A7614FF42071FEF7A9FB28464A
:10259000A6614FF42071FEF7A3FBD4F810902846F3
:1025A000A7614FF42071FEF79BFB2846A6614FF40C
:1025B0002071FEF795FB216928460291A7614FF42F
:1025C0002071FEF78DFB2846A6614FF42071FEF7BF
:1025D00087FB216928460391A7614FF42071FEF71C
:1025E0007FFB2846A6614FF42071FEF779FB216935
:1025F000009A019B520AC1F3402141EAC212D2B2B1
:10260000C3F3402342EA8313CBF3402B029A43EAFD
:102610004B1BCAF3402A4BEA0A1AC9F34029C2F3FA
:1026200040234AEAC90949EA8309039B0122C3F30B
:10263000402E20464146A76149EA4E09FFF778F847
:102640002846C4F818804FF42071FEF749FBA661B4
:1026500028464FF42071FEF743FB002383F31188D3
:10266000052220464146FFF763F8FFF7E1FE4846A2
:1026700005B0BDE8F08F00BFAFF30080AFF300807E
:1026800010B54FF48064C4F20204012220464FF4D6
:102690008071FFF74DF820464FF400710122BDE82C
:1026A0001040FFF745B800BFAFF30080AFF30080E4
:1026B00038B50025C4F202051A224FF4807128466D
:1026C000FFF736F8022101222846FFF731F80421EE
:1026D00001222846FFF72CF84FF400641021002255
:1026E0002846C4F20204FFF723F8082100222846F6
:1026F000FFF71EF8012100222046FFF719F80221FA
:1027000000222046FFF714F8042100222046FFF79C
:102710000FF8082100222046FFF70AF84021002286
:102720002046FFF705F8802120460022FFF700F839
:10273000002220464FF48071FEF7FAFF20464FF446
:1027400000710022FEF7F4FF20464FF48061012261
:10275000FEF7EEFF4FF4806320464FF40061012244
:102760006383FEF7E5FF4FF4006320464FF480419A
:1027700001222383FEF7DCFF4FF48043638320466E
:102780004FF480510122FEF7D3FF4FF4805323838F
:1027900038BD00BFAFF30080AFF30080AFF300801F
:1027A00070B50D4C82B004F11E0625782846FFF75F
:1027B0007FFE63780234834204D1B442F5D1002015
:1027C00002B070BD0090054905482A4600F088F91E
:1027D0004FF0FF30F4E700BF7037000830370008D3
:1027E000F8090020AFF30080AFF30080AFF3008062
:1027F00038B54FF48063C4F202034FF480729A61DB
:102800004FF40072122080219A61FFF739FE1120E7
:102810008021FFF735FE334C04F11E0520786178E6
:102820000234FFF72DFEAC42F8D1FFF7B9FF80214B
:1028300004464F20FFF724FE50208021FFF720FEA2
:1028400051200021FFF71CFE52202221FFF718FE25
:1028500053205E21FFF714FE54208021FFF710FE65
:1028600056204021FFF70CFE58209E21FFF708FE5E
:1028700059208821FFF704FE5A208821FFF700FE27
:102880005B204421FFF7FCFD5C206721FFF7F8FD8A
:102890005D204921FFF7F4FD5E200E21FFF7F0FDDA
:1028A00069200021FFF7ECFD6A204021FFF7E8FDD9
:1028B0006B200A21FFF7E4FD6C200A21FFF7E0FD01
:1028C0006D205521FFF7DCFD6E201121FFF7D8FDAB
:1028D0006F209F21FFF7D4FDB0208421FFF7D0FDAA
:1028E000E0B238BD70370008AFF30080AFF300806E
:1028F000002838B54FF0030014BF3C2400244FF0EB
:102900000C0114BF77253B25FFF7BAFD192021469E
:10291000FFF7B6FD1A202946FFF7B2FD0320FFF7A7
:10292000C7FD0C280BD11920FFF7C2FDA04206D12C
:102930001A20FFF7BDFDA84201D1002038BD4FF09D
:10294000FF3038BDAFF30080AFF30080AFF30080FD
:102950002DE9F04F4FF48065ADF5205D83B0C4F2F2
:10296000020546484649FEF7ABF9FFF7A1FE802174
:1029700001222846FEF7DCFE284640210122FEF710
:10298000D7FE80236B8340236B83FFF779FEFFF72D
:102990002FFF814600286CD14FF40064C4F202047A
:1029A0004FF48066668300270DF5205BFEF7C8FFB5
:1029B0000BF1070BCDF80490C4F202070198FFF762
:1029C00097FFC8B1019A02F1FF395FFA89F9CDF892
:1029D0000490019B03F101095FFA89F94A46012A33
:1029E000CDF80490EAD9FEF7B3FF4FF48063C4F248
:1029F000020380221A83FEE74FF480524FF40063F3
:102A00006383628322832383628322833B69D906A3
:102A1000FCD44FF4806323833B69DA06FCD53B6921
:102A2000DB06FCD440264FF4806262834FF01E091F
:102A3000B0464FF4805AA5F818800DF10703A4F8AA
:102A40001AA0A4F818A02169226901F00F0102F46C
:102A5000707241EA920203F8012F5B45EFD102A8A0
:102A600009F1FF39FEF79CFF19F0FF096E83E2D1EF
:102A7000AFE70448044900F033F8B6E7E80900205E
:102A800020370008F809002054370008AFF3008011
:102A900070B400F10B0600F10A04B1FBF2F502FB81
:102AA000151101F13003392BC8BF01F13703DBB237
:102AB0002946254604F801390029EED1711B2A4622
:102AC000411801E012F8013F00F8013B8842F9D1BA
:102AD00070BC7047AFF30080AFF30080AFF30080AD
:102AE0000EB42DE9F04F86B00FAB53F8044B0DF147
:102AF0000D0C0DF10C090293C9EB0C03CDF800C0CD
:102B000005460193264616F8011B69B1252910D008
:102B10002B68344628461B694FF0FF3226469847FB
:102B200016F8011B0029F1D106B0BDE8F04F03B043
:102B3000704763782D2B18BF4FF0000800F0188104
:102B400020272E2B00F0108134460299002606E043
:102B50000A78043106EB8606237802EB4606A3F1D9
:102B60003002D2B20134092AF4D92A2BF0D0002045
:102B70002E2B029149D003F0DF024C2A55D1227846
:102B8000012112B1013413460121A3F14402342A78
:102B900000F2E280DFE812F0D000E000E000E000A8
:102BA000E000E000E000E000E000E000E000E6001F
:102BB000E000E000E000E000E000C800E000E0002D
:102BC000BB00E000E000E000E000E000E000E0002A
:102BD000E000E000E0009900D000E000E000E0004C
:102BE000E000E000E000E000E000E000E000E600DF
:102BF000E000E000E0005000E000C800E000E0007D
:102C0000BB000A78043102EB4C0014F8013B00EBE6
:102C1000800CA3F13002D2B2092AF4D92A2BF0D0C9
:102C200003F0DF024C2A0291A9D0A3F14101192936
:102C30008CBF00210121A8E7029B43F29072D3F8D8
:102C400000A0C0F60002BAF1000F08BF924604339C
:102C50009AF80020029347F6FF73002808BF184631
:102C6000002A00F0A8805346504402E0904200F051
:102C70009E8059785A1C13460029F7D1CAEB020BE3
:102C8000CBEB0606202726EAE676B8F1000F2DD01A
:102C9000BBF1000FC8BF0AEB0B0809DD2B681AF85F
:102CA000011B1B6928464FF0FF329847C245F5D1FA
:102CB000002E3FF427AF2B6828461B6939464FF09A
:102CC000FF329847013EF6D11CE7029BDDF804B0C5
:102CD0001A68043302938DF80C202027CA46CBEBE8
:102CE000060626EAE676B8F1000FD1D17642002E2C
:102CF000CED09AF800102D294CD02B6828461B699D
:102D000039464FF0FF3298470136F6D1C0E710221E
:102D1000029B69B1191D029119684846FFF7B8FE78
:102D2000CA46C9EB000BDAE70A22029B0029F1D15F
:102D3000181D19680290F0E7029B1A1DE9B919687D
:102D400002920029A8BF48461DDB0A22FFF7A0FE19
:102D5000CA46C9EB000BC2E78DF80C30DDF804B0B1
:102D6000CA46BCE70822D3E7737830270136EBE682
:102D7000A61CA3784FF00108E2E619680292002928
:102D8000A8BF4846E1DA2D238DF80C3049420DF1F9
:102D90000D00DAE7302FB0D12B6828461B694FF0C1
:102DA000FF3298470AF1010A0BF1FF3BA5E7CAEB96
:102DB000000B202793E79346202790E7AFF300808E
:102DC00069646C6500000000000000000000000065
:102DD0006D61696E00160311040448080C10141884
:102DE000001C1D1E0020000000000000000000006C
:102DF000710D0008510D0008010D0008110D0008AB
:102E0000910D0008810D0008610D0008410D0008BA
:102E1000210D00080000000000000000000000007C
:102E2000086002400460024000000B001C60024089
:102E30000460024004010C00306002400460024063
:102E400008020D0044600240046002400C030E00C2
:102E5000586002400460024010040F006C600240A1
:102E600004600240140510008060024004600240CB
:102E70001806110000000000000000000000000023
:102E8000004B0000000000400000000000000000B7
:102E900000AAA02A00000000FFFFFFFF5400016409
:102EA000FFFFFFFF0000565500AA0A00802008001F
:102EB00040020000FFFFFFFF15455155FFFFFFFFD8
:102EC000000000044000000001802002000000001B
:102ED000FFFFFFFF54154554FFFFFFFF0000006098
:102EE000000606000001005500000000FFFFFFFF84
:102EF00055505500CF0F00000000000000000000FA
:102F00004000000000000000FFFFFFFF1055555576
:102F1000FFFFFFFF000000000000000000000000B5
:102F200000000000FFFFFFFF55555555FFFFFFFF55
:102F30000000000000000000000000000000000091
:102F4000080605080C141A1F0606070A0D1D1E1C8C
:102F50000707080C141D231C07090B0F1A2C281F28
:102F6000090B131C223734270C121C202934392E4C
:102F70001920272C343D3C33242E30313832343262
:102F8000000108100902030A11182019120B040588
:102F90000C131A21283029221B140D06070E151CAC
:102FA000232A313839322B241D160F171E252C33B6
:102FB0003A3B342D261F272E353C3D362F373E3FDA
:102FC0000000020003000400050006000E001E00C1
:102FD0003E007E00FE00FE01000000000000000038
:102FE00000010203110405213106124151076171EC
:102FF0001322328108144291A1B1C109233352F046
:10300000156272D10A162434E125F11718191A260F
:103010002728292A35363738393A43444546474820
:10302000494A535455565758595A636465666768F8
:10303000696A737475767778797A828384858687EE
:1030400088898A92939495969798999AA2A3A4A511
:10305000A6A7A8A9AAB2B3B4B5B6B7B8B9BAC2C33D
:10306000C4C5C6C7C8C9CAD2D3D4D5D6D7D8D9DA69
:10307000E2E3E4E5E6E7E8E9EAF2F3F4F5F6F7F887
:10308000F9FA00000000000000000000000000004D
:1030900009090C1832323232090B0D213232323228
:1030A0000C0D1C323232323218213232323232328C
:1030B00032323232323232323232323232323232F0
:1030C00032323232323232323232323232323232E0
:1030D00080ABCD8055332721ABAB92664F232225A1
:1030E0009292805533231D2592725D4427171A2131
:1030F000725D36251E13141A55392520191412161F
:1031000029201A17141111141C1615151214141451
:10311000FAFFF0FFF1FFF4FFFBFFFAFFF8FFF8FF03
:10312000F6FF82FF83FF00000000FCFFFBFFF9FFBA
:10313000F6FFF6FF84FF85FF86FF87FF88FF00000C
:103140000000FCFFF9FFF7FFF4FF89FF8AFF8BFF08
:103150008CFF8DFF8EFF00000000FAFFF7FFF5FFE8
:103160008FFF90FF91FF92FF93FF94FF95FF000068
:103170000000FBFFF8FF96FF97FF98FF99FF9AFF6B
:103180009BFF9CFF9DFF00000000FAFFF7FF9EFFE2
:103190009FFFA0FFA1FFA2FFA3FFA4FFA5FF0000C8
:1031A0000000FBFFF6FFA6FFA7FFA8FFA9FFAAFFED
:1031B000ABFFACFFADFF00000000FAFFF7FFAEFF72
:1031C000AFFFB0FFB1FFB2FFB3FFB4FFB5FF000028
:1031D0000000F8FFC0FFB6FFB7FFB8FFB9FFBAFFA6
:1031E000BBFFBCFFBDFF00000000F9FFBEFFBFFF3B
:1031F000C0FFC1FFC2FFC3FFC4FFC5FFC6FF000081
:103200000000FAFFC7FFC8FFC9FFCAFFCBFFCCFF12
:10321000CDFFCEFFCFFF00000000F9FFD0FFD1FFB0
:10322000D2FFD3FFD4FFD5FFD6FFD7FFD8FF0000D2
:103230000000FAFFD9FFDAFFDBFFDCFFDDFFDEFF76
:10324000DFFFE0FFE1FF00000000F8FFE2FFE3FF27
:10325000E4FFE5FFE6FFE7FFE8FFE9FFEAFF000024
:103260000000EBFFECFFEDFFEEFFEFFFF0FFF1FFE3
:10327000F2FFF3FFF4FF0000F9FFF5FFF6FFF7FFA1
:10328000F8FFF9FFFAFFFBFFFCFFFDFFFEFF000068
:103290007272552B14141414725D4F1F14141414ED
:1032A000554F2514141414142B1F1414141414142F
:1032B00014141414141414141414141414141414CE
:1032C00014141414141414141414141414141414BE
:1032D000000201020404030407050404000102774C
:1032E00000030101010101010101010000000000D2
:1032F00000000100020006000E001E003E007E00DD
:10330000FE00FE01FE03FE070000000000000000BA
:10331000000102030405060708090A0B000000006B
:103320000001050101010101010000000000000091
:10333000000102030405060708090A0B000000004B
:103340000203030303030405060708090000000045
:10335000020202030405060708090A0B0000000028
:1033600001020300041105122131410613516107C6
:10337000227114328191A1082342B1C11552D1F0BA
:103380002433627282090A161718191A252627286B
:10339000292A3435363738393A434445464748496F
:1033A0004A535455565758595A6364656667686955
:1033B0006A737475767778797A8384858687888945
:1033C0008A92939495969798999AA2A3A4A5A6A752
:1033D000A8A9AAB2B3B4B5B6B7B8B9BAC2C3C4C57E
:1033E000C6C7C8C9CAD2D3D4D5D6D7D8D9DAE1E2AC
:1033F000E3E4E5E6E7E8E9EAF1F2F3F4F5F6F7F8F5
:10340000F9FA0000000000000000000000000000C9
:1034100004020203040507080A101000000405074F
:10342000090B1010101010000005080A0C101010E5
:10343000101010000006090C1010101010101000D1
:1034400000060A10101010101010100000070B10CA
:10345000101010101010100000070C101010101099
:103460001010100000080C10101010101010100098
:1034700000090F101010101010101000000910108B
:103480001010101010101000000910101010101063
:1034900010101000000A1010101010101010100062
:1034A000000A10101010101010101000000B101057
:1034B000101010101010100000101010101010102C
:1034C000101010000B101010101010101010100021
:1034D0000002010303020403050504040000017D4A
:1034E0000202030405050607090A0C000004060889
:1034F000090B0C10101010000005080A0C0F10101A
:10350000101010000005080A0C1010101010100008
:1035100000060910101010101010100000060A10FC
:10352000101010101010100000070B1010101010C9
:103530001010100000070B101010101010101000C9
:1035400000081010101010101010100000091010BA
:103550001010101010101000000910101010101092
:103560001010100000091010101010101010100092
:10357000000910101010101010101000000B101087
:103580001010101010101000000E1010101010105D
:10359000101010000A0F1010101010101010100052
:1035A0000000010004000A0018001900380078002B
:1035B000F401F603F40F000000000B003900F600E0
:1035C000F501F607F50F88FF89FF8AFF8BFF0000E2
:1035D00000001A00F700F703F60FC27F8CFF8DFF83
:1035E0008EFF8FFF90FF000000001B00F800F80323
:1035F000F70F91FF92FF93FF94FF95FF96FF000056
:1036000000003A00F60197FF98FF99FF9AFF9BFF91
:103610009CFF9DFF9EFF000000003B00F9039FFF01
:10362000A0FFA1FFA2FFA3FFA4FFA5FFA6FF00002C
:1036300000007900F707A7FFA8FFA9FFAAFFABFFCB
:10364000ACFFAFFFAEFF000000007A00F807AFFF4D
:10365000B0FFB1FFB2FFB3FFB4FFB5FFB6FF00008C
:103660000000F900B7FFB8FFB9FFBAFFBBFFBCFF0E
:10367000BDFFBEFFBFFF00000000F701C0FFC1FF9C
:10368000C2FFC3FFC4FFC5FFC6FFC7FFC8FF0000DE
:103690000000F801C9FFCAFFCBFFCCFFCDFFCEFF72
:1036A000CFFFD0FFD1FF00000000F901D2FFD3FF10
:1036B000D4FFD5FFD6FFD7FFD8FFD9FFDAFF000030
:1036C0000000FA01DBFFDCFFDDFFDEFFDFFFE0FFD4
:1036D000E1FFE2FFE3FF00000000F907E4FFE5FF80
:1036E000E6FFE7FFE8FFE9FFEAFFEBFFECFF000082
:1036F0000000E03FEDFFEEFFEFFFF0FFF1FFF2FF14
:10370000F3FFF4FFF5FF0000FA03C37FF6FFF7FFB6
:10371000F8FFF9FFFAFFFBFFFCFFFDFFFEFF0000D3
:103720000048E80100000000000000000000000068
:10373000414444523A2025782041535349474E454D
:10374000443A2025782041435455414C3A2025786D
:103750000D0A00005345545550204641494C4544FC
:103760000D0A000000000000000000000000000042
:1037700011800C00120415028C003B0A40D072002C
:1037800073F0A20070207120184F170032B80000AB
:08379000286E756C6C29000025
:10379800103400081031000840330008C02F00081A
:1037A800D030000800000000E0340008A035000810
:1037B80050330008F0320008903200080000000082
:1037C800E0340008A035000850330008F032000843
:0837D80090320008000000001F
:0400000508000100EE
:00000001FF
