:020000040800F2
:100000000004002031020008010400080104000877
:1000100001040008010400080104000801040008AC
:10002000010400080104000801040008310400086C
:10003000010400080104000801040008110500087B
:10004000010400080104000801040008010400087C
:10005000010400080104000801040008010400086C
:1000600001040008010400080104000891120008BE
:10007000C1120008F11200082113000851130008F2
:1000800081130008B11300080104000801040008EE
:10009000010400080104000801040008010400082C
:1000A000010400080104000801040008010400081C
:1000B000010400080104000801040008010400080C
:1000C00001040008010400080104000801040008FC
:1000D0000104000801040008010400086119000877
:1000E00001040008010400080104000801040008DC
:1000F000010400080104000801040008E1130008DD
:1001000001040008010400080104000801040008BB
:1001100001040008010400080104000801040008AB
:10012000111400084114000871140008A1140008FB
:10013000D1140008010400080104000801040008AB
:10014000010400080104000801040008010400087B
:1001500001150008311500086115000801040008A8
:10016000010400080104000801040008010400085B
:10017000010400080104000801040008010400084B
:0801800001040008010400085D
:1001900000B583B000F024FF00F032FA17480021C8
:1001A00000F0B6FF4FF48060C4F202004FF48061AB
:1001B00040F2823201F004FF4FF48060C4F202008A
:1001C0004FF4006140F2823201F0FAFE00244FF455
:1001D000987140220A4B0B48009400F0D9FB4FF471
:1001E00098714022084B0948009400F0D1FB02F0BE
:1001F00087FA4FF4FA7000F0E3FBFAE7E409002015
:10020000512F0008180B002011210008480C002075
:10021000704700BFAFF30080AFF30080AFF3008002
:10022000FEE700BFAFF30080AFF30080AFF30080C4
:1002300072B6634880F30988022383F31488BFF3FE
:100240006F8F604A604CA24217D213464FF055316F
:1002500043F8041BD643A519A342C5F380050CD26D
:1002600025B1196002F10803A34206D21A4642F8EA
:10027000041B5960131DA342F8D3544A824217D27B
:1002800013464FF0553143F8041BD54344198342BC
:10029000C4F380040CD224B1196002F10803834234
:1002A00006D21E4646F8041B5960331D8342F8D31C
:1002B00001F0E6FE464C4749A14222D2464802469A
:1002C0000B4652F8046B43F8046BCD4304EB050C6A
:1002D000A342CCF3800514D23DB116681E6001F133
:1002E0000803A34200F108020BD21146184651F848
:1002F000045B526840F8045B5A60031D0A1DA34268
:10030000F3D3364A3648824217D21346002143F8C7
:10031000041BD44300EB040E8342CEF380040CD2C2
:1003200024B1196002F10803834206D21E4646F842
:10033000041B5960331D8342F8D32A4D2A4EFFF720
:1003400067FFB54219D22C46E94354F8043B7718AD
:100350009847B442C7F380070FD22FB1236805F145
:1003600008049847B44208D2254655F8042B904714
:1003700060682C1D8047B442F6D31C4D1C4EFFF71D
:1003800007FFB5421AD22C46EF4354F8043B06EB64
:10039000070CCCF380079847B4420FD22FB12268E4
:1003A00005F108049047B44208D2254655F8040BDD
:1003B000804761682C1D8847B442F6D3FFF730FFB1
:1003C000000800200000002000040020000400209D
:1003D0000008002000080020C833000800080020A2
:1003E000780D0020880100088801000888010008B5
:1003F00088010008AFF30080AFF30080AFF3008006
:10040000FEE700BFAFF30080AFF30080AFF30080E2
:1004100072B6FEE7AFF30080AFF30080AFF3008069
:1004200000F046FA00DF00BFAFF30080AFF30080BA
:10043000EFF30983203383F30988002383F31188C2
:10044000704700BFAFF30080AFF30080AFF30080D0
:1004500008B54FF46D43CEF200030022C0F2FA5209
:10046000002199600720DA60102100F099F80A2035
:100470004FF4007100F094F80B208021BDE8084093
:1004800000F08EB8AFF30080AFF30080AFF30080D0
:10049000202383F311884FF46D40CEF200004368AF
:1004A00013F4006319D0EFF30983A3F1200282F360
:1004B0000988124A91694FF0807043F8040C79B1B1
:1004C0001168D06989688268914294BF0022012234
:1004D00082B10B4843F8080C704783F311887047CA
:1004E0001168D26988689268904234BF0022012264
:1004F000002AEED1034A43F8082C7047180900205F
:100500002104000824040008AFF30080AFF300804A
:1005100008B5202383F3118800F0AAF8002383F3A1
:100520001188BDE80840FFF7B3BF00BFAFF30080FC
:100530002DE9F04FC1F80CD0D0F80CD0BDE8F08F09
:10054000002383F311882846A04700F069FA70471A
:10055000F0B44FF461438408CEF20003C03400F0DD
:10056000030253F82460D500FF27420907FA05F774
:1005700026EA070601FA05F500F01F0C02F16007F4
:10058000012101FA0CF0354343F8245043F82700C9
:1005900043F82200F0BC7047AFF30080AFF3008057
:1005A00030B482084FF46D43CEF20003063200F0FF
:1005B0000300C00053F82240FF2505FA00F524EAA5
:1005C000050401FA00F144EA010043F8220030BCBE
:1005D000704700BFAFF30080AFF30080AFF300803F
:1005E0000248034AC3699A61FEE700BF1809002068
:1005F000902F0008AFF30080AFF30080AFF30080CE
:1006000010B582B0FFF724FF00F0CAF800F058F8E8
:1006100000F09EFC00F0D4FC40F600004021C2F245
:10062000000000F065F940F61814C2F2000401223F
:10063000E0610277002383F3118862B6E16942F634
:10064000A074C0F600048C6140F64800002140F21E
:10065000E1530091C0F60003C021C2F2000000F097
:1006600097F902B010BD00BFAFF30080AFF3008078
:1006700038B5104B9A69002A01DD013A9A61DB69AD
:100680000D4C186A2268411C1962E068431CA242A2
:10069000E3600ED09568013D956055B91168D36847
:1006A00010694C60D56021609847226891680029E4
:1006B000F4D038BD1809002008090020AFF30080ED
:1006C00040F60813C2F200034FF0FF3000225B60D7
:1006D0001B609860DA607047AFF30080AFF3008072
:1006E00070B40C4D03612C68C260A668B14204D995
:1006F0002468891BA6688E42FAD363680460AC4202
:10070000436018606060816002D0A068411AA160F7
:1007100070BC704708090020AFF30080AFF3008081
:100720000368074A934203D09968826889189960E0
:1007300042681360016800234A60C360704700BFCD
:1007400008090020AFF30080AFF30080AFF3008012
:10075000037F0D2B11D8DFE803F020101007100BDA
:10076000101010101010100B416A8B685A1C8A6010
:1007700090E80C001A60026853604FF0FF3242624A
:100780008168064B002202771B689A688A42FBD276
:10079000596803604160086058607047180900207C
:1007A00040F61813C2F20003002014225B601B60A5
:1007B00098609A615B611B61704700BFAFF3008076
:1007C00000228168054B02771B689A688A42FBD237
:1007D000596803604160086058607047180900203C
:1007E00040F61813C2F2000310B41A68D9691468ED
:1007F0000877142098611C6063601046DA61012359
:10080000137710BCFFF794BEAFF30080AFF3008006
:1008100030B54B1C87B0054611D00B4C0B4AE36931
:1008200001A8FFF75DFF2846FFF7DAFF049B13B12D
:1008300001A8FFF775FFE069406A07B030BDFFF718
:10084000CFFF014CF7E700BF18090020510700084F
:10085000144A4162D36930B485689C68A5420CD8BB
:1008600000230377126891688D42FBD9536880E8B2
:100870000C001860506030BC704700251D77114691
:1008800009688D68AC42FBD94C6883E812004B6064
:1008900014212360D061916101221946027730BC96
:1008A000FFF746BE18090020AFF30080AFF30080C9
:1008B0000E4A1068D16930B405688C68156014233D
:1008C00093616A60D06101220277002203460A77B1
:1008D00000E01B689A68A242FBD25A680B604A602B
:1008E0001160596030BCFFF723BE00BF180900201B
:1008F00040F61813C2F20003F0B45C6903610022F1
:1009000000F12C0500F1280681604461022758613E
:100910000123077742770164C263826302628377AF
:100920008261206186620563C562F0BC704700BFCA
:100930002DE9F00140F61814C2F2000424394618DB
:100940006769C6604350059940F24153C0F6000301
:10095000716033620025944600F1280800F12C02F2
:10096000022101230461C0F808C04761017760617A
:100970004577C0F840C0C5638563056283778561AC
:100980003861C0F828800263C262BDE8F001704798
:1009900010B59C4682B0202383F31188049C6346E3
:1009A0000094FFF7C5FF00210446FFF751FF002325
:1009B00083F31188204602B010BD00BFAFF3008062
:1009C00008B50146202383F311880620FFF720FF96
:1009D000002383F3118808BDAFF30080AFF30080DC
:1009E0000E4938B5CC692546034655F8280F636291
:1009F000A84206D00268A262FFF7E2FEA06AA842FF
:100A0000F8D1607F830704D1636922691A61216983
:100A10004B610E20BDE83840FFF7E2BE1809002008
:100A2000202383F31188FFF7DBBF00BFAFF3008003
:100A30000023406000608360704700BFAFF3008018
:100A4000F8B505462E4B8068DC69002850D0A268B6
:100A500081688A4206D9037F8260042B30D0052B3F
:100A60001BD093B12B461B689D4203D09868A268A7
:100A70009042F8D259682360042061600C605C6089
:100A80006562BDE8F840FFF7ABBE90E80C001A6065
:100A900001684B60FFF794FEE4E741680768466A27
:100AA0000F600768334679601B689E4202D09968E0
:100AB0009142F9D25A680360426010605860D1E7F1
:100AC00041680768466A0F600768334679601B68AB
:100AD0009E4212D099689142F9D25A6803604260EE
:100AE00010605860B068A26883689342B3D3B9E7D6
:100AF000E36BAC60EB60E563F8BD3346EDE700BF48
:100B000018090020AFF30080AFF30080AFF300803E
:100B100008B5202383F31188FFF792FF002383F3A6
:100B2000118808BDAFF30080AFF30080AFF3008001
:100B3000174A38B5D269202383F31188D46B206813
:100B4000E368A042D3631BD0156C4BB1196899427E
:100B500003D089688D4238BF0D46DB68002BF5D184
:100B60000368C16B956023605C60E160A060002158
:100B7000C463FFF76DFE002383F31188204638BD60
:100B80000020A060002383F31188204638BD00BFF9
:100B900018090020AFF30080AFF30080AFF30080AE
:100BA00030B4202383F3118840F61813C2F20003F7
:100BB0000568DC690D60002301604C608A6083F386
:100BC000118830BC704700BFAFF30080AFF30080E6
:100BD00010B4202383F3118840F61814C2F20004E5
:100BE0000023E1698A6B22EA00048C6383F3118895
:100BF000104010BC704700BFAFF30080AFF300801F
:100C000008B5826B037F1143082B81630BD0092B3E
:100C100000D008BD426A11408A42FAD1FFF7D0FDE8
:100C20000023436208BD436A1942F7D108BD00BFE3
:100C300070B50468A04205460E4607D0A1686068FA
:100C40003143FFF7DDFF2468A542F7D170BD00BF37
:100C500038B50D4B0546DC69202383F31188A36B5F
:100C600010EA030206D160620820FFF7B9FDA36B0A
:100C700005EA03025042104023EA0001A163002369
:100C800083F3118838BD00BF18090020AFF300803E
:100C900051B1074AD3695862426883E8050043604E
:100CA0000D201360FFF7B4BD4FF0FF30704700BF59
:100CB00018090020AFF30080AFF30080AFF300808D
:100CC00010B48A1800244060006084604161816132
:100CD000C1600261C36110BC704700BFAFF3008008
:100CE000426908B5034680698242986818D001308D
:100CF000986002F8011B19695A618A4228BFDA68B4
:100D0000186828BF5A61984208D002681A60536078
:100D1000FFF756FD00234362184608BD002008BDBA
:100D20000028E4D06FF0030008BD00BFAFF30080DF
:100D300070B5202304460D4683F31188C36903B1BF
:100D40009847A668204629463EB9FFF7A1FF00282C
:100D5000F7DA334683F3118870BDA3692269013E37
:100D6000A66013F8010B9342A36124BFE368A3615B
:100D7000002383F3118870BDAFF30080AFF30080D0
:100D80002DE9F0471D4604460E469146D0F81C80DA
:100D9000202383F311880027B8F1000F01D02046EB
:100DA000C047D4F808A020462946BAF1000F09D15F
:100DB000FFF76EFF0028F4D0534683F311883846BE
:100DC000BDE8F087A3690AF1FF31A16013F8010BB8
:100DD000F0552269A361934224BFE368A361002315
:100DE00083F311880137B945E9D0202383F31188B3
:100DF000D2E700BFAFF30080AFF30080AFF3008015
:100E000010B48C1840600060826041618161C160F3
:100E10000461C36110BC7047AFF30080AFF3008082
:100E2000F8B504460D461646202383F31188A768BB
:100E3000204631463FB9FFF72BFF0028F7DA3B4643
:100E400083F31188F8BD6369013FA76003F8015B74
:100E500022696361934224BFE3686361E3690BB174
:100E600020469847002383F311881846F8BD00BF39
:100E700041698269914210B50346816816D04C1CC5
:100E80009C6012F8014B18699A61824228BFDA68A7
:100E9000186828BF9A61984206D002681A605360A9
:100EA000FFF78EFC00234362204610BD0029E6D0E8
:100EB0006FF0020010BD00BFAFF30080AFF3008001
:100EC0002DE9F0471E4604460D461746D0F81C9003
:100ED000202383F311884FF00008D4F808A00AF10A
:100EE000FF33BAF1000F21D0A3602878636903F8BB
:100EF000010B22696361934224BFE3686361B9F126
:100F0000000F01D02046C847002383F31188013F1A
:100F100008F1010813D00135202383F31188D4F898
:100F200008A00AF1FF33BAF1000FDDD120463146A7
:100F3000FFF7AEFE0028D0D0534683F31188404619
:100F4000BDE8F087AFF30080AFF30080AFF300801F
:100F5000094940F63C1240F638134CF2000CC2F23C
:100F60000002C2F20003C2F2010C21F007002CF0D3
:100F700007011060196070477F0D0020AFF30080FB
:100F8000202383F31188094B09491A68096807303F
:100F900020F00700891A88429ABF101818600022B2
:100FA000002383F311881046704700BF3C090020DE
:100FB00038090020AFF30080AFF30080AFF300806A
:100FC00040F64013C2F2000340F681710022C0F6E1
:100FD000000103F1100019609A60DA60FFF728BD84
:100FE00008B500F0CDFB43F2C000C0F6000000F0F1
:100FF000EFFE00F05DF800F0C3F8BDE8084001F036
:1010000047B800BFAFF30080AFF30080AFF30080BC
:10101000806BD0F1010038BF00207047AFF3008033
:101020008069D0F1010038BF00207047AFF3008025
:101030000246202383F3118800238068936083F3A2
:1010400011887047AFF30080AFF30080AFF30080EA
:101050001030FFF795BE00BFAFF30080AFF3008004
:1010600010304FF0FF33FFF78BBE00BFAFF30080AF
:101070003030FFF725BF00BFAFF30080AFF3008033
:1010800030304FF0FF33FFF71BBF00BFAFF30080DE
:101090001030FFF74DBE00BFAFF30080AFF300800C
:1010A0003030FFF7BDBE00BFAFF30080AFF300806C
:1010B00000F0F6BCAFF30080AFF30080AFF3008028
:1010C00070B542F6C0730646C0F60003044646F803
:1010D000043B66600026A66001260B46154604F117
:1010E0005001102200F110002673FFF7E9FD04F112
:1010F000600104F1300010222B46BDE87040FFF77C
:101100007FBE00BFAFF30080AFF30080AFF300807D
:1011100010B52023044683F3118800F0D9FC022384
:101120002373002383F3118810BD00BFAFF3008049
:1011300038B50D468169044639B104F110002946DD
:10114000FFF7CEFD00280EDB38BD826842F00403B5
:101150000430A360FFF76CFD04F110002946FFF78F
:10116000BFFD0028F0DAA36843F08001A160201DD4
:101170000021BDE83840FFF75BBD00BFAFF3008042
:1011800000F04EBDAFF30080AFF30080AFF30080FE
:1011900003460022012100F10C0019705A609A6088
:1011A000FFF746BCAFF30080AFF30080AFF30080E1
:1011B00010B52023044683F31188416000F058FDE8
:1011C00002232370002383F3118810BDAFF3008046
:1011D00008B5202383F3118800F09AFD002383F3E0
:1011E000118808BDAFF30080AFF30080AFF300803B
:1011F00008B5202383F3118800F09AFD002383F3C0
:10120000118808BDAFF30080AFF30080AFF300801A
:1012100010B52023044683F311880323237000F0C4
:1012200097FD40F61811C2F200010220CB69A360BD
:10123000FFF7D6FA002383F3118810BDAFF30080C7
:1012400010B52023044683F311880323237000F094
:101250009FFD40F61811C2F200010220CB69A36085
:10126000FFF7BEFA002383F3118810BDAFF30080AF
:101270000C30FFF74DBC00BFAFF30080AFF3008030
:10128000FFF756BCAFF30080AFF30080AFF30080F0
:1012900010B508484FF4C042C4F202020368116856
:1012A0003D24946013B1406821409847BDE8104048
:1012B000FFF7EEB860090020AFF30080AFF30080C5
:1012C00010B50A484FF4C042C4F2020283681168A4
:1012D0004FF47464946023B18909C06801F03D0142
:1012E0009847BDE81040FFF7D3B800BF6009002061
:1012F00010B50A484FF4C042C4F2020203691168F3
:101300004FF47414946023B1090C406901F03D015D
:101310009847BDE81040FFF7BBB800BF6009002048
:1013200010B50A484FF4C042C4F202028369116842
:101330004FF07464946023B1890DC06901F03D01E0
:101340009847BDE81040FFF7A3B800BF6009002030
:1013500010B508484FF4C042C4F20202036A516853
:101360003D24D46013B1406A21409847BDE8104045
:10137000FFF78EB860090020AFF30080AFF3008064
:1013800010B50A484FF4C042C4F20202836A5168A1
:101390004FF47464D46023B18909C06A01F03D013F
:1013A0009847BDE81040FFF773B800BF6009002000
:1013B00010B50A484FF4C042C4F20202036B5168F0
:1013C0004FF47414D46023B1090C406B01F03D015B
:1013D0009847BDE81040FFF75BB800BF60090020E8
:1013E00010B50A484FF4C042C4F20202836B516840
:1013F0004FF07464D46023B1890DC06B01F03D01DE
:101400009847BDE81040FFF743B800BF60090020CF
:1014100010B508484FF4C842C4F20202036C1168C8
:101420003D24946013B1406C21409847BDE81040C2
:10143000FFF72EB860090020AFF30080AFF3008003
:1014400010B50A484FF4C842C4F20202836C116816
:101450004FF47464946023B18909C06C01F03D01BC
:101460009847BDE81040FFF713B800BF600900209F
:1014700010B50A484FF4C842C4F20202036D116865
:101480004FF47414946023B1090C406D01F03D01D8
:101490009847BDE81040FEF7FBBF00BF6009002081
:1014A00010B50A484FF4C842C4F20202836D1168B5
:1014B0004FF07464946023B1890DC06D01F03D015B
:1014C0009847BDE81040FEF7E3BF00BF6009002069
:1014D00010B508484FF4C842C4F20202036E5168C6
:1014E0003D24D46013B1406E21409847BDE81040C0
:1014F000FEF7CEBF60090020AFF30080AFF300809D
:1015000010B50A484FF4C842C4F20202836E516813
:101510004FF47464D46023B18909C06E01F03D01B9
:101520009847BDE81040FEF7B3BF00BF6009002038
:1015300010B50A484FF4C842C4F20202036F516862
:101540004FF47414D46023B1090C406F01F03D01D5
:101550009847BDE81040FEF79BBF00BF6009002020
:1015600010B50A484FF4C842C4F20202836F5168B2
:101570004FF07464D46023B1890DC06F01F03D0158
:101580009847BDE81040FEF783BF00BF6009002008
:101590002DE9F00F46F210448AB0603440F6E010B6
:1015A0004834C2F200000390A4F58060C4F2020047
:1015B00046F210440290C4F2020446F24040019404
:1015C000C4F2020046F258440490C4F2020446F207
:1015D00070400594C4F2020046F288440690C4F2BA
:1015E000020446F2A0400794C4F2020046F2B84456
:1015F0000890C4F202040398099446F2100A0024E9
:1016000040F6601346F2280946F2400846F2580CAC
:1016100046F2700746F2880646F2A005C2F20003C1
:101620000460C4F2020A0298CAF80040C4F2020937
:10163000C4F20208C4F2020CC4F20207C4F20206A9
:10164000C4F2020546F2284B1C60C4F2020BC9F832
:1016500000409C60C8F800401C61CCF800409C61D0
:101660003C601C6234609C622C601C6304600198C6
:101670009C6304601C64CBF800409C640498046084
:1016800005981C65046006989C65046007981C66B4
:10169000046008989C664FF4C04104604FF4C8424F
:1016A00009981C67C4F20201C4F2020204609C673C
:1016B0004FF0FF338B60CB609360D3600AB0BDE81E
:1016C000F00F7047AFF30080AFF30080AFF30080FE
:1016D0002DE9F041254D447A2E684FF0010C0CFAAB
:1016E00004F737423BD1DFF888C03E430CEBC40817
:1016F00016F0FF0F4CF83420C8F804302E6007D0E5
:101700004FF46053C4F202031D6B45F400141C63D4
:1017100016F47F4F1AD103681D6825F001041C6080
:101720001E6816F00104FBD190F808C045683D27FB
:1017300007FA0CF62E6021251C605D6192B1807A5B
:101740000901FEF705FF2046BDE8F0814FF4605621
:10175000C4F20206336B43F480073763DBE760466D
:10176000BDE8F0811046BDE8F08100BFE00900202F
:1017700060090020AFF30080AFF30080AFF300807A
:1017800030B44FF46053C4F2020300221C6944F0E9
:10179000010119611A61586940F001055D615A61E2
:1017A0009C6944F0010199619A61186A18621A6291
:1017B0005D6A4EF2100CCEF2000C49F23F044EF678
:1017C000F050CEF200000721C0F2020445F00105FE
:1017D0005D625A62CCF80440CCF80820CCF80010C6
:1017E000C4684FF4805CCEF2000C44F08074C46096
:1017F000DCF8001041F00100CCF80000196C4FF447
:10180000E04C41F08050C4F2000C1864DCF8001089
:1018100041F48070CCF80000186F00F44071B1F50D
:10182000007F03D04FF4803018671A674FF460537D
:10183000C4F202031A6F120407D4196F41F4007244
:101840001A67186F40F40041196730BCFFF7A0BE5B
:101850004FF460524FF4E043C4F20003C4F20202BA
:101860004FF080504FF4804110641A46196051685F
:101870004904FCD54FF4605CC4F2020C6146DCF80C
:10188000003043F00100CCF800000A684FF46053C8
:101890009207C4F20203F8D5186840F48031196049
:1018A00019460A684FF460539003C4F20203F8D556
:1018B000586F40F00101596719464A6F4FF4605361
:1018C0009207C4F20203F8D545F20842C0F2407212
:1018D0005A60186840F080711960194608684FF422
:1018E00060538001C4F20203F8D598684FF41442A3
:1018F0004FF4705CC3F60802C4F2020C40EA020125
:1019000040F205709960CCF800009A6842F002013C
:101910009960996801F00C0C4FF46052BCF1080F0B
:10192000C4F20202F5D1536C43F480415164506E0D
:1019300040F4804353667047AFF30080AFF30080FC
:101940004FF49043C4F20003998988B240F08002BA
:101950009A817047AFF30080AFF30080AFF300804F
:101960002DE9F0414B4E356FAF892C88A888A4B281
:101970002207BFB21FFA80F81ED014F0080C18BF5F
:101980004FF0800CE30748BF4CF0200CA00748BF85
:101990004CF0400C610748BF4CF4807C202383F35B
:1019A0001188B3683C484CEA03020021B260FFF79B
:1019B0003FF9002383F31188E30530D4A00622D435
:1019C000390601D5220640D4630618D5202383F3B7
:1019D0001188B168304841F010030021B360FFF76F
:1019E00027F9002383F311884FF6BF7207EA02003C
:1019F000A881298821F040031A04100C2880BDE832
:101A0000F041FEF745BD202383F3118821485FFA9A
:101A100088F1FFF78DFB002383F31188D0E72023A3
:101A200083F31188B1681C4841F400730021B3604E
:101A3000FFF7FEF8002383F31188B5F800C02CF4FB
:101A400080721004010C2980B8E7202383F31188E9
:101A5000DFF8408008F13000FFF70AFA002807DBC2
:101A60001FFA80FEA5F804E0002383F31188ABE79A
:101A7000D8F8081041F0080308F104000021C8F864
:101A80000830FFF7D5F827F0C00242F04000A881E7
:101A9000EAE700BFE4090020E8090020AFF3008076
:101AA00010B540F6E414C2F2000441F64112C0F64B
:101AB000000220460021FFF703FB4FF49043C4F2DD
:101AC0000003236710BD00BFAFF30080AFF30080B9
:101AD00038B5037B284C002918BF0C46012B05465E
:101AE00031D04FF480502B6F2168C4F20100834243
:101AF00039D04FF4A05CC4F2010C634533D04DF6ED
:101B00008060C0F28020B0FBF1F21FFA82FCA3F8E3
:101B100008C0A088B4F806C0218940F404524CF0F3
:101B2000400041F0010C1FFA8CF142F02C0280B20F
:101B300018821FFA82FC99820021A3F80CC0198038
:101B40001A889B8838BD0D488542CAD14FF4605130
:101B5000C4F2020127200B6C43F480220A64C021E6
:101B6000FEF7F6FCBDE74FF43D40C0F20150B0FB7C
:101B7000F1F18AB21A81CCE7B0300008E409002004
:101B800011F00C0F00D17047FEF742BCAFF300809C
:101B900011F00C0F38B5054638D1686A0268116833
:101BA00021F0010313601468E107FCD4047A296A68
:101BB00043680A683D2000FA04F01860136823F0B7
:101BC000010010601368DB07FCD4686891F808C056
:101BD0004A6803683D2101FA0CF111609BB10422AF
:101BE0002A70284698472B78042B0CD0A86848B157
:101BF0000024AC60202383F31188FEF7E1FD234627
:101C000083F3118838BD02212970EFE7FEF700FC4D
:101C1000C3E700BFAFF30080AFF30080AFF30080F5
:101C200038B540F6582C40F65C24C2F20004C2F2EB
:101C3000000C20464FF6FF75ACF80050FFF7A8FAED
:101C400009494FF4605016224623C4F2000001F106
:101C50000C05C0F20102C0F20103E061216265627D
:101C6000A262E36238BD00BF14300008AFF3008009
:101C70000378012B10B5044620D0C3696068A16ABF
:101C8000B0F80AC0E26A1CF4006F21F4F04022F4BC
:101C9000F0411CBF40F4205041F42051A062E162A9
:101CA0004CF44170002207211A80188099801A880C
:101CB0001FFA82FC4CF04000188010BD104884428E
:101CC00009D0216A626AE3690868116803F10C02AD
:101CD00082608A60D2E70B4A206A0A212346FFF716
:101CE000F7FC094A606A0A212346FFF7F1FC4FF42A
:101CF0006051C4F202010B6C43F480420A64E0E7D5
:101D00005C0A0020911B0008811B0008AFF30080D3
:101D10004268B2F808C05368012101FA0CF082B29F
:101D20005A837047AFF30080AFF30080AFF30080B9
:101D30004268B2F808C05368012101FA0CF082B27F
:101D40001A837047AFF30080AFF30080AFF30080D9
:101D500070B4436A046AC66A2468806A1B6840F6E5
:101D60008C25C2F2000546F48066E5606160206063
:101D7000DA6059601E60226842F001012160186833
:101D800040F001021A6070BC704700BFAFF30080E2
:101D900070B4436A046A866A24681B68C06AE26099
:101DA00040F6582546F48066C2F200056160266060
:101DB000DD6059601860226842F0010121601868F6
:101DC00040F001021A6070BC704700BFAFF30080A2
:101DD0004FF4605CC4F2020CDCF830206FEA52234E
:101DE0006FEA4321CCF83010DCF850206FEA522320
:101DF0006FEA4321CCF8501000230269C4F20203B9
:101E00004FF4806C5A610168196042685A608168B9
:101E10009960C268DA604169196282695A62C16A6E
:101E2000C4F2020C4FF40063CCF81410C269CCF871
:101E30000020016ACCF80410426ACCF80820816ABC
:101E4000CCF80C10026BCCF82020416BCCF824109D
:101E5000C4F20203826C5A61816B1960C26B5A60D2
:101E6000016C9960426CDA60C16C1962026D4FF4CA
:101E7000406C5A62416EC4F2020C4FF48053CCF8AD
:101E80001410426DCCF80020816DCCF80410C26DA6
:101E9000CCF80820016ECCF80C10826ECCF8202013
:101EA000C16ECCF82410C4F20203D0F880205A612D
:101EB000016F1960426F5A60816F9960C26FDA607A
:101EC000D0F884101962D0F888204FF4A05C5A62D0
:101ED000D0F89C10C4F2020C4FF4C053CCF814108C
:101EE000D0F88C20CCF80020D0F89010CCF804105A
:101EF000D0F89420CCF80820D0F89810CCF80C102A
:101F0000D0F8A020CCF82020D0F8A410CCF82410D1
:101F1000D0F8B820C4F202034FF4E05C5A61D0F864
:101F2000A8101960D0F8AC205A60D0F8B0109960B1
:101F3000D0F8B420DA60D0F8BC101962D0F8C02014
:101F4000C4F2020C5A62D0F8D410CCF81410D0F8B5
:101F5000C420CCF80020D0F8C830CCF80430D0F839
:101F6000CC10CCF80810D0F8D020CCF80C20D0F849
:101F7000D830CCF82030D0F8DC104FF40053CCF837
:101F80002410D0F8F020C4F202035A61D0F8E01017
:101F90001960D0F8E4205A60D0F8E8109960D0F8C1
:101FA000EC20DA60D0F8F4101962D0F8F8205A6208
:101FB000704700BFAFF30080AFF30080AFF3008045
:101FC0002DE9F00F02F00307C2F38006C2F3C1054A
:101FD000C2F34114C2F3C31200234FF00F094FF0B4
:101FE000010B924632E0D0F8208028EA0C0848EA3B
:101FF0000202026242680BFA03FC22EA0C0848EA79
:10200000060242604FF003085A00D0F808C008FAF0
:1020100002F2D24302EA0C0C4CEA050CC0F808C0EC
:10202000D0F80CC002EA0C0C4CEA040CC0F80CC04E
:10203000D0F800C002EA0C0C4CEA07020260490822
:1020400019D07600AD00A400BF00013303F00702F1
:102050004FEA820C11F0010F0AFA0CF209FA0CFC9B
:10206000EDD0072BBFD9D0F8248028EA0C0C4CEA1D
:1020700002024262BEE7BDE8F00F7047AFF3008096
:10208000FFF7E6BBAFF30080AFF30080AFF3008053
:10209000704700BFAFF30080AFF30080AFF3008064
:1020A00010B50023114819465C1CE2B2541CC154FF
:1020B000E3B2802B8154F7D10D480E4900F000FDAA
:1020C0000B480D4900F0FCFC09480C4900F0F8FCF5
:1020D00007480B4900F0F4FC05480A4900F0F0FC01
:1020E00003480949BDE8104000F0EABC900A00200E
:1020F000E4090020C0310008D8310008F831000898
:10210000183200083832000858320008AFF3008057
:102110002DE9F04F85B0B948DFF8ECA269468C2272
:10212000FEF73EFD00254CF6CD49A846CCF6CC493D
:102130008C20FEF78DFD420704460AD42307F7D50D
:102140000820FEF745FD8C20FEF782FD420704467D
:10215000F4D501224FF0FF3303A9A948FEF710FE82
:102160000420FEF735FD9DF80C30082B23D014F029
:1021700080060BD04FF44060C4F20200416981F444
:10218000804242618020FEF723FDD7E79D4803A9E6
:1021900001223346FEF794FEB8F1000F16D19DF8E8
:1021A0000C600D2E0AF8056028D07F2D00F0A68067
:1021B0000135EDB2C2E7013DEDB2FF2D1CD003A900
:1021C000012200238F48FEF77BFEB7E7B8F1060F28
:1021D00026D0B8F1070F00F09380B8F1040FADD10D
:1021E0009DF80CE0BEF10D0F0AF805E000F01A8131
:1021F0007F2DDDD13546A1E700259FE7824F3B7853
:10220000312B00F0BC81322B00F0C581332B00F064
:10221000CE81342B00F0E580FFF742FF45468DE785
:102220009DF80CB0784F0AF805B0BBF10D0FDFD167
:102230007648774900F044FC42464FF0FF33394678
:102240007048FEF73DFE7148724900F039FCF91DF7
:1022500001224FF0FF336B48FEF732FE3B78602BD4
:1022600000F2DA81402B94BFA3F13002A3F13102D6
:102270009AF801301105602B00F2A681402B94BF23
:10228000A3F13002A3F131029AF80230602B41EA47
:10229000024100F2A281402B94BFA3F13002A3F1CE
:1022A00031029AF80330602B41EA023100F29E813C
:1022B000402B94BFA3F13002A3F131029AF804300D
:1022C000602B41EA022100F29A81402B94BFA3F1D6
:1022D0003002A3F131029AF80530602B41EA021274
:1022E00040F29681513B9AF8071043EA020000251C
:1022F00000F06EFAA846FFF7D3FE1FE745461DE73C
:102300009DF80CC0404F0AF805C0BCF10D0F7FF4DA
:102310006FAF3E48404900F0D3FB06224FF0FF3339
:1023200038483946FEF7CCFD3B78602B00F28781B8
:10233000402B94BFA3F13002A3F131029AF801308F
:102340001105602B00F27881402B94BFA3F130027D
:10235000A3F131029AF80230602B41EA024100F207
:102360006881402B94BFA3F13002A3F131029AF8A7
:102370000330602B41EA023100F25881402B94BFB8
:10238000A3F13002A3F131029AF80430602B41EA44
:10239000022100F24881402B94BFA3F13002A3F147
:1023A00031029AF80530602B41EA021240F237817F
:1023B000513B43EA020000F0F3FA16498046134805
:1023C0008DF80F80002500F07BFB0DF10F0101223D
:1023D0004FF0FF330B48FEF773FDA846FFF760FE92
:1023E000ACE60A480D4900F06BFB08480C4945462D
:1023F00000F066FB4FF00508A0E600BFE8090020EA
:10240000F4090020140A0020900A0020E4090020AA
:102410002C3300083C33000848330008F832000829
:102420009C3200086F1E0121002F06DD721C01EB9B
:102430008103D6B25900BE42F8DB002D00F00681C0
:102440008D4B581E1E78C2435AFA87F7D019A6F151
:10245000300BA9FB0162D208BB4200F0010001FB76
:102460000BF81DD048B113F8010FA9FB02613038F9
:1024700002FB0088CA08BB4212D05E78581CA9FB38
:1024800002E19B78C908303E02FB0688A3F1300CBC
:10249000A9FB0136431CF208BB4201FB0C88ECD1BE
:1024A00042467648764900F00BFB7448754900F0C7
:1024B00007FB00206021012200F0B2FA6F48724948
:1024C000424600F0FDFAB8F1000F4ED04FF0010B7C
:1024D0004FF0FF3368496D485A4608EB0307FEF793
:1024E0004FFC00236A4864495A46FEF7E9FCC3459D
:1024F00007EA0B065B465F4637D28EB1654E6348EE
:102500005A4631464FF0FF33FEF73AFC02270023CC
:102510005A465F483146FEF7D3FC47453B4624D236
:102520000AEB0306314601224FF0FF335748FEF70E
:1025300027FC3146012200235548FEF7C1FC781CD8
:10254000C6B20AEB060B012259464FF0FF334F4843
:10255000FEF716FC012200234D485946FEF7B0FC59
:10256000721CD7B247453B46DAD342460020424967
:1025700000F07EF94FF00008FFF792FDDEE53F48DE
:10258000454900F09DFA3D484449454600F098FA17
:102590004FF00608D2E53948414900F091FA374832
:1025A0003E49454600F08CFA4FF00708C6E533482F
:1025B0003C49802200F084FA30483849454600F012
:1025C0007FFA4FF00408B9E5A3F151029AF80230FE
:1025D000602B41EA02417FF65EAEA3F151029AF808
:1025E0000330602B41EA02317FF662AEA3F1510263
:1025F0009AF80430602B41EA02217FF666AEA3F11F
:1026000051029AF80530602B41EA02123FF66AAE99
:10261000402B17D9313B66E6A3F1510228E6402B47
:1026200012D9313BC5E6A3F15102BAE6A3F151023A
:10263000AAE6A3F151029AE6A3F151028AE6A3F1B8
:1026400051027BE6303B4EE6303BB2E62A460B4871
:102650000B4900F035FA0B49084800F031FA2846DA
:102660006021012200F0DCF9044807492A4600F005
:1026700027FAA84679E700BF900A0020E409002065
:10268000543300086433000878330008F40900204C
:10269000140A0020910A0020743200089C320008BD
:1026A000A0320008BC320008AFF30080AFF3008016
:1026B00070B540F65C2482B0C2F2000402AD002185
:1026C000204605F8011DFEF783FD40F61433C2F2E3
:1026D000000305261A461E7001212046FEF798FDCC
:1026E000204601212A46FEF7ABFD2046FEF780FD7D
:1026F0009DF8070000F0010002B070BDAFF300804C
:1027000070B540F65C24C2F2000443F2A03182B0FE
:102710002046C0F60001FEF74BFD0023C4F2020381
:1027200008264FF4806518461E83C4F20205314620
:102730001922FFF745FC28464FF4005140F29A2237
:10274000FFF73EFC28464FF4804140F28222FFF71B
:1027500037FC4FF4004140F29A2228460DEB060563
:10276000FFF72EFC502005F8010D2046FEF780FDF6
:102770002046FEF72DFD01212A462046FEF748FDA2
:102780002046FEF735FD012620468DF80760FEF74E
:102790001FFD204631462A46FEF73AFD002331460A
:1027A0002A4620468DF80730FEF732FD40F61432F7
:1027B000C2F200020423137020463146FEF728FDC2
:1027C0002046FEF715FD2046FEF75AFD02B070BD0B
:1027D00010B5224BC0F30744C0F3072282B09870B3
:1027E0001C705A701E488DF80710FEF741FDFFF768
:1027F0005FFF0028FBD11B4C194806232370FEF70E
:10280000E7FC224601211648FEF702FD1448FEF7B8
:10281000EFFC022121701248FEF7DAFC012122466A
:102820000F48FEF7F5FC03210D480C4AFEF7F0FCBB
:1028300001210DF107020A48FEF7EAFC042020708E
:10284000012122460648FEF7E3FC0548FEF7D0FCCE
:102850000348FEF715FD02B010BD00BF100B0020AD
:102860005C0A0020140B0020AFF30080AFF300805F
:102870002DE9F041C0F50003154682B00022AB42BD
:102880008DF807200F467DD3012D7BD93F4EC0F335
:102890000741C0F30723B070317073703C48FEF7F6
:1028A000E7FCFFF705FF0028FBD13A4E3848FEF75A
:1028B0008FFC06233370012132463548FEF7A8FC11
:1028C0003348FEF795FC802231483270FEF780FCD9
:1028D0004FF0AD08012132462D48FEF799FC012149
:1028E0002B4886F800803246FEF792FC03212848E8
:1028F000264AFEF78DFC022125483A46FEF788FC61
:102900002348FEF775FC022D2CD0022404E0204859
:10291000FEF76EFCAC4225D2FFF7CAFE0028F6D1C6
:102920001B48FEF755FC012119481A4A86F8008019
:10293000FEF76EFC601CA84207EB040214484FF03F
:10294000020103D0FEF764FC0234E0E70121FEF748
:102950005FFC0F4801210DF10702FEF759FC0C48FE
:10296000FEF746FC0A48FEF733FC042131700848A4
:10297000084A0121FEF74CFC0548FEF739FC0448E3
:10298000FEF77EFC02B0BDE8F08100BF100B002016
:102990005C0A0020140B0020AFF30080AFF300802E
:1029A00010B51C4BC0F30741C0F3072282B00024CE
:1029B000987019705A7018488DF80740FEF758FC47
:1029C000FFF776FE0028FBD1144C13480B2323702D
:1029D000FEF7FEFB012122460F48FEF719FC0321FA
:1029E0000D480C4AFEF714FC01210DF107020A48BC
:1029F000FEF70EFC01210DF106020748FEF720FC50
:102A00000548FEF7F5FB0448FEF73AFC9DF8060082
:102A100002B010BD100B00205C0A0020140B002037
:102A2000F8B5214BC0F30747C0F3072498701F7017
:102A30005C701E480D461646FEF71AFCFFF738FE7E
:102A40000028FBD11A4C1948FEF7C2FB06230121CE
:102A5000224623701548FEF7DBFB1448FEF7C8FB3F
:102A600012482570FEF7B4FB012110482246FEF7FC
:102A7000CFFB602D04D00D480B4A0321FEF7C8FBA5
:102A80000A48FEF7B5FB012E04D00848BDE8F8401F
:102A9000FEF7F6BBFFF70CFE0028F6D0FFF708FEA6
:102AA0000028F7D1F1E700BF100B00205C0A0020DE
:102AB000140B0020AFF30080AFF30080AFF3008071
:102AC0000EB42DE9F04F88B011A90DF111070DF1E9
:102AD000100B51F8044B00974CF6CD42CBEB07039B
:102AE000CCF6CC420546079102930192217861B160
:102AF000661C25290ED02A68284614694FF0FF323B
:102B0000A047344621780029F2D108B0BDE8F04F43
:102B100003B0704763782D2B00F0F38100202E2B3B
:102B200000F0EA814FF02008079F34464FF0000A7A
:102B300007E03A7804370AEB8A0302EB430A16F8F7
:102B4000013FA3F13001CAB20134092AF3D92A2B7B
:102B5000EFD000212E2B07974CD06C2B56D04C2B4E
:102B600054D0A3F14107FAB2192A8CBF00220122E6
:102B7000A3F14406342E00F2B781DFE816F07401A9
:102B8000B501B501B501B501B501B501B501B50195
:102B9000B501B5016C01B501B501B501B501B501CE
:102BA000BB01B501B5012F01B501B501B501B501F5
:102BB000B501B501B501B501B501B501E600740176
:102BC000B501B501B501B501B501B501B501B50155
:102BD000B501B5016C01B501B501B5014F00B501F5
:102BE000BB01B501B5012F013A78043701EB81092A
:102BF00002EB490114F8013BA3F13006F2B2092AB5
:102C0000F4D92A2BF0D06C2B0797A8D12278002A70
:102C100000F07B81134601340122A9E7079FA84AEF
:102C20003B1D07933F68002F08BF174647F6FF7804
:102C30003B78002908BF4146002B00F08281FE430B
:102C400079187A7801EB060C07F101090CF00106FE
:102C50004B46A2B1894512D02EB113F8012F09F1CC
:102C6000010952B90BE05A7809F10109013332B177
:102C70005A7809F1010901330AB18945F3D1C7EB4B
:102C80000909C9EB0A014FF0200821EAE17A00287E
:102C90006CD0B9F1000F30DD3E462A6816F8011BF2
:102CA0001369B944FF4309EB070E28464FF0FF3282
:102CB0000EF0010798474E451FD04FB12A6816F80D
:102CC000011B136928464FF0FF3298474E4514D038
:102CD000274634462A6814F8011B136928464FF02A
:102CE000FF329847286871784FF0FF32661C0469FC
:102CF0002846A0474E45ECD13C46BAF1000F3FF4C0
:102D0000F5AE2E680AF1FF3C336928466646414617
:102D10004FF0FF320CF001079847002E3FF4E6AE6B
:102D20000FB12B6808E02868414603694FF0FF3275
:102D3000284698472B68013E1B69284641464FF0BC
:102D4000FF329847013EEED1D0E6079BDDF80890B0
:102D50001A68191D07918DF810204FF020085F4662
:102D6000C9EB0A0121EAE17A002892D1CAF1000AEE
:102D7000BAF1000F8DD039782D2900F0D480286861
:102D80006FEA0A01036901F00106284641464FF047
:102D9000FF3298471AF1010A3FF47BAF56B12B6816
:102DA00028461B6941464FF0FF3298471AF1010A45
:102DB0003FF46FAF2868414603694FF0FF32284661
:102DC00098472B680AF1010A1B69284641464FF0D3
:102DD000FF3298471AF1010AECD15AE71027079BF6
:102DE000002A3CD01E1D1A6807960DF11A06B2FB88
:102DF000F7F907FB192303F1300CBCF1390FC8BFF9
:102E000003F1370C5FFA8CF34A46314606F8013974
:102E1000002AECD10DF11B06C1EB06096FEA0B028B
:102E20000BEB090C0CEB0207FA075E460BD58BF88F
:102E300000300DF1110611F8013F04E04B7873707A
:102E40007B780231561C32464F1C02F8013B62452A
:102E5000F4D15F4684E70827079B002AC2D1191DD9
:102E60001A680791C1E7079B002A50D11A681F1DF5
:102E7000002A079750DBDC460CF10B07DDF80490C5
:102E80003E46A9FB0231C90801EB8103A2EB4302D4
:102E90003032013ED3B233700A460029F1D1B91B5A
:102EA0000CEB01096FEA0C0209EB0207FF07039123
:102EB00061460CD5614601F8013B16F8013F06E07A
:102EC000B033000873784B707B780236511C0A4689
:102ED000771C02F8013B4A45F4D1039A0CEB020738
:102EE000CBEB07095F463BE78DF81030DDF8089023
:102EF0005F4635E70A2772E773784FF030080136EE
:102F000012E6A61CA378012009E6012230E61A6821
:102F1000191D002A0791AEDA2D238DF81030524288
:102F20000DF1110CA8E7B8F1300F7FF428AF2A6833
:102F3000284616694FF0FF32B047013709F1FF39D3
:102F40001DE799464FF020080AE700BFAFF3008065
:102F50000B480C4AC36970B54FF440644FF40055F8
:102F60009A61C4F202042E4626834FF4FA70FDF7EC
:102F700027FD65834FF4FA70FDF722FDF4E700BFEB
:102F800018090020C0330008AFF30080AFF30080C1
:102F900069646C6500000000000000000000000093
:102FA0006D61696E00160311040448080C101418B2
:102FB000001C1D1E0020000000000000000000009A
:102FC000811000086110000811100008211000088D
:102FD000A11000089110000871100008511000089D
:102FE0003110000800000000000000000000000098
:102FF000106002400860024000000B0028600240A0
:103000000860024006010C00406002400860024077
:1030100010020D00586002400860024016030E00C6
:10302000706002400C60024000040F0088600240A3
:103030000C60024006051000A06002400C600240D7
:1030400010061100B86002400C60024016072F0005
:1030500010640240086402400008380028640240FE
:1030600008640240060939004064024008640240D6
:10307000100A3A005864024008640240160B3B00F4
:10308000706402400C640240000C3C008864024002
:103090000C640240060D4400A06402400C6402402F
:1030A000100E4500B86402400C640240160F460042
:1030B000004B000000000040000000000000000085
:1030C00000AAA02A00000000FFFFFFFF54000164D7
:1030D000FFFFFFFF0000565500AA0A0080200800ED
:1030E00040020000FFFFFFFF15455155FFFFFFFFA6
:1030F00000000004400000000180200200000000E9
:10310000FFFFFFFF54154554FFFFFFFF0000006065
:10311000000606000001005500000000FFFFFFFF51
:1031200055505500CF0F00000000000000000000C7
:103130004000000000000000FFFFFFFF1055555544
:10314000FFFFFFFF00000000000000000000000083
:1031500000000000FFFFFFFF55555555FFFFFFFF23
:10316000000000000000000000000000000000005F
:10317000FFFFFFFF55555555FFFFFFFF0000000003
:10318000000000000000000000000000FFFFFFFF43
:1031900050555555FFFFFFFF0000000000000000E4
:1031A0000000000000000000FFFFFFFF55555555CF
:1031B000FFFFFFFF00000000000000000000000013
:1031C0000D0A446576656C6F706D656E74204D6593
:1031D0006E750D0A000000002831292057726974AD
:1031E00065204279746520746F2053504920466CE5
:1031F0006173680D0A00000028322920526561645D
:1032000020427974652066726F6D205350492046C4
:103210006C6173680D0A00002833292057726974A5
:103220006520427974657320746F2053504920469D
:103230006C6173680D0A00002834292052656164AE
:103240002042797465732066726F6D205350492057
:10325000466C6173680D0A0028352920577269741D
:103260006520612020746F2053504920466C6173A3
:10327000680D0A000D0A3C48657820416464726557
:1032800073733E203C48657820427974653E3A204D
:10329000303031303046205A0D0A0000203A3E00CE
:1032A0000D0A3C48657820416464726573733E3A48
:1032B000203030313030460D0A0000000D0A5374C2
:1032C0006172746E67206174203078303030303035
:1032D000302C20656E746572206E756D626572208B
:1032E0006F6620627974657320286D61782025648B
:1032F000293A0D0A000000000D0A52656164696EEA
:10330000672066726F6D2030783030303030302C6E
:1033100020656E746572206E756D626572206F66D1
:103320002062797465733A0D0A0000000D0A446545
:103330007374696E6174696F6E3A20000D0A44619E
:1033400074613A20000000000D0A546172676574D0
:103350003A2000000D0A4E756D2042797465733A6B
:10336000202564000D0A45726173696E6720466C02
:103370006173680D0A0000000D0A45726173696E81
:103380006720446F6E652C205472616E736665729F
:103390002025642062797465730D0A000000000026
:1033A00000000000000002400300000000000000D8
:1033B000286E756C6C290000000000000000000001
:0833C000626C696E6B6572001E
:04000005080001905E
:00000001FF
