:020000040800F2
:100000000004002041020008110400081104000847
:10001000110400081104000811040008110400086C
:10002000110400081104000811040008310400083C
:10003000110400081104000811040008110500084B
:10004000110400081104000811040008110400083C
:10005000110400081104000811040008110400082C
:10006000110400081104000811040008A11200087E
:10007000D1120008011300083113000861130008B1
:1000800091130008C11300081104000811040008AE
:1000900011040008110400081104000811040008EC
:1000A00011040008110400081104000811040008DC
:1000B000110400081104000811040008A118000828
:1000C000A119000811040008110400081104000817
:1000D000110400081104000811040008411B000865
:1000E000110400081104000811040008110400089C
:1000F000110400081104000811040008F11300089D
:10010000110400081104000811040008110400087B
:10011000110400081104000811040008110400086B
:10012000211400085114000881140008B1140008BB
:10013000E11400081104000811040008110400086B
:10014000110400081104000811040008110400083B
:100150001115000841150008711500081104000868
:10016000110400081104000811040008110400081B
:10017000110400081104000811040008110400080B
:0801800011040008110400083D
:1001900000B583B000F024FF00F032FA1A480021C5
:1001A00000F0CEFF4FF48060C4F202004FF4806193
:1001B00040F2823201F05CFF4FF48060C4F2020032
:1001C0004FF4006140F2823201F052FF002442F607
:1001D000301140220D4B0E48009400F0D9FB0D4821
:1001E0000D4B00944FF4D8717F2200F0D1FB0B49E6
:1001F000054802F02DFD41F2883000F0E1FB044893
:1002000000F0DEFAF3E700BF180A002021280008FA
:10021000A80B0020D8340020B12100087035000858
:10022000704700BFAFF30080AFF30080AFF30080F2
:10023000FEE700BFAFF30080AFF30080AFF30080B4
:1002400072B6634880F30988022383F31488BFF3EE
:100250006F8F604A604CA24217D213464FF055315F
:1002600043F8041BD643A519A342C5F380050CD25D
:1002700025B1196002F10803A34206D21A4642F8DA
:10028000041B5960131DA342F8D3544A824217D26B
:1002900013464FF0553143F8041BD54344198342AC
:1002A000C4F380040CD224B1196002F10803834224
:1002B00006D21E4646F8041B5960331D8342F8D30C
:1002C00001F036FF464C4749A14222D24648024639
:1002D0000B4652F8046B43F8046BCD4304EB050C5A
:1002E000A342CCF3800514D23DB116681E6001F123
:1002F0000803A34200F108020BD21146184651F838
:10030000045B526840F8045B5A60031D0A1DA34257
:10031000F3D3364A3648824217D21346002143F8B7
:10032000041BD44300EB040E8342CEF380040CD2B2
:1003300024B1196002F10803834206D21E4646F832
:10034000041B5960331D8342F8D32A4D2A4EFFF710
:1003500067FFB54219D22C46E94354F8043B77189D
:100360009847B442C7F380070FD22FB1236805F135
:1003700008049847B44208D2254655F8042B904704
:1003800060682C1D8047B442F6D31C4D1C4EFFF70D
:10039000FFFEB5421AD22C46EF4354F8043B06EB5D
:1003A000070CCCF380079847B4420FD22FB12268D4
:1003B00005F108049047B44208D2254655F8040BCD
:1003C000804761682C1D8847B442F6D3FFF730FFA1
:1003D000000800200000002000040020000400208D
:1003E00000080020000800208835000800080020D0
:1003F000883600208801000888010008880100086C
:1004000088010008AFF30080AFF30080AFF30080F5
:10041000FEE700BFAFF30080AFF30080AFF30080D2
:1004200000F046FA00DF00BFAFF30080AFF30080BA
:10043000EFF30983203383F30988002383F31188C2
:10044000704700BFAFF30080AFF30080AFF30080D0
:1004500008B54FF46D43CEF200030022C0F2FA5209
:10046000002199600720DA60102100F099F80A2035
:100470004FF4007100F094F80B208021BDE8084093
:1004800000F08EB8AFF30080AFF30080AFF30080D0
:10049000202383F311884FF46D40CEF200004368AF
:1004A00013F4006319D0EFF30983A3F1200282F360
:1004B0000988124A91694FF0807043F8040C79B1B1
:1004C0001168D06989688268914294BF0022012234
:1004D00082B10B4843F8080C704783F311887047CA
:1004E0001168D26988689268904234BF0022012264
:1004F000002AEED1034A43F8082C7047180900205F
:100500002104000824040008AFF30080AFF300804A
:1005100008B5202383F3118800F0AAF8002383F3A1
:100520001188BDE80840FFF7B3BF00BFAFF30080FC
:100530002DE9F04FC1F80CD0D0F80CD0BDE8F08F09
:10054000002383F311882846A04700F069FA70471A
:10055000F0B44FF461438408CEF20003C03400F0DD
:10056000030253F82460D500FF27420907FA05F774
:1005700026EA070601FA05F500F01F0C02F16007F4
:10058000012101FA0CF0354343F8245043F82700C9
:1005900043F82200F0BC7047AFF30080AFF3008057
:1005A00030B482084FF46D43CEF20003063200F0FF
:1005B0000300C00053F82240FF2505FA00F524EAA5
:1005C000050401FA00F144EA010043F8220030BCBE
:1005D000704700BFAFF30080AFF30080AFF300803F
:1005E0000248034AC3699A61FEE700BF1809002068
:1005F000E0300008AFF30080AFF30080AFF300807D
:1006000010B582B0FFF724FF00F0CAF800F058F8E8
:1006100000F09EFC00F0D4FC40F600004021C2F245
:10062000000000F065F940F61814C2F2000401223F
:10063000E0610277002383F3118862B6E16943F237
:10064000F004C0F600048C6140F64800002140F23E
:10065000E1530091C0F60003C021C2F2000000F097
:1006600097F902B010BD00BFAFF30080AFF3008078
:1006700038B5104B9A69002A01DD013A9A61DB69AD
:100680000D4C186A2268411C1962E068431CA242A2
:10069000E3600ED09568013D956055B91168D36847
:1006A00010694C60D56021609847226891680029E4
:1006B000F4D038BD1809002008090020AFF30080ED
:1006C00040F60813C2F200034FF0FF3000225B60D7
:1006D0001B609860DA607047AFF30080AFF3008072
:1006E00070B40C4D03612C68C260A668B14204D995
:1006F0002468891BA6688E42FAD363680460AC4202
:10070000436018606060816002D0A068411AA160F7
:1007100070BC704708090020AFF30080AFF3008081
:100720000368074A934203D09968826889189960E0
:1007300042681360016800234A60C360704700BFCD
:1007400008090020AFF30080AFF30080AFF3008012
:10075000037F0D2B11D8DFE803F020101007100BDA
:10076000101010101010100B416A8B685A1C8A6010
:1007700090E80C001A60026853604FF0FF3242624A
:100780008168064B002202771B689A688A42FBD276
:10079000596803604160086058607047180900207C
:1007A00040F61813C2F20003002014225B601B60A5
:1007B00098609A615B611B61704700BFAFF3008076
:1007C00000228168054B02771B689A688A42FBD237
:1007D000596803604160086058607047180900203C
:1007E00040F61813C2F2000310B41A68D9691468ED
:1007F0000877142098611C6063601046DA61012359
:10080000137710BCFFF794BEAFF30080AFF3008006
:1008100030B54B1C87B0054611D00B4C0B4AE36931
:1008200001A8FFF75DFF2846FFF7DAFF049B13B12D
:1008300001A8FFF775FFE069406A07B030BDFFF718
:10084000CFFF014CF7E700BF18090020510700084F
:10085000144A4162D36930B485689C68A5420CD8BB
:1008600000230377126891688D42FBD9536880E8B2
:100870000C001860506030BC704700251D77114691
:1008800009688D68AC42FBD94C6883E812004B6064
:1008900014212360D061916101221946027730BC96
:1008A000FFF746BE18090020AFF30080AFF30080C9
:1008B0000E4A1068D16930B405688C68156014233D
:1008C00093616A60D06101220277002203460A77B1
:1008D00000E01B689A68A242FBD25A680B604A602B
:1008E0001160596030BCFFF723BE00BF180900201B
:1008F00040F61813C2F20003F0B45C6903610022F1
:1009000000F12C0500F1280681604461022758613E
:100910000123077742770164C263826302628377AF
:100920008261206186620563C562F0BC704700BFCA
:100930002DE9F00140F61814C2F2000424394618DB
:100940006769C6604350059940F24153C0F6000301
:10095000716033620025944600F1280800F12C02F2
:10096000022101230461C0F808C04761017760617A
:100970004577C0F840C0C5638563056283778561AC
:100980003861C0F828800263C262BDE8F001704798
:1009900010B59C4682B0202383F31188049C6346E3
:1009A0000094FFF7C5FF00210446FFF751FF002325
:1009B00083F31188204602B010BD00BFAFF3008062
:1009C00008B50146202383F311880620FFF720FF96
:1009D000002383F3118808BDAFF30080AFF30080DC
:1009E0000E4938B5CC692546034655F8280F636291
:1009F000A84206D00268A262FFF7E2FEA06AA842FF
:100A0000F8D1607F830704D1636922691A61216983
:100A10004B610E20BDE83840FFF7E2BE1809002008
:100A2000202383F31188FFF7DBBF00BFAFF3008003
:100A30000023406000608360704700BFAFF3008018
:100A4000F8B505462E4B8068DC69002850D0A268B6
:100A500081688A4206D9037F8260042B30D0052B3F
:100A60001BD093B12B461B689D4203D09868A268A7
:100A70009042F8D259682360042061600C605C6089
:100A80006562BDE8F840FFF7ABBE90E80C001A6065
:100A900001684B60FFF794FEE4E741680768466A27
:100AA0000F600768334679601B689E4202D09968E0
:100AB0009142F9D25A680360426010605860D1E7F1
:100AC00041680768466A0F600768334679601B68AB
:100AD0009E4212D099689142F9D25A6803604260EE
:100AE00010605860B068A26883689342B3D3B9E7D6
:100AF000E36BAC60EB60E563F8BD3346EDE700BF48
:100B000018090020AFF30080AFF30080AFF300803E
:100B100008B5202383F31188FFF792FF002383F3A6
:100B2000118808BDAFF30080AFF30080AFF3008001
:100B3000174A38B5D269202383F31188D46B206813
:100B4000E368A042D3631BD0156C4BB1196899427E
:100B500003D089688D4238BF0D46DB68002BF5D184
:100B60000368C16B956023605C60E160A060002158
:100B7000C463FFF76DFE002383F31188204638BD60
:100B80000020A060002383F31188204638BD00BFF9
:100B900018090020AFF30080AFF30080AFF30080AE
:100BA00030B4202383F3118840F61813C2F20003F7
:100BB0000568DC690D60002301604C608A6083F386
:100BC000118830BC704700BFAFF30080AFF30080E6
:100BD00010B4202383F3118840F61814C2F20004E5
:100BE0000023E1698A6B22EA00048C6383F3118895
:100BF000104010BC704700BFAFF30080AFF300801F
:100C000008B5826B037F1143082B81630BD0092B3E
:100C100000D008BD426A11408A42FAD1FFF7D0FDE8
:100C20000023436208BD436A1942F7D108BD00BFE3
:100C300070B50468A04205460E4607D0A1686068FA
:100C40003143FFF7DDFF2468A542F7D170BD00BF37
:100C500038B50D4B0546DC69202383F31188A36B5F
:100C600010EA030206D160620820FFF7B9FDA36B0A
:100C700005EA03025042104023EA0001A163002369
:100C800083F3118838BD00BF18090020AFF300803E
:100C900051B1074AD3695862426883E8050043604E
:100CA0000D201360FFF7B4BD4FF0FF30704700BF59
:100CB00018090020AFF30080AFF30080AFF300808D
:100CC00010B48A1800244060006084604161816132
:100CD000C1600261C36110BC704700BFAFF3008008
:100CE000426908B5034680698242986818D001308D
:100CF000986002F8011B19695A618A4228BFDA68B4
:100D0000186828BF5A61984208D002681A60536078
:100D1000FFF756FD00234362184608BD002008BDBA
:100D20000028E4D06FF0030008BD00BFAFF30080DF
:100D300070B5202304460D4683F31188C36903B1BF
:100D40009847A668204629463EB9FFF7A1FF00282C
:100D5000F7DA334683F3118870BDA3692269013E37
:100D6000A66013F8010B9342A36124BFE368A3615B
:100D7000002383F3118870BDAFF30080AFF30080D0
:100D80002DE9F0471D4604460E469146D0F81C80DA
:100D9000202383F311880027B8F1000F01D02046EB
:100DA000C047D4F808A020462946BAF1000F09D15F
:100DB000FFF76EFF0028F4D0534683F311883846BE
:100DC000BDE8F087A3690AF1FF31A16013F8010BB8
:100DD000F0552269A361934224BFE368A361002315
:100DE00083F311880137B945E9D0202383F31188B3
:100DF000D2E700BFAFF30080AFF30080AFF3008015
:100E000010B48C1840600060826041618161C160F3
:100E10000461C36110BC7047AFF30080AFF3008082
:100E2000F8B504460D461646202383F31188A768BB
:100E3000204631463FB9FFF72BFF0028F7DA3B4643
:100E400083F31188F8BD6369013FA76003F8015B74
:100E500022696361934224BFE3686361E3690BB174
:100E600020469847002383F311881846F8BD00BF39
:100E700041698269914210B50346816816D04C1CC5
:100E80009C6012F8014B18699A61824228BFDA68A7
:100E9000186828BF9A61984206D002681A605360A9
:100EA000FFF78EFC00234362204610BD0029E6D0E8
:100EB0006FF0020010BD00BFAFF30080AFF3008001
:100EC0002DE9F0471E4604460D461746D0F81C9003
:100ED000202383F311884FF00008D4F808A00AF10A
:100EE000FF33BAF1000F21D0A3602878636903F8BB
:100EF000010B22696361934224BFE3686361B9F126
:100F0000000F01D02046C847002383F31188013F1A
:100F100008F1010813D00135202383F31188D4F898
:100F200008A00AF1FF33BAF1000FDDD120463146A7
:100F3000FFF7AEFE0028D0D0534683F31188404619
:100F4000BDE8F087AFF30080AFF30080AFF300801F
:100F5000094940F63C1240F638134CF2000CC2F23C
:100F60000002C2F20003C2F2010C21F007002CF0D3
:100F700007011060196070478F360020AFF30080C2
:100F8000202383F31188094B09491A68096807303F
:100F900020F00700891A88429ABF101818600022B2
:100FA000002383F311881046704700BF3C090020DE
:100FB00038090020AFF30080AFF30080AFF300806A
:100FC00040F64013C2F2000340F681710022C0F6E1
:100FD000000103F1100019609A60DA60FFF728BD84
:100FE00008B500F07DFB43F21020C0F6000000F0D1
:100FF00047FF00F00DF800F073F800F0D9F8BDE8F5
:10100000084001F09DB800BFAFF30080AFF300804F
:1010100000F06EBDAFF30080AFF30080AFF300804F
:1010200003460121002200F10C0019705A60FFF7FD
:10103000FFBC00BFAFF30080AFF30080AFF30080D0
:10104000806BD0F1010038BF00207047AFF3008003
:101050008069D0F1010038BF00207047AFF30080F5
:101060000246202383F3118800238068936083F372
:1010700011887047AFF30080AFF30080AFF30080BA
:101080001030FFF77DBE00BFAFF30080AFF30080EC
:1010900010304FF0FF33FFF773BE00BFAFF3008097
:1010A0003030FFF70DBF00BFAFF30080AFF300801B
:1010B00030304FF0FF33FFF703BF00BFAFF30080C6
:1010C0001030FFF735BE00BFAFF30080AFF30080F4
:1010D0003030FFF7A5BE00BFAFF30080AFF3008054
:1010E00000F0CEBDAFF30080AFF30080AFF300801F
:1010F00070B543F210130646C0F60003044646F8E6
:10110000043B66600026A66001260B46154604F1E6
:101110005001402200F110002673FFF7D1FD04F1C9
:10112000900104F1300040222B46BDE87040FFF7EB
:1011300067BE00BFAFF30080AFF30080AFF3008065
:1011400010B52023044683F3118800F0B1FD02237B
:101150002373002383F3118810BD00BFAFF3008019
:1011600038B50D468169044639B104F110002946AD
:10117000FFF7B6FD00280EDB38BD826842F004039D
:101180000430A360FFF754FD04F110002946FFF777
:10119000A7FD0028F0DAA36843F08001A160201DBC
:1011A0000021BDE83840FFF743BD00BFAFF300802A
:1011B00000F0DEBDAFF30080AFF30080AFF300803E
:1011C00003460022012100F10C0019705A609A6058
:1011D000FFF72EBCAFF30080AFF30080AFF30080C9
:1011E00008B5202383F3118800F0EAFD002383F380
:1011F000118808BDAFF30080AFF30080AFF300802B
:1012000008B5202383F3118800F0EAFD002383F35F
:10121000118808BDAFF30080AFF30080AFF300800A
:1012200010B52023044683F311880323237000F0B4
:10123000E7FD40F61811C2F200010220CB69A3605D
:10124000FFF7CEFA002383F3118810BDAFF30080BF
:1012500010B52023044683F311880323237000F084
:10126000EFFD40F61811C2F200010220CB69A36025
:10127000FFF7B6FA002383F3118810BDAFF30080A7
:101280000C30FFF745BC00BFAFF30080AFF3008028
:10129000FFF74EBCAFF30080AFF30080AFF30080E8
:1012A00010B508484FF4C042C4F202020368116846
:1012B0003D24946013B1406821409847BDE8104038
:1012C000FFF7E6B860090020AFF30080AFF30080BD
:1012D00010B50A484FF4C042C4F202028368116894
:1012E0004FF47464946023B18909C06801F03D0132
:1012F0009847BDE81040FFF7CBB800BF6009002059
:1013000010B50A484FF4C042C4F2020203691168E2
:101310004FF47414946023B1090C406901F03D014D
:101320009847BDE81040FFF7B3B800BF6009002040
:1013300010B50A484FF4C042C4F202028369116832
:101340004FF07464946023B1890DC06901F03D01D0
:101350009847BDE81040FFF79BB800BF6009002028
:1013600010B508484FF4C042C4F20202036A516843
:101370003D24D46013B1406A21409847BDE8104035
:10138000FFF786B860090020AFF30080AFF300805C
:1013900010B50A484FF4C042C4F20202836A516891
:1013A0004FF47464D46023B18909C06A01F03D012F
:1013B0009847BDE81040FFF76BB800BF60090020F8
:1013C00010B50A484FF4C042C4F20202036B5168E0
:1013D0004FF47414D46023B1090C406B01F03D014B
:1013E0009847BDE81040FFF753B800BF60090020E0
:1013F00010B50A484FF4C042C4F20202836B516830
:101400004FF07464D46023B1890DC06B01F03D01CD
:101410009847BDE81040FFF73BB800BF60090020C7
:1014200010B508484FF4C842C4F20202036C1168B8
:101430003D24946013B1406C21409847BDE81040B2
:10144000FFF726B860090020AFF30080AFF30080FB
:1014500010B50A484FF4C842C4F20202836C116806
:101460004FF47464946023B18909C06C01F03D01AC
:101470009847BDE81040FFF70BB800BF6009002097
:1014800010B50A484FF4C842C4F20202036D116855
:101490004FF47414946023B1090C406D01F03D01C8
:1014A0009847BDE81040FEF7F3BF00BF6009002079
:1014B00010B50A484FF4C842C4F20202836D1168A5
:1014C0004FF07464946023B1890DC06D01F03D014B
:1014D0009847BDE81040FEF7DBBF00BF6009002061
:1014E00010B508484FF4C842C4F20202036E5168B6
:1014F0003D24D46013B1406E21409847BDE81040B0
:10150000FEF7C6BF60090020AFF30080AFF3008094
:1015100010B50A484FF4C842C4F20202836E516803
:101520004FF47464D46023B18909C06E01F03D01A9
:101530009847BDE81040FEF7ABBF00BF6009002030
:1015400010B50A484FF4C842C4F20202036F516852
:101550004FF47414D46023B1090C406F01F03D01C5
:101560009847BDE81040FEF793BF00BF6009002018
:1015700010B50A484FF4C842C4F20202836F5168A2
:101580004FF07464D46023B1890DC06F01F03D0148
:101590009847BDE81040FEF77BBF00BF6009002000
:1015A0002DE9F00F46F210448AB0603440F6E010A6
:1015B0004834C2F200000390A4F58060C4F2020037
:1015C00046F210440290C4F2020446F240400194F4
:1015D000C4F2020046F258440490C4F2020446F2F7
:1015E00070400594C4F2020046F288440690C4F2AA
:1015F000020446F2A0400794C4F2020046F2B84446
:101600000890C4F202040398099446F2100A0024D8
:1016100040F6601346F2280946F2400846F2580C9C
:1016200046F2700746F2880646F2A005C2F20003B1
:101630000460C4F2020A0298CAF80040C4F2020927
:10164000C4F20208C4F2020CC4F20207C4F2020699
:10165000C4F2020546F2284B1C60C4F2020BC9F822
:1016600000409C60C8F800401C61CCF800409C61C0
:101670003C601C6234609C622C601C6304600198B6
:101680009C6304601C64CBF800409C640498046074
:1016900005981C65046006989C65046007981C66A4
:1016A000046008989C664FF4C04104604FF4C8423F
:1016B00009981C67C4F20201C4F2020204609C672C
:1016C0004FF0FF338B60CB609360D3600AB0BDE80E
:1016D000F00F7047AFF30080AFF30080AFF30080EE
:1016E00030B44FF46053C4F2020300221C6944F08A
:1016F000010119611A61586940F001055D615A6183
:101700009C6944F0010199619A61186A18621A6231
:101710005D6A4EF2100CCEF2000C49F23F044EF618
:10172000F050CEF200000721C0F2020445F001059E
:101730005D625A62CCF80440CCF80820CCF8001066
:10174000C4684FF4805CCEF2000C44F08074C46036
:10175000DCF8001041F00100CCF80000196C4FF4E7
:10176000E04C41F08050C4F2000C1864DCF800102A
:1017700041F48070CCF80000186F00F44071B1F5AE
:10178000007F03D04FF4803018671A674FF460531E
:10179000C4F202031A6F120407D4196F41F40072E5
:1017A0001A67186F40F40041196730BCFFF7F8BEA4
:1017B0004FF460524FF4E043C4F20003C4F202025B
:1017C0004FF080504FF4804110641A461960516800
:1017D0004904FCD54FF4605CC4F2020C6146DCF8AD
:1017E000003043F00100CCF800000A684FF4605369
:1017F0009207C4F20203F8D5186840F480311960EA
:1018000019460A684FF460539003C4F20203F8D5F6
:10181000586F40F00101596719464A6F4FF4605301
:101820009207C4F20203F8D545F20842C0F24072B2
:101830005A60186840F080711960194608684FF4C2
:1018400060538001C4F20203F8D598684FF4144243
:101850004FF4705CC3F60802C4F2020C40EA0201C5
:1018600040F205709960CCF800009A6842F00201DD
:101870009960996801F00C0C4FF46052BCF1080FAC
:10188000C4F20202F5D1536C43F480415164506EAE
:1018900040F4804353667047AFF30080AFF300809D
:1018A00038B53E4A146B208BA58AADB2022345EAB7
:1018B000004121F07F41C0F20303994245D00ED888
:1018C0000123C0F20303994201D1138C238215F046
:1018D0000A0F18BF238BBDE83840FEF7D9BD82231D
:1018E000C0F20703994223D08423C0F20703994230
:1018F000EDD1936A18684168002943D1B4F804C057
:101900002CF400700304180CA08023881FFA83FCB9
:101910004CF400702080202383F31188D06918B123
:10192000D1614162FEF74CFF002383F31188CEE7BB
:10193000A188D06A21F40073190400680A0CA280FF
:10194000036843F001030360C1E7A088926A20F4B2
:1019500000710B041268180CA080116841F001039B
:101960001360B4F804C01FFA8CF040F48051A180D9
:101970005368012BABD8218821F4806213041B0C1F
:101980002380A4E7138C43F0010CA2F820C0208828
:1019900081B241F4A06222809DE700BFE4090020EB
:1019A000504970B50A6B202383F31188CD6A2868EB
:1019B000046824F0010303600668F407FCD42E7A5F
:1019C0008C6A6B6820683D2505FA06F51D60036882
:1019D00023F001050560036813F00103FBD1257AAC
:1019E00060683D2404FA05F4046083F31188908A4A
:1019F00010F4807306D0908A20F480731804030CCE
:101A000093820123B2F814C05FEA8C5008D5B2F873
:101A100014C02CF400700004000C908243F0020308
:101A2000908A400517D5B2F814C02CF480600004E9
:101A3000000C9082B2F804C02CF400700004000C7A
:101A40009080B2F800C01FFA8CF040F4007CA2F83D
:101A500000C043F00403908A000508D5B2F814C012
:101A60002CF400600004000C908243F00803908A7C
:101A7000C00408D5B2F814C02CF480500004000C47
:101A8000908243F01003908A400408D5B2F814C045
:101A90002CF480400004000C908243F02003B2F844
:101AA00014C00FFA8CF0002804DB4BB9BDE870407D
:101AB000FEF7EEBC908A4004400C908243F0400355
:101AC0008B60202383F31188C86938B1054B00224D
:101AD0006FF00101DA614162FEF772FE002383F3C9
:101AE0001188E3E7E4090020AFF30080AFF3008042
:101AF00010B540F6E414C2F200042046FFF790FA55
:101B000043F24013C0F600034FF4A842C4F20002AF
:101B100003F148010020E0612263A362E16210BD8D
:101B20004FF49043C4F20003998988B240F08002D8
:101B30009A817047AFF30080AFF30080AFF300806D
:101B40002DE9F0414B4ED6F8D050AF892C88A888AB
:101B5000A4B22207BFB21FFA80F81ED014F0080CFE
:101B600018BF4FF0800CE30748BF4CF0200CA007D3
:101B700048BF4CF0400C610748BF4CF4807C2023E8
:101B800083F31188B3683C484CEA03020021B26039
:101B9000FFF74EF8002383F31188E30530D4A00645
:101BA00022D4390601D5220640D4630618D5202355
:101BB00083F31188B168304841F010030021B3600D
:101BC000FFF736F8002383F311884FF6BF7207EA58
:101BD0000200A881298821F040031A04100C2880F3
:101BE000BDE8F041FEF754BC202383F3118821485F
:101BF0005FFA88F1FFF7B4FA002383F31188D0E786
:101C0000202383F31188B1681B4841F4007300213D
:101C1000B360FFF70DF8002383F31188B5F800C017
:101C20002CF480721004010C2980B8E7202383F380
:101C30001188DFF8408008F13000FFF719F900281B
:101C400007DB1FFA80FEA5F804E0002383F3118868
:101C5000ABE7D8F8081041F0080308F104000021B0
:101C6000C8F80830FEF7E4FF27F0C00242F0400059
:101C7000A881EAE7180A00201C0A0020AFF30080C0
:101C800010B540F61824C2F2000441F62132C0F625
:101C9000000220460021FFF72BFA4FF49043C4F2D4
:101CA0000003C4F8D03010BDAFF30080AFF3008064
:101CB00038B5037B294C002918BF0C46012B05467B
:101CC00032D04FF48050D5F8D0302168C4F20100F2
:101CD000834239D04FF4A05CC4F2010C634533D089
:101CE0004DF68060C0F28020B0FBF1F21FFA82FC5A
:101CF000A3F808C0A088B4F806C0218940F40452B3
:101D00004CF0400041F0010C1FFA8CF142F02C0223
:101D100080B218821FFA82FC99820021A3F80CC0BD
:101D200019801A889B8838BD0D488542C9D14FF467
:101D30006051C4F2020127200B6C43F480220A6434
:101D4000C021FEF705FCBCE74FF43D40C0F2015056
:101D5000B0FBF1F18AB21A81CCE700BF0032000873
:101D6000180A0020AFF30080AFF30080AFF30080CB
:101D700038B540F6EC2C40F6F024C2F20004C2F272
:101D8000000C20464FF6FF75ACF80050FFF718FA2C
:101D900009494FF4605016224623C4F2000001F1B5
:101DA0000C05C0F20102C0F20103E061216265622C
:101DB000A262E36238BD00BF64310008AFF3008067
:101DC0004268B2F808C05368012101FA0CF082B2EF
:101DD0005A837047AFF30080AFF30080AFF3008009
:101DE0004268B2F808C05368012101FA0CF082B2CF
:101DF0001A837047AFF30080AFF30080AFF3008029
:101E000070B4436A046AC66A2468806A1B6840F634
:101E10002035C2F2000546F48066E560616020600E
:101E2000DA6059601E60226842F001012160186882
:101E300040F001021A6070BC704700BFAFF3008031
:101E400070B4436A046A866A24681B68C06AE260E8
:101E500040F6EC2546F48066C2F20005616026601B
:101E6000DD6059601860226842F001012160186845
:101E700040F001021A6070BC704700BFAFF30080F1
:101E80004FF4605CC4F2020CDCF830206FEA52239D
:101E90006FEA4321CCF83010DCF850206FEA52236F
:101EA0006FEA4321CCF8501000230269C4F2020308
:101EB0004FF4806C5A610168196042685A60816809
:101EC0009960C268DA604169196282695A62C16ABE
:101ED000C4F2020C4FF40063CCF81410C269CCF8C1
:101EE0000020016ACCF80410426ACCF80820816A0C
:101EF000CCF80C10026BCCF82020416BCCF82410ED
:101F0000C4F20203826C5A61816B1960C26B5A6021
:101F1000016C9960426CDA60C16C1962026D4FF419
:101F2000406C5A62416EC4F2020C4FF48053CCF8FC
:101F30001410426DCCF80020816DCCF80410C26DF5
:101F4000CCF80820016ECCF80C10826ECCF8202062
:101F5000C16ECCF82410C4F20203D0F880205A617C
:101F6000016F1960426F5A60816F9960C26FDA60C9
:101F7000D0F884101962D0F888204FF4A05C5A621F
:101F8000D0F89C10C4F2020C4FF4C053CCF81410DB
:101F9000D0F88C20CCF80020D0F89010CCF80410A9
:101FA000D0F89420CCF80820D0F89810CCF80C1079
:101FB000D0F8A020CCF82020D0F8A410CCF8241021
:101FC000D0F8B820C4F202034FF4E05C5A61D0F8B4
:101FD000A8101960D0F8AC205A60D0F8B010996001
:101FE000D0F8B420DA60D0F8BC101962D0F8C02064
:101FF000C4F2020C5A62D0F8D410CCF81410D0F805
:10200000C420CCF80020D0F8C830CCF80430D0F888
:10201000CC10CCF80810D0F8D020CCF80C20D0F898
:10202000D830CCF82030D0F8DC104FF40053CCF886
:102030002410D0F8F020C4F202035A61D0F8E01066
:102040001960D0F8E4205A60D0F8E8109960D0F810
:10205000EC20DA60D0F8F4101962D0F8F8205A6257
:10206000704700BFAFF30080AFF30080AFF3008094
:102070002DE9F00F02F00307C2F38006C2F3C10599
:10208000C2F34114C2F3C31200234FF00F094FF003
:10209000010B924632E0D0F8208028EA0C0848EA8A
:1020A0000202026242680BFA03FC22EA0C0848EAC8
:1020B000060242604FF003085A00D0F808C008FA40
:1020C00002F2D24302EA0C0C4CEA050CC0F808C03C
:1020D000D0F80CC002EA0C0C4CEA040CC0F80CC09E
:1020E000D0F800C002EA0C0C4CEA07020260490872
:1020F00019D07600AD00A400BF00013303F0070241
:102100004FEA820C11F0010F0AFA0CF209FA0CFCEA
:10211000EDD0072BBFD9D0F8248028EA0C0C4CEA6C
:1021200002024262BEE7BDE8F00F7047AFF30080E5
:10213000FFF73EBBAFF30080AFF30080AFF300804A
:10214000704700BFAFF30080AFF30080AFF30080B3
:1021500010B500230F4819465C1CE2B2541CC15450
:10216000E3B2802B8154F7D10B480C4900F070FD8D
:1021700009480B4900F06CFD07480A4900F068FD6A
:102180000548094900F064FD03480849BDE81040CE
:1021900000F05EBD240B0020180A00201033000858
:1021A00028330008483300086833000888330008E3
:1021B0002DE9F04F85B08148DFF80CA269468C22EA
:1021C000FEF7EEFC00254CF6CD48A946CCF6CC48EF
:1021D0008C20FEF73DFD420704460AD42307F7D5BD
:1021E0000820FEF7F5FC8C20FEF732FD420704467E
:1021F000F4D501224FF0FF3303A97148FEF7C0FD6B
:102200000420FEF7E5FC9DF80C30082B22D014F0DA
:1022100080060BD04FF44060C4F20200416981F4A3
:10222000804242618020FEF7D3FCD7E7654803A9CE
:1022300001223346FEF744FEB9F1000F15D19DF897
:102240000C600D2E0AF8056034D07F2D44D0013586
:10225000EDB2C3E7013DEDB2FF2D1CD003A9012271
:1022600000235848FEF72CFEB8E7B9F1060F14D04A
:10227000B9F1070F32D0B9F1040F00F0AD80B9F118
:10228000050FABD19DF80C000D280AF8050000F0F1
:10229000FF817F2DDBD10025A0E79DF80CB04A4FD0
:1022A0000AF805B0BBF10D0F00F064817F2DCED18F
:1022B000354693E7444F3B78312B00F04F81322B6A
:1022C00000F0BE81332B00F04782342B00F03A81BE
:1022D000FFF73EFF4D4681E74D467FE79DF80CC076
:1022E000394F0AF805C0BCF10D0FDFD13748384926
:1022F00000F0AEFC06224FF0FF3332483946FEF7BD
:10230000DFFD3B78602B00F25782402B94BFA3F196
:102310003002A3F131029AF801301105602B00F26E
:102320004882402B94BFA3F13002A3F131029AF806
:102330000230602B41EA024100F23882402B94BF08
:10234000A3F13002A3F131029AF80330602B41EA85
:10235000023100F22882402B94BFA3F13002A3F196
:1023600031029AF80430602B41EA022100F218820F
:10237000402B94BFA3F13002A3F131029AF805304B
:10238000602B41EA021240F20782513B43EA02000D
:1023900000F096FB0F4981460C488DF80F90002500
:1023A00000F056FC0DF10F0101224FF0FF330548FC
:1023B000FEF786FDA946FFF7CBFE0FE71C0A0020BB
:1023C000280A0020480A0020240B0020180A0020B8
:1023D0007C340008703400089DF80CE0BEF10D0F4D
:1023E0000AF805E07FF462AF6F1E0121002F06DDC1
:1023F000721C01EB8103D6B25900BE42F8DB002DFE
:1024000000F0E781944B581E1E78C2435AFA87F7B2
:10241000D019A6F1300BA8FB0162D208BB4200F034
:10242000010001FB0BF91ED048B113F8010FA8FB06
:102430000261303802FB0099CA08BB4213D05E78B3
:1024400093F802E0581CA8FB02C3D908303E02FBF7
:102450000699AEF1300C431CA8FB01E6F208BB4222
:1024600001FB0C99EBD14A467C487D4900F0F0FB1A
:102470007A487C4900F0ECFB00202021012200F08A
:102480009FFB764878494A4600F0E2FBB9F1000F1D
:102490004ED04FF0010B4FF0FF336F4973485A464F
:1024A00009EB0307FEF76CFC002371486A495A46A2
:1024B000FEF706FDCB4507EA0B065B465F4637D2C3
:1024C0008EB16C4E69485A4631464FF0FF33FEF7E5
:1024D00057FC022700235A4665483146FEF7F0FCB8
:1024E0004F453B4624D20AEB0306314601224FF00A
:1024F000FF335E48FEF744FC3146012200235C486E
:10250000FEF7DEFC791CCEB20AEB060B012259461F
:102510004FF0FF335548FEF733FC012200235448A7
:102520005946FEF7CDFC721CD7B24F453B46DAD375
:102530004A460020484900F003FA4FF00009FFF72F
:1025400007FE4BE645484C4900F082FB43484B49A7
:102550004D4600F07DFB4FF005093FE63F484849F6
:1025600000F076FB3D4845494D4600F071FB4FF0C9
:10257000060933E63948434900F06AFB4A464FF002
:10258000FF3339463A48FEF79BFC34483E4900F099
:102590005FFBF91D01224FF0FF333548FEF790FC39
:1025A0003B78602B00F2F580402B94BFA3F1300202
:1025B000A3F131029AF801301105602B00F2E68098
:1025C000402B94BFA3F13002A3F131029AF80230FC
:1025D000602B41EA024100F2D680402B94BFA3F168
:1025E0003002A3F131029AF80330602B41EA023144
:1025F00000F2C680402B94BFA3F13002A3F1310258
:102600009AF80430602B41EA022100F2B680402B98
:1026100094BFA3F13002A3F131029AF80530602B88
:1026200041EA021240F2A580513B9AF8071043EAB2
:102630000200002500F03CF9A946FFF789FDCDE531
:102640000648124900F004FB04480C494D4600F0CE
:10265000FFFA4FF00709C1E5240B0020180A0020FB
:102660008834000898340008AC340008280A002098
:10267000480A0020250B00202C340008D033000825
:10268000A83300086034000870340008D433000810
:1026900005F1FF3EBEF1000F40F3958000230121BC
:1026A000013301EB8107DBB279007345F8DB002DC4
:1026B00000F08D80514B5F1E1E78F8435AFA8EFE53
:1026C000A8FB0172303E00EB0E0CD20873450CF0F3
:1026D000010001FB06F61DD048B113F8010FA8FB5D
:1026E0000271303802FB0066CA08734512D05F7869
:1026F000581CA8FB02C19B78C908303F02FB076B3E
:10270000A3F13009A8FB0137431CFA08734501FB0C
:1027100009B6ECD1002319465F1CFAB2501C0AF826
:102720000310C3B2802B0AF80210F5D132463448A8
:10273000344900F08DFA00203246304900F000FAAA
:102740002E49314832464FF0FF33FEF7B9FB4FF0C8
:102750000009FFF7FDFC41E529482C49802200F0E3
:1027600077FA27482A494D4600F072FA4FF00409DB
:1027700034E5402B23D9313B57E7A3F151024CE715
:10278000A3F151023CE7A3F151022CE7A3F151025E
:102790001CE7A3F151020DE7402B12D9313BF5E5BF
:1027A000A3F15102EAE5A3F15102DAE5A3F15102E6
:1027B000CAE5A3F15102BAE5A3F15102ABE5303B02
:1027C00033E7303BE2E50121002D7FF473AF2E4665
:1027D000A0E72A460A480F4900F03AFA0E4908488D
:1027E00000F036FA28462021012200F0E9F90448D9
:1027F0000A492A4600F02CFAA94699E6240B002043
:10280000180A0020D0340008480A0020F0330008DD
:10281000D03300088834000898340008AC3400082D
:1028200008B50848084900F013FA0849054800F0BF
:102830000FFA0220FDF7D4FF0549024800F008FA1C
:10284000F3E700BF180A0020F0340008183500082C
:1028500040350008AFF30080AFF30080AFF3008095
:1028600000B583B000210E488DF80710FEF7B8FCC4
:1028700002AA052302F8023D09480121FEF7D0FC17
:10288000074801210DF10702FEF7E2FC9DF8070061
:10289000C307F5D40248FEF7B3FC03B000BD00BF88
:1028A000F00A0020AFF30080AFF30080AFF30080A8
:1028B00070B540F6F02484B08446C2F20004CCF334
:1028C0000722CCF30346204604AD8DF80EC08DF8E8
:1028D00007108DF80D208DF80C60FEF7D1FCFFF786
:1028E000BFFF062005F8010D2046FEF779FC012107
:1028F0002A462046FEF794FC2046FEF781FC022380
:1029000020468DF80F30FEF76BFC204601212A4649
:10291000FEF786FC032103AA2046FEF781FC204631
:1029200001210DF10702FEF77BFC2046FEF768FC53
:102930002046FEF7ADFC04B070BD00BFAFF30080D1
:102940002DE9F043154683B0C0F580120346002000
:10295000AA428DF807000E46C0F09580012D40F286
:102960009280C3F30349C3F3072154488DF8023022
:102970008DF8011002AF8DF80090FEF781FCFFF793
:102980006FFF4E48FEF72CFC062307F8023D01219D
:102990003A464A48FEF744FC4848FEF731FC4FF0FF
:1029A000AD0946488DF80690FEF71AFC01213A461B
:1029B0004248FEF735FC032140486A46FEF730FCEA
:1029C00002213E483246FEF72BFC3C48FEF718FC3D
:1029D000022D45D0EA1E0224920757D4FFF740FF8C
:1029E00036488DF80690FEF7FBFB012133483A4646
:1029F000FEF716FC631C0221AB4206EB04022F48D3
:102A000004EB010820D0FEF70BFC2C48FEF7F8FB86
:102A1000454508F1020423D9FFF722FF27488DF826
:102A20000690FEF7DDFB012124483A46FEF7F8FB4D
:102A3000022106EB08022148FEF7F2FB1F48FEF7D1
:102A4000DFFBA542CAD80BE00121FEF7E9FB1B48DA
:102A500001210DF10702FEF7E3FB1848FEF7D0FB5A
:102A6000FFF7FEFE1548FEF7BBFB04208DF80600BD
:102A7000012112483A46FEF7D3FB1048FEF7C0FB8F
:102A80000E48FEF705FC03B0BDE8F083FFF7E8FE53
:102A90000A488DF80690FEF7A3FB012107483A4645
:102AA000FEF7BEFBB21C21460448FEF7B9FB042426
:102AB0000248FEF7A5FBA54290D8D1E7F00A002016
:102AC00070B540F6F02482B08446C2F20004CCF324
:102AD0000722C0F3034102AD204600268DF802C054
:102AE0008DF800108DF801208DF80760FEF7C8FB07
:102AF000FFF7B6FE0B2305F8033D2046FEF770FBFB
:102B0000204601212A46FEF78BFB204603216A4618
:102B1000FEF786FB204601210DF10702FEF780FB40
:102B200001210DF106022046FEF792FB2046FEF73A
:102B300067FB2046FEF7ACFB9DF8060002B070BDB7
:102B4000F0B540F6F02483B0C2F200040346C0F3AF
:102B5000034CC3F3072E204602AD174600228DF822
:102B600000C08DF801E00E468DF807208DF8023088
:102B7000FEF786FBFFF774FE0B2305F8023D2046A7
:102B8000FEF72EFB204601212A46FEF749FB0321D2
:102B90006A462046FEF744FB204601210DF107025C
:102BA000FEF73EFB204639463246FEF751FB2046F3
:102BB000FEF726FB2046FEF76BFB03B0F0BD00BF1F
:102BC000F0B5844683B0CCF30727C0F303441D4817
:102BD0008DF806C00D4616468DF804408DF8057038
:102BE00002ACFEF74DFBFFF73BFE1648FEF7F8FA86
:102BF000062304F8013D012122461248FEF710FB8E
:102C00001048FEF7FDFA0F488DF80750FEF7E8FA76
:102C100001210C482246FEF703FB602D04D0094831
:102C2000032101AAFEF7FCFA0648FEF7E9FA012E95
:102C300004D00448FEF72CFB03B0F0BDFFF710FEF4
:102C4000F7E700BFF00A0020AFF30080AFF3008089
:102C50000EB42DE9F04F88B011A90DF111070DF157
:102C6000100B51F8044B00974CF6CD42CBEB070309
:102C7000CCF6CC420546079102930192217861B1CE
:102C8000661C25290ED02A68284614694FF0FF32A9
:102C9000A047344621780029F2D108B0BDE8F04FB2
:102CA00003B0704763782D2B00F0F38100202E2BAA
:102CB00000F0EA814FF02008079F34464FF0000AE9
:102CC00007E03A7804370AEB8A0302EB430A16F866
:102CD000013FA3F13001CAB20134092AF3D92A2BEA
:102CE000EFD000212E2B07974CD06C2B56D04C2BBD
:102CF00054D0A3F14107FAB2192A8CBF0022012255
:102D0000A3F14406342E00F2B781DFE816F0740117
:102D1000B501B501B501B501B501B501B501B50103
:102D2000B501B5016C01B501B501B501B501B5013C
:102D3000BB01B501B5012F01B501B501B501B50163
:102D4000B501B501B501B501B501B501E6007401E4
:102D5000B501B501B501B501B501B501B501B501C3
:102D6000B501B5016C01B501B501B5014F00B50163
:102D7000BB01B501B5012F013A78043701EB810998
:102D800002EB490114F8013BA3F13006F2B2092A23
:102D9000F4D92A2BF0D06C2B0797A8D12278002ADF
:102DA00000F07B81134601340122A9E7079FA84A5E
:102DB0003B1D07933F68002F08BF174647F6FF7873
:102DC0003B78002908BF4146002B00F08281FE437A
:102DD00079187A7801EB060C07F101090CF001066D
:102DE0004B46A2B1894512D02EB113F8012F09F13B
:102DF000010952B90BE05A7809F10109013332B1E6
:102E00005A7809F1010901330AB18945F3D1C7EBB9
:102E10000909C9EB0A014FF0200821EAE17A0028EC
:102E20006CD0B9F1000F30DD3E462A6816F8011B60
:102E30001369B944FF4309EB070E28464FF0FF32F0
:102E40000EF0010798474E451FD04FB12A6816F87B
:102E5000011B136928464FF0FF3298474E4514D0A6
:102E6000274634462A6814F8011B136928464FF098
:102E7000FF329847286871784FF0FF32661C04696A
:102E80002846A0474E45ECD13C46BAF1000F3FF42E
:102E9000F5AE2E680AF1FF3C336928466646414686
:102EA0004FF0FF320CF001079847002E3FF4E6AEDA
:102EB0000FB12B6808E02868414603694FF0FF32E4
:102EC000284698472B68013E1B69284641464FF02B
:102ED000FF329847013EEED1D0E6079BDDF808901F
:102EE0001A68191D07918DF810204FF020085F46D1
:102EF000C9EB0A0121EAE17A002892D1CAF1000A5D
:102F0000BAF1000F8DD039782D2900F0D4802868CF
:102F10006FEA0A01036901F00106284641464FF0B5
:102F2000FF3298471AF1010A3FF47BAF56B12B6884
:102F300028461B6941464FF0FF3298471AF1010AB3
:102F40003FF46FAF2868414603694FF0FF322846CF
:102F500098472B680AF1010A1B69284641464FF041
:102F6000FF3298471AF1010AECD15AE71027079B64
:102F7000002A3CD01E1D1A6807960DF11A06B2FBF6
:102F8000F7F907FB192303F1300CBCF1390FC8BF67
:102F900003F1370C5FFA8CF34A46314606F80139E3
:102FA000002AECD10DF11B06C1EB06096FEA0B02FA
:102FB0000BEB090C0CEB0207FA075E460BD58BF8FE
:102FC00000300DF1110611F8013F04E04B787370E9
:102FD0007B780231561C32464F1C02F8013B624599
:102FE000F4D15F4684E70827079B002AC2D1191D48
:102FF0001A680791C1E7079B002A50D11A681F1D64
:10300000002A079750DBDC460CF10B07DDF8049033
:103010003E46A9FB0231C90801EB8103A2EB430242
:103020003032013ED3B233700A460029F1D1B91BC8
:103030000CEB01096FEA0C0209EB0207FF07039191
:1030400061460CD5614601F8013B16F8013F06E0E8
:103050006035000873784B707B780236511C0A4645
:10306000771C02F8013B4A45F4D1039A0CEB0207A6
:10307000CBEB07095F463BE78DF81030DDF8089091
:103080005F4635E70A2772E773784FF0300801365C
:1030900012E6A61CA378012009E6012230E61A6890
:1030A000191D002A0791AEDA2D238DF810305242F7
:1030B0000DF1110CA8E7B8F1300F7FF428AF2A68A2
:1030C000284616694FF0FF32B047013709F1FF3942
:1030D0001DE799464FF020080AE700BFAFF30080D4
:1030E00069646C6500000000000000000000000042
:1030F0006D61696E00160311040448080C10141861
:10310000001C1D1E00200000000000000000000048
:10311000B11000089110000841100008511000087B
:10312000D1100008C1100008A1100008811000088B
:103130006110000800000000000000000000000016
:10314000106002400860024000000B00286002404E
:103150000860024006010C00406002400860024026
:1031600010020D00586002400860024016030E0075
:10317000706002400C60024000040F008860024052
:103180000C60024006051000A06002400C60024086
:1031900010061100B86002400C60024016072F00B4
:1031A00010640240086402400008380028640240AD
:1031B0000864024006093900406402400864024085
:1031C000100A3A005864024008640240160B3B00A3
:1031D000706402400C640240000C3C0088640240B1
:1031E0000C640240060D4400A06402400C640240DE
:1031F000100E4500B86402400C640240160F4600F1
:10320000004B000000000040000000000000000033
:1032100000AAA02A00000000FFFFFFFF5400016485
:10322000FFFFFFFF0000565500AA0A00802008009B
:1032300040020000FFFFFFFF15455155FFFFFFFF54
:103240000000000440000000018020020000000097
:10325000FFFFFFFF54154554FFFFFFFF0000006014
:10326000000606000001005500000000FFFFFFFF00
:1032700055505500CF0F0000000000000000000076
:103280004000000000000000FFFFFFFF10555555F3
:10329000FFFFFFFF00000000000000000000000032
:1032A00000000000FFFFFFFF55555555FFFFFFFFD2
:1032B000000000000000000000000000000000000E
:1032C000FFFFFFFF55555555FFFFFFFF00000000B2
:1032D000000000000000000000000000FFFFFFFFF2
:1032E00050555555FFFFFFFF000000000000000093
:1032F0000000000000000000FFFFFFFF555555557E
:10330000FFFFFFFF000000000000000000000000C1
:103310000D0A446576656C6F706D656E74204D6541
:103320006E750D0A0000000028312920577269745B
:1033300065204279746520746F2053504920466C93
:103340006173680D0A00000028322920526561640B
:1033500020427974652066726F6D20535049204673
:103360006C6173680D0A0000283329205772697454
:103370006520427974657320746F2053504920464C
:103380006C6173680D0A000028342920526561645D
:103390002042797465732066726F6D205350492006
:1033A000466C6173680D0A000D0A3C48657820413F
:1033B0006464726573733E203C486578204279747A
:1033C000653E3A20303031303046205A0D0A000038
:1033D000203A3E000D0A3C486578204164647265DD
:1033E00073733E3A203030313030460D0A00000011
:1033F0000D0A53746172746E6720617420307830E6
:1034000030303030302C20656E746572206E756DF2
:10341000626572206F6620627974657320286D6121
:1034200078202564293A0D0A000000000D0A526533
:103430006164696E672066726F6D2030783030305D
:103440003030302C20656E746572206E756D62654B
:1034500072206F662062797465733A0D0A0000006D
:103460000D0A44657374696E6174696F6E3A200069
:103470000D0A446174613A20000000000D0A546195
:10348000726765743A2000000D0A4E756D2042790E
:103490007465733A202564000D0A45726173696E84
:1034A0006720466C6173680D0A0000000D0A4572C2
:1034B0006173696E6720446F6E652C205472616E73
:1034C000736665722025642062797465730D0A0045
:1034D0000D0A4E756D2042797465733A2025640D8E
:1034E0000A000000000000000000000000000000D2
:1034F000284354292043616D65726120636F6E66B5
:1035000069677572656420616E6420706F7765729B
:1035100064206F6666000000284354292054696DBA
:103520006520666F722043616D6572612054687218
:1035300065616420746F20536C6565700000000045
:10354000284354292043616D657261205468726577
:103550006164206861732061776F6B656E000000A5
:10356000286E756C6C29000000000000000000004F
:10357000496E73696465206D61696E2829207468DD
:08358000726561640D0A000090
:04000005080001905E
:00000001FF
