:020000040800F2
:100000000004002021030008410400084104000806
:1000100041040008410400084104000841040008AC
:10002000410400084104000841040008710400086C
:10003000410400084104000841040008510500087B
:10004000410400084104000841040008410400087C
:10005000410400084104000841040008410400086C
:10006000410400084104000841040008511100083F
:1000700081110008B1110008E111000811120008F7
:100080004112000871120008011A0008410400081A
:10009000410400084104000841040008410400082C
:1000A000410400084104000841040008410400081C
:1000B0004104000841040008711B000841040008C5
:1000C00041040008410400084104000841040008FC
:1000D0004104000841040008811D00084104000893
:1000E00041040008410400084104000841040008DC
:1000F000410400084104000841040008A11200085E
:1001000041040008410400084104000841040008BB
:1001100041040008410400084104000841040008AB
:10012000D112000801130008311300086113000800
:10013000911300084104000841040008410400082C
:10014000410400084104000841040008410400087B
:10015000C1130008F113000821140008410400082D
:10016000410400084104000841040008410400085B
:10017000410400084104000841040008410400084B
:080180004104000841040008DD
:1001900030B583B000F044FE00F04AFA00214A482E
:1001A00000F02EFF00200421C4F2020040F282324F
:1001B00002F02EF94FF480640020C4F2020440F2F1
:1001C00082320821C4F2020002F022F94FF4805575
:1001D0003E483F4900F05CFF19222046294625830E
:1001E00002F016F920464FF4005140F29A2202F034
:1001F0000FF920464FF4804140F2822202F008F9C4
:1002000040F29A2220464FF4004102F001F9002109
:10021000304800F035FE01F09BFC4FF400600322F3
:100220000221C4F2020002F0F3F82B482B4900F03F
:1002300057FE4FF44060C4F2020029464FF4817229
:1002400002F0E6F84FF440600024C4F202004FF4DC
:1002500000414FF4817202F0DBF8214B0094402200
:100260004FF498711F4800F0BBFB1F481F4900F076
:100270000FFF202143221C4802F062F91A48212175
:10028000224602F05DF918482221224602F058F970
:100290002921154802F034F92B210546124802F0B5
:1002A0002FF92D210446104802F02AF940B200909F
:1002B0000F4905486AB263B202F092F94FF4FA703E
:1002C00000F0A6FBE4E700BFC40A00206C0B00208E
:1002D000302C0008140A0020B00A0020000800207A
:1002E000C1280008A80B00203C0B0020202C00088F
:1002F000482C0008AFF30080AFF30080AFF300801C
:10030000704700BFAFF30080AFF30080AFF3008011
:10031000FEE700BFAFF30080AFF30080AFF30080D3
:1003200072B6374880F30988022383F31488BFF339
:100330006F8F344A344B9A420BD2D143C91821F003
:100340000301131F89184FF0553243F8042F8B42D5
:10035000FBD12E4A82420CD22D49131DC91A21F01D
:100360000301131F89184FF0553243F8042F8B42B5
:10037000FBD102F0B5F82749274B99420BD2C8436D
:10038000C01820F00300254C043000231A595A509D
:1003900004338342FAD1224A224B9A420AD2D143F1
:1003A000C91821F00301131F8918002243F8042FF4
:1003B0008B42FBD1FFF7A4FF1B4D1C4B9D420BD280
:1003C000EE43F618B608043D0136002455F8043F04
:1003D00001349847B442F9D1FFF7DAFE144D154BBA
:1003E0009D420BD2EE43F618B608043D01360024B8
:1003F00055F8043F01349847B442F9D1FFF788FF1C
:10040000000800200000002000040020000400205C
:10041000030800200008002030080020902C00086D
:1004200030080020E80C002088010008880100083E
:100430008801000888010008AFF30080AFF3008056
:10044000FEE700BFAFF30080AFF30080AFF30080A2
:1004500072B6FEE7AFF30080AFF30080AFF3008029
:1004600000F03EFA00DF00BFAFF30080AFF3008082
:10047000EFF30983203383F30988002383F3118882
:10048000704700BFAFF30080AFF30080AFF3008090
:1004900008B54FF46D43CEF200030022C0F2FA52C9
:1004A0000021996007201021DA6000F099F80A20F5
:1004B0004FF4007100F094F80B208021BDE8084053
:1004C00000F08EB8AFF30080AFF30080AFF3008090
:1004D000202383F311884FF46D43CEF200035B6851
:1004E00013F4006319D0EFF30983A3F1200282F320
:1004F0000988124A91694FF0807043F8040C79B171
:100500001168D26989689268914294BF00220122E1
:1005100082B10B4A43F8082C704783F31188704767
:100520001168D26989689268914234BF0022012221
:10053000002AEED1034A43F8082C704748090020EE
:100540006104000864040008AFF30080AFF300808A
:1005500008B5202383F3118800F0A2F8002383F369
:100560001188BDE80840FFF7B3BF00BFAFF30080BC
:100570002DE9F04FC1F80CD0D0F80CD0BDE8F08FC9
:10058000002383F311882846A04700F071FA7047D2
:10059000F0B44FF461438408CEF20003C03400F09D
:1005A000030553F82470ED00FF26420906FA05F60C
:1005B00027EA060601FA05F500F01F0002F16007C0
:1005C000012101FA00F02E4343F8246043F827008C
:1005D00043F82200F0BC7047AFF30080AFF3008017
:1005E00082084FF46D43CEF20003063200F00300A0
:1005F00030B4C00053F82250FF2404FA00F425EA76
:10060000040401FA00F10C4343F8224030BC704767
:10061000024B034ADB699A61FEE700BF48090020EC
:10062000E0290008AFF30080AFF30080AFF3008053
:1006300000B583B0FFF72CFF00F0CAF800F058F8BF
:1006400000F0A6FB00F0DCFB40F630004021C2F2D7
:10065000000000F065F940F64811C2F200010122E5
:10066000C8610277002383F3118862B642F6F01066
:10067000C969C0F600008861009340F6780040F236
:100680001163C021C0F60003C2F2000000F0A8F917
:1006900003B000BDAFF30080AFF30080AFF3008084
:1006A00038B5104B9A69002A01DD013A9A61DA697E
:1006B0000D4C116A236801311162E2680132A342D4
:1006C000E2600ED09D68013D9D6055B91A68D968F9
:1006D0001869DD6054602260884723689A68002AA0
:1006E000F4D038BD4809002038090020AFF300805D
:1006F00040F63813C2F200034FF0FF329A60002236
:100700005B601B60DA607047AFF30080AFF300807E
:1007100070B40D4E03613468C260A568A94204D963
:100720002468491BA5688D42FAD363688160B4428E
:1007300043600460186018BFA36860601CBFC1EB11
:100740000301A16070BC704738090020AFF300803E
:100750000368074A93421FBF996882688A189A60A3
:100760004268136003685A600023C360704700BF8B
:1007700038090020AFF30080AFF30080AFF30080B2
:10078000037F0D2B11D8DFE803F020101007100BAA
:10079000101010101010100B436A9A6801329A6002
:1007A00090E80C001A60026853604FF0FF3242621A
:1007B0008168064B002202771B689A688A42FBD246
:1007C0005A68036042601060586070474809002012
:1007D00040F64813C2F2000300229A6014225B60C4
:1007E0001B609A615B611B61704700BFAFF30080C3
:1007F00000228168054B02771B689A688A42FBD207
:100800005A680360426010605860704748090020D1
:1008100040F64813C2F2000330B41A68D96914686C
:100820000877142098610125104663601C60DA6126
:10083000157730BCFFF79CBEAFF30080AFF30080AC
:1008400030B54B1C87B0054611D00B4C0B4AE36901
:1008500001A8FFF75DFF2846FFF7DAFF049B13B1FD
:1008600001A8FFF775FFE369586A07B030BDFFF7CD
:10087000CFFF014CF7E700BF4809002081070008BF
:10088000F0B4154F8568FE690446B06861620023C4
:1008900085420CD823773B461B689A689542FBD962
:1008A0005A682360626014605C60F0BC7047337704
:1008B0003B461B689A689042FBD95A683360726065
:1008C0005E60012316602046FC61314623771423C5
:1008D000BB61F0BCFFF74CBE48090020AFF30080BD
:1008E0000E4A1068D16930B405688C68156014230D
:1008F00093616A60D06101220277002203460A7781
:1009000000E01B689A68A242FBD25A680B604A60FA
:100910001160596030BCFFF72BBE00BF48090020B2
:10092000F0B440F64814C2F2000400226569016484
:1009300000F12C06816000F128074FF0020C012124
:100940000461456180F81CC060614277C2638263C4
:10095000026281778261286187620663C662F0BCA9
:10096000704700BFAFF30080AFF30080AFF30080AB
:100970002DE9F00340F64815C2F20005A1F1240C60
:1009800000EB0C076969C76040F80C30069B7B6080
:1009900040F28153C0F600033B62022300269046DA
:1009A00000F1280900F12C02037701230561C0F84A
:1009B00008804161044668614677C0F84080C6639C
:1009C00086630662837786610861C0F828900263B7
:1009D000C262BDE8F0037047AFF30080AFF3008060
:1009E00010B51C4682B0202383F311882346049C53
:1009F0000094FFF7BDFF00210446FFF741FF0023ED
:100A000083F31188204602B010BD00BFAFF3008011
:100A100008B50146202383F311880620FFF710FF55
:100A2000002383F3118808BDAFF30080AFF300808B
:100A300038B50E4BDC692546606255F8280FA84290
:100A400006D00368A362FFF7D3FEA06AA842F8D1DC
:100A5000637F9B0704D1636922691A61226953612C
:100A60000E20BDE83840FFF7D3BE00BF4809002084
:100A7000202383F31188FFF7DBBF00BFAFF30080B3
:100A80000023406000608360704700BFAFF30080C8
:100A900008B5826B037F1143082B81630BD0092BB0
:100AA00000D008BD436A19408B42FAD1FFF7A0FE7F
:100AB0000023436208BD436A1942F7D108BD00BF55
:100AC00070B50468A04205460E4607D0A16860686C
:100AD0003143FFF7DDFF2468A542F7D170BD00BFA9
:100AE00010B4024659B1084BDB69586244680D20C6
:100AF00083E814005360236010BCFFF7A1BE4FF0E1
:100B0000FF3010BC704700BF48090020AFF30080E1
:100B100010B48A18002440600060846041618161E3
:100B2000C1600261C36110BC704700BFAFF30080B9
:100B3000426908B5034680698242986818D001303E
:100B4000986002F8011B19695A618A4228BFDA6865
:100B5000186828BF5A61984208D002681A6053602A
:100B6000FFF746FE00234362184608BD002008BD7B
:100B70000028E4D06FF0030008BD00BFAFF3008091
:100B800070B5202304460E4683F31188C36903B170
:100B90009847A568204631463DB9FFF7A1FF0028D8
:100BA000F7DA2B4683F3118870BDA3692269013DF2
:100BB000A56013F8010B9342A36124BFE368A3610E
:100BC000002383F3118870BDAFF30080AFF3008082
:100BD0002DE9F0471E460446C769202383F3118898
:100BE0004FF0000801F1010901EB020A0FB12046A4
:100BF000B847A568204631464DB9FFF771FF002878
:100C0000F7D02B4683F311884046BDE8F087A369EF
:100C1000013DA56013F8012B09F8012C2269A3619D
:100C2000934224BFE368A361002383F31188D14575
:100C300008F10108E8D0202383F3118809F10109A4
:100C4000D4E700BFAFF30080AFF30080AFF30080C4
:100C500010B48C1840600060826041618161C160A5
:100C60000461C36110BC7047AFF30080AFF3008034
:100C7000F8B504460F461646202383F31188A5686D
:100C8000204631463DB9FFF72BFF0028F7DA2B4607
:100C900083F31188F8BD6369013DA56003F8017B0A
:100CA00022696361934224BFE3686361E3690BB126
:100CB00020469847002383F311881846F8BD00BFEB
:100CC00041698269914210B50346816816D00131AD
:100CD000996012F8014B19699A618A4228BFDA6853
:100CE000186828BF9A61984206D002681A6053605B
:100CF000FFF77EFD00234362204610BD0029E6D0A9
:100D00006FF0020010BD00BFAFF30080AFF30080B2
:100D10002DE9F0479A46044688461646D0F81C90BE
:100D2000202383F311880027A56820466B1EEDB1B0
:100D3000A36018F8013B656905F8013B236965610B
:100D40009D4224BFE3686361B9F1000F00D0C8473A
:100D5000002383F311880137013E10D0202383F351
:100D60001188A56820466B1E002DE1D12046514612
:100D7000FFF7B6FE0028D7D02B4683F311883846FC
:100D8000BDE8F087AFF30080AFF30080AFF30080E1
:100D900040F66C1240F668134CF200010648C2F2AD
:100DA0000002C2F20003C2F2010120F0070021F0AC
:100DB0000701106019607047EF0C0020AFF300804E
:100DC000202383F31188094B09491A680968073001
:100DD00020F00700891A88429ABF10181860002274
:100DE000002383F311881046704700BF6C09002070
:100DF00068090020AFF30080AFF30080AFF30080FC
:100E000040F67013C2F2000340F6C1510022C0F652
:100E1000000103F1100019609A60DA60FFF730BE3C
:100E200008B500F095FB42F61030C0F6000001F066
:100E300017FA00F00DF800F043F800F0B1F800F0F8
:100E400017F9BDE8084001F053BB00BFAFF30080C5
:100E500000F056BCAFF30080AFF30080AFF300802A
:100E600000230122027043608360C3600361436119
:100E70001830FFF705BE00BFAFF30080AFF300806E
:100E800010B52023044683F31188416000F080FCF4
:100E900002232370002383F3118810BDAFF3008079
:100EA00010B4C3600446032382600161037010BC68
:100EB00000F0D6BCAFF30080AFF30080AFF300804A
:100EC00000F096BEAFF30080AFF30080AFF3008078
:100ED0000123037000234360704700BFAFF300801D
:100EE00010B52023044683F311888B884160038169
:100EF00000F08EFE02232370002383F3118810BDBF
:100F0000806BD0F1010038BF00207047AFF3008044
:100F10008069D0F1010038BF00207047AFF3008036
:100F20000246202383F3118800238068936083F3B3
:100F300011887047AFF30080AFF30080AFF30080FB
:100F40001030FFF745BE00BFAFF30080AFF3008065
:100F500010304FF0FF33FFF73BBE00BFAFF3008010
:100F60003030FFF7D5BE00BFAFF30080AFF3008095
:100F700030304FF0FF33FFF7CBBE00BFAFF3008040
:100F80001030FFF7FDBD00BFAFF30080AFF300806E
:100F90003030FFF76DBE00BFAFF30080AFF30080CD
:100FA00000F09EBFAFF30080AFF30080AFF300808E
:100FB00070B542F610230546C0F60003044645F816
:100FC000043B65600025A56001250B46164604F12B
:100FD0005001102200F110002573FFF799FD04F174
:100FE000300004F1600110223346BDE87040FFF785
:100FF0002FBE00BFAFF30080AFF30080AFF30080DF
:1010000010B52023044683F3118800F081FF0223EA
:101010002373002383F3118810BD00BFAFF300805A
:1010200038B50D468169044639B104F110002946EE
:10103000FFF77EFD00280EDB38BD826842F0040217
:1010400082600430FFF73CFD04F110002946FFF7F1
:101050006FFD0028F0DAA368201D43F08003002113
:10106000A360BDE83840FFF72BBD00BFAFF30080A1
:1010700000F0E6BFAFF30080AFF30080AFF3008075
:10108000002301220270436083600C30FFF7F8BC3C
:1010900010B52023044683F31188416001F010F855
:1010A00002232370002383F3118810BDAFF3008067
:1010B00008B5202383F3118801F072F8002383F32D
:1010C000118808BDAFF30080AFF30080AFF300805C
:1010D00008B5202383F3118801F072F8002383F30D
:1010E000118808BDAFF30080AFF30080AFF300803C
:1010F00038B51D460446202383F311882B4603256B
:10110000057001F06DF840F64813C2F200030220AA
:10111000DB69A360FFF77CFB002383F3118838BDF4
:1011200010B52023044683F311880323037001F0D4
:1011300077F840F64813C2F200030220DB69A3608F
:10114000FFF766FB002383F3118810BDAFF3008027
:101150004FF4C043C4F2020307481968026810B58F
:101160003D2401F03D019C600AB140689047BDE814
:101170001040FFF7ADB900BF90090020AFF3008029
:101180004FF4C043C4F2020308481968826810B5DE
:1011900089094FF4746401F03D019C600AB1C06894
:1011A0009047BDE81040FFF793B900BF90090020B9
:1011B0004FF4C043C4F2020308481968026910B52D
:1011C000090C4FF4741401F03D019C600AB14069B0
:1011D0009047BDE81040FFF77BB900BF90090020A1
:1011E0004FF4C043C4F2020308481968826910B57D
:1011F000890D4FF0746401F03D019C600AB1C06933
:101200009047BDE81040FFF763B900BF9009002088
:101210004FF4C043C4F2020307485968026A10B58C
:101220003D2401F03D01DC600AB1406A9047BDE811
:101230001040FFF74DB900BF90090020AFF30080C8
:101240004FF4C043C4F2020308485968826A10B5DB
:1012500089094FF4746401F03D01DC600AB1C06A91
:101260009047BDE81040FFF733B900BF9009002058
:101270004FF4C043C4F2020308485968026B10B52A
:10128000090C4FF4741401F03D01DC600AB1406BAD
:101290009047BDE81040FFF71BB900BF9009002040
:1012A0004FF4C043C4F2020308485968826B10B57A
:1012B000890D4FF0746401F03D01DC600AB1C06B30
:1012C0009047BDE81040FFF703B900BF9009002028
:1012D0004FF4C843C4F2020307481968026C10B502
:1012E0003D2401F03D019C600AB1406C9047BDE88F
:1012F0001040FFF7EDB800BF90090020AFF3008069
:101300004FF4C843C4F2020308481968826C10B550
:1013100089094FF4746401F03D019C600AB1C06C0E
:101320009047BDE81040FFF7D3B800BF90090020F8
:101330004FF4C843C4F2020308481968026D10B59F
:10134000090C4FF4741401F03D019C600AB1406D2A
:101350009047BDE81040FFF7BBB800BF90090020E0
:101360004FF4C843C4F2020308481968826D10B5EF
:10137000890D4FF0746401F03D019C600AB1C06DAD
:101380009047BDE81040FFF7A3B800BF90090020C8
:101390004FF4C843C4F2020307485968026E10B5FF
:1013A0003D2401F03D01DC600AB1406E9047BDE88C
:1013B0001040FFF78DB800BF90090020AFF3008008
:1013C0004FF4C843C4F2020308485968826E10B54E
:1013D00089094FF4746401F03D01DC600AB1C06E0C
:1013E0009047BDE81040FFF773B800BF9009002098
:1013F0004FF4C843C4F2020308485968026F10B59D
:10140000090C4FF4741401F03D01DC600AB1406F27
:101410009047BDE81040FFF75BB800BF900900207F
:101420004FF4C843C4F2020308485968826F10B5EC
:10143000890D4FF0746401F03D01DC600AB1C06FAA
:101440009047BDE81040FFF743B800BF9009002067
:101450000F4B30B400220F4D0F4C1A60114613464B
:10146000E8580C330160A1500832C02BF8D14FF47A
:10147000C0414FF4C842C4F20201C4F202024FF06C
:10148000FF338B60CB609360D36030BC704700BF8C
:10149000100A0020402A000890090020AFF30080C5
:1014A0002DE9F041254E447A3768012505FA04FC00
:1014B0001CEA070F3BD1224D4CEA070705EBC40895
:1014C00017F0FF0FC8F804301CBF4FF46053C4F28C
:1014D0000203376045F834201EBF1C6B44F400142F
:1014E0001C6317F47F4F1FBF4FF46053C4F2020315
:1014F0001C6B44F4800418BF1C630468236823F049
:1015000001032360236813F00105FBD1067A4368C9
:101510003D2707FA06F61E602123256063614AB164
:10152000807A0901FFF734F82846BDE8F0812846A3
:10153000BDE8F0811046BDE8F08100BF100A002030
:1015400090090020AFF30080AFF30080AFF300807C
:101550004FF46053C4F202030022196941F0010103
:1015600030B419611A61596941F0010159615A6138
:10157000996941F0010199619A61196A19621A62C7
:101580005D6A4EF21001CEF2000149F23F04C0F252
:1015900002044EF6F05045F001055D62CEF2000007
:1015A0005A624C6007248A600C60C4684FF4805112
:1015B000CEF2000144F08074C460086840F001007D
:1015C0000860186C4FF4E041C4F2000140F0805014
:1015D0001864086840F480700860196F01F4407165
:1015E000B1F5007F1EBF4FF4803119671A674FF4C1
:1015F0006053C4F202031A6F120407D41A6F42F444
:1016000000721A671A6F42F400421A6730BCFFF783
:101610001FBF00BFAFF30080AFF30080AFF30080C7
:101620004FF46052C4F202024FF4E043C4F20003EC
:101630004FF0805111644FF480411A46196053688D
:101640005904FCD54FF46053C4F2020319461A68DA
:1016500042F001021A600A684FF460539207C4F224
:101660000203F8D51A6842F480321A6019460A68F3
:101670004FF460539003C4F20203F8D55A6F42F05E
:1016800001025A6719464A6F4FF460539207C4F239
:101690000203F8D545F20842C0F240725A601A6857
:1016A00042F080721A6019460A684FF46053900144
:1016B000C4F20203F8D598684FF414424FF4705105
:1016C000C3F608020243C4F202019A6040F20572B6
:1016D0000A609A6842F002029A60996801F00C016F
:1016E0004FF460520829C4F20202F6D1536C43F45D
:1016F00080435364536E43F480435366704700BF86
:10170000F8B540F61426C2F20006304640F64825E9
:10171000FFF7A6FBC2F200051A4F4FF4005242F643
:101720001643C4F20102C0F20203284640F67C24AC
:10173000C2F20004B262F7623363FFF791FB4FF429
:10174000045242F61643A7F11801C4F20102C0F296
:1017500002232046AA62E9622B63FFF781FB4FF464
:10176000085242F61643C4F20102243FC0F202437B
:1017700012205021A262E7622363BDE8F840FEF721
:1017800007BF00BFD02A0008AFF30080AFF300808E
:101790000378012B10B5044600D010BD2C4B9842A5
:1017A00013D02C4B984226D02B4B984239D04FF473
:1017B0000C51A36AC4F2010100224FF4803048604A
:1017C0005A609A6001229A6010BD244AC06A0521BD
:1017D0002346FFF765FEE36A42F24C0219684FF4B4
:1017E0006053C4F20203C4F201028A605A6C42F4EC
:1017F00080725A64DBE7194AC06A05212346FFF765
:101800004FFEE36A42F24C1219684FF46053C4F27F
:101810000203C4F201028A605A6C42F400725A64F4
:10182000C5E70E4AC06A05212346FFF739FEE36A81
:1018300042F24C2219684FF46053C4F20203C4F21E
:1018400001028A605A6C42F480625A64AFE700BFBA
:10185000140A0020480A00207C0A00201119000800
:101860000369026B19682DE9F00709B142F480722F
:10187000C468C16A9E8809688568D3F81090D3F857
:1018800014A0CD60012C88BF42F0080204FB06F4CE
:101890004C600A60D1F80080826AD3F818C0DF6912
:1018A0001E6A5D6A9C6A49F080604AF4407348F0A1
:1018B0000108C1F8008040F4807043F00303002168
:1018C0001160C2F80CC01761D66215635463506092
:1018D0009360BDE8F0077047AFF30080AFF300807E
:1018E000C16A0A68136823F0010310B41360136817
:1018F00013F00103FBD10C7A826A49683D2000FA9B
:1019000004F00860536093600123936010BC70473B
:1019100011F00C0F38B50D46044620D10369002B99
:101920003DD0CA0605D59B681BB1C26881685208C4
:101930009847AB0633D523691A68002A34D09D68CE
:10194000002D2CD0E268012A2AD99988A368520870
:1019500001FB02F1204603EB4101A84738BDFFF728
:10196000BFFF2369DB684BB10522002122702046AE
:1019700098472378052B01D102232370002222618E
:10198000202383F31188636933B162614FF0FF3222
:1019900018465A62FEF72CFF002383F3118838BDE6
:1019A0002046A168A84738BD2046FFF799FF216966
:1019B0008B68F3B1E2680420012A20701CD98D885D
:1019C000A168520805FB02F5204601EB4501984746
:1019D0002378042B0DD000222261202383F3118869
:1019E0006369002BD8D0626118465A62FEF700FF87
:1019F000D2E702232370EEE72046A1689847E7E785
:101A00004FF40053C4F2010300211A6810B51960A5
:101A1000930605D54B4CE36A1B685B68002B64D1C9
:101A20004FF40453C4F2010300211A6819609006B0
:101A300005D5454CE36A1B685B68002B32D14FF437
:101A40000853C4F2010300211A681960910625D5D4
:101A50003E4CE36A1B685B6803B32369F3B120461D
:101A6000FFF73EFF2369DB683BB1052201212270AD
:101A7000204698472378052B5AD000222261202344
:101A800083F31188606930B14FF0FF3343622F4B0D
:101A90005A61FEF7ADFE002383F31188BDE81040C4
:101AA000FEF716BD2369002BC9D02046FFF718FFAB
:101AB0002369DB683BB1052201212270204698474B
:101AC0002378052B3AD000222261202383F311884A
:101AD000606930B14FF0FF3343621B4B5A61FEF730
:101AE00087FE002383F31188A9E72369002B97D091
:101AF0002046FFF7F5FE2369DB683BB10522012193
:101B00002270204698472378052B14D000222261AA
:101B1000202383F31188606930B14FF0FF334362B3
:101B2000084B5A61FEF764FE002383F3118877E7C0
:101B300002232370A1E702232370E7E70223237027
:101B4000C1E700BF140A0020480A00207C0A0020D8
:101B50004FF40C53C4F201035A6842F400025A6075
:101B6000704700BFAFF30080AFF30080AFF3008099
:101B700038B51C4D2B691A8A9C89A4B2144004F014
:101B800002024FF6E07192B21982002A24D104F0C9
:101B900004039BB2DBB904F008039BB293B904F0D1
:101BA00010039BB24BB9E30703D56B680D489B68E4
:101BB0009847BDE83840FEF78BBC6B6809489B6AC4
:101BC0009847F0E76B6807481B6A9847E7E76B6838
:101BD00004489B699847DEE76B6828461B6998476D
:101BE000D5E700BFB00A0020AFF30080AFF300805C
:101BF00010B540F6B024C2F200042046FFF768F9A1
:101C00004FF40063C4F20003236110BDAFF3008002
:101C10000378012B70B504465FD0036900221A8057
:101C20009A811A825A639A63DA631A645A62616803
:101C3000E66808682589CA688C8DB6FBF0F0013823
:101C4000013D02F00F0280B2ADB2012A1885DD62BB
:101C50009C8003D0022A0CBF03220022486900F0B6
:101C60000F0001281ED002281AD0C86900F00F000A
:101C700001281ED002282BD0486A00F00F0001284E
:101C80001ED002281FD089681A840A1C18BF01229E
:101C9000012199829A8100221A8285221A8070BDC0
:101CA00042F02002C86900F00F00012842F0100243
:101CB000E0D142F48072486A00F00F000128E0D1C0
:101CC00042F48052DFE742F4005242F48052DAE7F5
:101CD00042F4007242F48072EDE7104B984205D056
:101CE000236946F668021A839A83A0E74FF460538B
:101CF000C4F202031E201A6C42F004021A641A6A2B
:101D000042F004021A6200221A627021FEF740FCBF
:101D10004FF43D43C0F20153E360E1E7B00A002015
:101D200010B44468036904EBC10001F10C0403EB37
:101D300084040069626060B19A89022092B200FA5C
:101D400001F1114205D189B2C84380B21143998192
:101D5000188210BC704700BFAFF30080AFF3008063
:101D60004FF48843C4F200039A8992B242F0800291
:101D70009A817047AFF30080AFF30080AFF300802B
:101D80002DE9F041534E356FAF892C88A988A4B254
:101D90002207BFB21FFA81F853D104F480739BB2BB
:101DA000002B39D104F020039BB2002B28D107F07F
:101DB00080039BB223B104F080039BB2002B65D15A
:101DC00004F04004A4B2BCB1202383F31188B368AB
:101DD000414843F010030021B360FEF771FE002379
:101DE00083F311884FF6BF733B40AB812B8823F000
:101DF00040031B041B0C2B80BDE8F041FEF768BBC1
:101E0000202383F3118833485FFA88F1FFF708F93C
:101E1000002383F31188CAE7202383F31188B36872
:101E20002D4843F400730021B360FEF749FE002300
:101E300083F311882B8823F480731B041B0C2B80E5
:101E4000B0E704F0080292B2002A14BF80220022F8
:101E5000E30704F002039BB248BF42F020020BB13B
:101E600042F0400204F004039BB20BB142F48072D2
:101E7000202383F31188B36817481A430021B26006
:101E8000FEF71EFE002383F3118886E7202383F3E9
:101E90001188DFF8408008F13000FEF711FF0028BC
:101EA000A4BF80B2A88003DB002383F3118887E7F7
:101EB000D8F8083008F1040043F008030021C8F8FE
:101EC0000830FEF7FDFD27F0C00343F04003AB816F
:101ED000EAE700BFC40A0020C80A0020AFF3008070
:101EE00010B540F6C424C2F2000441F66152204607
:101EF0000021C0F60002FFF75BF84FF48843C4F2FC
:101F00000003236710BD00BFAFF30080AFF3008074
:101F100038B5037B234C002918BF0C46012B05461E
:101F200030D02B6F4FF4A0514FF48052C4F2010215
:101F3000C4F20101934218BF8B4208BF4FF43D42E7
:101F4000216816BF4DF68062C0F20152C0F28022B5
:101F5000B2FBF1F292B21A81A288E088218942F4A0
:101F6000045240F0400041F0010142F02C0292B2D4
:101F700080B289B2188299829A8100221A801A88C6
:101F80009B8838BD084B9842CBD14FF46053C4F2C4
:101F9000020326201A6C42F400321A64C021FEF7B4
:101FA000F7FABEE7002B0008C40A0020AFF3008058
:101FB00011F00C0F00D17047FEF74ABAAFF3008062
:101FC00011F00C0F38B5044637D1606A0268136807
:101FD00023F0010313601368D907FCD4057A216A42
:101FE00043680A683D2000FA05F01860136823F082
:101FF000010313601368DB07FCD46368087A4A683E
:102000001B683D2101FA00F111609BB1042222708E
:10201000204698472378042B0CD0A06848B10025AF
:10202000A560202383F31188FEF7E2FB2B4683F3A0
:10203000118838BD02232370EFE7FEF709FAC4E7E1
:10204000F8B540F6383340F63C35C2F20005C2F22E
:102050000003194E4FF6FF72284640F66C34C2F268
:1020600000041A80FFF70CF84FF440511622462363
:10207000C4F20101C0F20162C0F2016306F124075B
:102080002046E9612E62AA62EB626F62FEF7F8FFFA
:102090004FF4605116224623A6F13C00C4F2000121
:1020A000303EC0F20102C0F20103E16120626662CB
:1020B000A262E362F8BD00BFA02A0008AFF300806F
:1020C0000378012B10B5044627D0C3696268A06A63
:1020D000528902F4006189B2B9B1E16A20F4F0409A
:1020E00021F4F04140F4205041F42051A062E1621B
:1020F00042F44172002119801A8007229A801A88BE
:1021000092B242F040021A8010BDE16A20F4F04021
:1021100021F4F041A062E162EAE71D4B98420CD045
:102120001C4B98421ED0216A626AE36908681168F4
:1021300003F10C0282608A60C8E70A21164A006A2D
:102140002346FFF7ADF9154A606A23460A21FFF7D7
:10215000A7F94FF46053C4F202035A6C42F4805260
:102160005A64E0E70A210C4A006A2346FFF798F90F
:102170000A4A606A23460A21FFF792F94FF4605336
:10218000C4F202031A6C42F480421A64CBE700BF27
:102190003C0B00206C0B0020C11F0008B11F000881
:1021A00043681A895B68012101FA02F292B25A83EC
:1021B000704700BFAFF30080AFF30080AFF3008043
:1021C00043681A895B68012101FA02F292B21A830C
:1021D000704700BFAFF30080AFF30080AFF3008023
:1021E000F0B4046A476A866AC56A24683868E3609E
:1021F00046F4806645F4806561602660C260416097
:102200000560236843F001032360036843F0010382
:102210000360F0BC704700BFAFF30080AFF30080F5
:10222000F0B4036A476AC66A1C68806A3B6840F675
:102230009C35C2F2000546F48066E560616020606E
:10224000DA6059601E60226842F0010222601A685A
:1022500042F001021A60F0BC704700BFAFF300808B
:102260004FF46053C4F202031A6B6FEA52226FEA12
:1022700042221A631A6D6FEA52226FEA42221A65ED
:1022800000230169C4F202034FF4806259610168BE
:1022900019604168596081689960C168D960416975
:1022A000196281695962C16AC4F202024FF4006383
:1022B0005161C1691160016A5160416A9160816A2E
:1022C000D160016B1162416B5162C4F20203826CF6
:1022D0005A61826B1A60C26B5A60026C9A60426CDF
:1022E000DA60C26C1A62016D4FF440625962416E4D
:1022F000C4F202024FF480535161416D1160816D4F
:102300005160C16D9160016ED160816E1162C16ECC
:102310005162C4F20203D0F880205A61026F1A6041
:10232000426F5A60826F9A60C26FDA60D0F8842080
:102330001A62D0F888104FF4A0525962D0F89C105D
:10234000C4F202024FF4C0535161D0F88C101160F6
:10235000D0F890105160D0F894109160D0F8981097
:10236000D160D0F8A0101162D0F8A4105162D0F85A
:10237000B810C4F202034FF4E0525961D0F8A8102B
:102380001960D0F8AC105960D0F8B0109960D0F84E
:10239000B410D960D0F8BC101962D0F8C010C4F2E3
:1023A00002025962D0F8D4305361D0F8C4301360BF
:1023B000D0F8C8305360D0F8CC309360D0F8D0302B
:1023C000D360D0F8D8301362D0F8DC104FF400534B
:1023D0005162D0F8F020C4F202035A61D0F8E02034
:1023E0001A60D0F8E4205A60D0F8E8209A60D0F85B
:1023F000EC20DA60D0F8F4201A62D0F8F8205A62A3
:10240000704700BFAFF30080AFF30080AFF30080F0
:102410002DE9F00F002302F00307C2F38006C2F398
:10242000C105C2F341144FF00F09C2F3C3124FF0BC
:10243000010A04E07600AD00A400BF00013303F000
:10244000070C4FEA8C0C11F0010F02FA0CF809FA94
:102450000CFC3CD0072B95BFD0F820B0D0F824B0AE
:102460002BEA0C0C2BEA0C0C95BF4CEA08084CEA42
:102470000808C0F82080C0F82480D0F804C00AFA08
:1024800003F82CEA080C4CEA060CC0F804C04FF024
:10249000030B4FEA430CD0F808800BFA0CFC6FEAF0
:1024A0000C0C0CEA080848EA0508C0F80880D0F8C7
:1024B0000C800CEA080848EA0408C0F80C80D0F840
:1024C00000800CEA080C4CEA070CC0F800C0490870
:1024D000B0D1BDE8F00F7047AFF30080AFF30080DC
:1024E000FFF79EB8AFF30080AFF30080AFF300803A
:1024F000704700BFAFF30080AFF30080AFF3008000
:10250000F8B540F6A434C2F200040F4640F6A035F8
:102510000646C2F2000567F07F07FEF7C9FD0221FB
:1025200022462B4630462770FF276770FEF7E0FDF6
:102530003046FEF7CDFD6878F8BD00BFAFF30080F0
:10254000F8B5A1F120030D46D9B21F29064617465A
:1025500017D85BB20724012202FA03F3CFF6DD1489
:102560001C4074B1FEF7A4FD064B304602211A460A
:102570001D705F70FEF7D4FD3046BDE8F840FEF7F1
:10258000A7BDF8BDA40B0020AFF30080AFF300801F
:1025900070B400F10B0600F10A04B1FBF2F502FB86
:1025A000151101F13003392BC8BF01F13703DBB23C
:1025B0002946254604F801390029EED1711B2A4627
:1025C000411801E012F8013F00F8013B8842F9D1BF
:1025D00070BC7047AFF30080AFF30080AFF30080B2
:1025E0000EB42DE9F04F86B00FAB0DF10C0953F886
:1025F000044B02930DF10D03C9EB030C0093054648
:10260000CDF804C0264616F8011B69B1252910D063
:102610002B683446264628461B694FF0FF32984700
:1026200016F8011B0029F1D106B0BDE8F04F03B048
:10263000704763782D2B18BF4FF0000800F0188109
:1026400020272E2B00F0108134460299002606E048
:102650000A78043106EB8606237802EB4606A3F1DE
:102660003002D2B20134092AF4D92A2BF0D000204A
:102670002E2B02914BD003F0DF024C2A55D1227849
:10268000012112B1013413460121A3F14402342A7D
:1026900000F2E280DFE812F0D000E000E000E000AD
:1026A000E000E000E000E000E000E000E000E60024
:1026B000E000E000E000E000E000C800E000E00032
:1026C000BB00E000E000E000E000E000E000E0002F
:1026D000E000E000E0009900D000E000E000E00051
:1026E000E000E000E000E000E000E000E000E600E4
:1026F000E000E000E0005000E000C800E000E00082
:10270000BB000A78043100EB800002EB400014F8B3
:10271000013BA3F13002D2B2092AF4D92A2BF0D01E
:1027200003F0DF024C2A0291A9D0A3F1410119293B
:102730008CBF00210121A8E7029B42F61042D3F88A
:1027400000A0C0F60002BAF1000F08BF92460433A1
:102750009AF80020029347F6FF73002808BF184636
:10276000002A00F0A8805346504402E0904200F056
:102770009E8059785A1C13460029F7D1CAEB020BE8
:10278000CBEB0606202726EAE676B8F1000F2DD01F
:10279000BBF1000FC8BF0AEB0B0809DD2B681AF864
:1027A000011B1B6928464FF0FF329847C245F5D1FF
:1027B000002E3FF427AF2B6828461B6939464FF09F
:1027C000FF329847013EF6D11CE7029BDDF804B0CA
:1027D0001A68043302938DF80C202027CA46CBEBED
:1027E000060626EAE676B8F1000FD1D17642002E31
:1027F000CED09AF800102D294CD02B6828461B69A2
:1028000039464FF0FF3298470136F6D1C0E7102223
:10281000029B69B1191D029119684846FFF7B8FE7D
:10282000CA46C9EB000BDAE70A22029B0029F1D164
:10283000181D19680290F0E7029B1A1DE9B9196882
:1028400002920029A8BF48461DDB0A22FFF7A0FE1E
:10285000CA46C9EB000BC2E78DF80C30DDF804B0B6
:10286000CA46BCE70822D3E7737830270136EBE687
:10287000A61CA3784FF00108E2E61968029200292D
:10288000A8BF4846E1DA2D238DF80C3049420DF1FE
:102890000D00DAE7302FB0D12B6828461B694FF0C6
:1028A000FF3298470AF1010A0BF1FF3BA5E7CAEB9B
:1028B000000B202793E79346202790E7AFF3008093
:1028C0000B4B0C4ADB6970B54FF440644FF4005574
:1028D0009A61C4F202042E4626834FF4FA70FEF782
:1028E00097F865834FF4FA70FEF792F8F4E700BFAB
:1028F00048090020402C0008AFF30080AFF30080AF
:1029000008B5202383F3118840F6142042F6604175
:1029100040F6D8420423C2F20000C0F60001C2F221
:102920000002FEF7BDFA002383F3118808BD00BF43
:1029300008B5202383F31188FFF742FC002383F3BB
:10294000118808BDAFF30080AFF30080AFF30080C3
:10295000F8B50378042B00D0F8BD1B4CB4F800E0A8
:10296000A2886788E68825896089E389A1897244FD
:10297000BF1952193F185218FF189210BF10202388
:1029800083F31188114D124E2B8903FB02F2284666
:102990000021C2F30F32FFF7C3F92B8903FB07F2C3
:1029A0000321C2F30F322846FFF7BAF93046FFF78A
:1029B000F7FB03233046082122463370FFF730FC33
:1029C000002383F31188F8BDD80C0020B00A002042
:1029D0006C0B0020AFF30080AFF30080AFF30080FA
:1029E00069646C6500000000000000000000000049
:1029F0006D61696E00160311040448080C10141868
:102A0000001C1D1E0020000000000000000000004F
:102A1000710F0008510F0008010F0008110F000886
:102A2000910F0008810F0008610F0008410F000896
:102A3000210F00080000000000000000000000005E
:102A4000106002400860024000000B002860024055
:102A50000860024006010C0040600240086002402D
:102A600010020D00586002400860024016030E007C
:102A7000706002400C60024000040F008860024059
:102A80000C60024006051000A06002400C6002408D
:102A900010061100B86002400C60024016072F00BB
:102AA00010640240086402400008380028640240B4
:102AB000086402400609390040640240086402408C
:102AC000100A3A005864024008640240160B3B00AA
:102AD000706402400C640240000C3C0088640240B8
:102AE0000C640240060D4400A06402400C640240E5
:102AF000100E4500B86402400C640240160F4600F8
:102B000000960000000000400000000000000000EF
:102B100000AAA02A00000000FFFFFFFF540001648C
:102B2000FFFFFFFF0000565500AA0A0080200800A2
:102B300040020000FFFFFFFF15455155FFFFFFFF5B
:102B4000000000044000000001802002000000009E
:102B5000FFFFFFFF54154554FFFFFFFF000000601B
:102B6000000606000001005500000000FFFFFFFF07
:102B700055505500CF0F000000000000000000007D
:102B80004000000000000000FFFFFFFF10555555FA
:102B9000FFFFFFFF00000000000000000000000039
:102BA00000000000FFFFFFFF55555555FFFFFFFFD9
:102BB0000000000000000000000000000000000015
:102BC000FFFFFFFF55555555FFFFFFFF00000000B9
:102BD000000000000000000000000000FFFFFFFFF9
:102BE00050555555FFFFFFFF00000000000000009A
:102BF0000000000000000000FFFFFFFF5555555585
:102C0000FFFFFFFF000000000000000000000000C8
:102C1000286E756C6C2900000000000000000000A8
:102C2000000000000010024003001B000000000034
:102C300031290008000402400C00000800000000D8
:102C4000626C696E6B65720025642C2025642C20F3
:102C500025640D0A000000000000000000000000D4
:102C600000000000020000005129000800000000E0
:102C700000000000000000401800180000000000E4
:0C2C8000000010000000000070010000C7
:102C90001027000010270000012900080100000093
:102CA0000000000000000000000000000000000024
:102CB0000000000001000000000000000000000013
:04000005080001905E
:00000001FF
